:020000040800F2
:10000000B0B20324B10200083B4C00085B4000087A
:10001000394C0008D10400083D59000800000000D8
:10002000000000000000000000000000A54F0008D4
:10003000F9060008000000003D4C0008D14F000800
:10004000CB020008CB020008CB020008CB0200085C
:10005000CB020008CB020008CB020008CB0200084C
:10006000CB020008CB020008CB020008CB0200083C
:10007000CB020008CB020008CB020008CB0200082C
:10008000D5040008CB020008CB020008CB02000810
:10009000CB020008CB020008CB020008CB0200080C
:1000A000CB020008CB020008CB020008CB020008FC
:1000B000CB0200086951000875510008CB02000806
:1000C000CB020008CB020008CB020008814E0008DA
:1000D000CB020008CB020008CB020008CB020008CC
:1000E000FB060008CB02000800000000CB0200085D
:1000F000CB020008CB020008CB020008CB020008AC
:10010000CB020008CB020008CB020008CB0200089B
:10011000CB020008CB020008CB020008CB0200088B
:10012000CB020008CB020008CB020008CB0200087B
:10013000CB020008CB020008CB020008CB0200086B
:1001400000000000000000000000000000000000AF
:10015000CB020008CB020008CB020008CB0200084B
:10016000CB020008CB020008CB020008CB0200083B
:10017000CB020008CB020008CB0200080000000000
:10018000CB020008CB020008CB020008CB0200081B
:10019000CB020008CB020008CB020008CB0200080B
:1001A000CB020008CB020008CB020008CB020008FB
:1001B000CB020008CB020008CB020008CB020008EB
:1001C000CB020008CB020008CB020008CB020008DB
:1001D000CB020008CB020008CB020008CB020008CB
:1001E000CB020008CB020008CB020008CB020008BB
:1001F000CB020008CB020008CB020008CB020008AB
:10020000CB020008CB020008CB020008CB0200089A
:10021000CB020008CB020008CB020008CB0200088A
:10022000CB020008CB020008CB020008000000004F
:10023000CB020008CB02000800000000CB0200083F
:10024000CB020008CB020008CB020008CB0200085A
:10025000CB020008CB020008CB020008CB0200084A
:10026000CB020008CB020008CB020008CB0200083A
:10027000CB020008CB020008CB02000800000000FF
:10028000CB020008CB020008CB02000800000000EF
:1002900000000000CB020008DFF810D000F09EF84C
:1002A00000480047511B0108AFF30080B0B203249F
:1002B0000648804706480047FEE7FEE7FEE7FEE700
:1002C000FEE7FEE7FEE7FEE7FEE7FEE78D500008EB
:1002D000990200082DE9F05F0546002092469B46F2
:1002E00088460646814640241BE02846414647464C
:1002F000224600F063F853465A46C01A914110D383
:1003000011461846224600F04AF82D1A67EB0108FC
:100310004F4622460120002100F041F817EB00096A
:100320004E41201EA4F10104DFDC484631462A4636
:100330004346BDE8F09F40EA01039B0703D009E074
:1003400008C9121F08C0042AFAD203E011F8013BC1
:1003500000F8013B521EF9D27047D2B201E000F81A
:10036000012B491EFBD270470022F6E710B5134659
:100370000A4604461946FFF7F0FF204610BD421C0E
:1003800010F8011B0029FBD1801A7047034611F8B1
:10039000012B00F8012B002AF9D118467047202ABA
:1003A00004DB203A00FA02F1002070479140C2F1CC
:1003B000200320FA03F3194390407047202A04DBFE
:1003C000203A21FA02F00021704721FA02F3D040CE
:1003D000C2F120029140084319467047064C074D70
:1003E00006E0E06840F0010394E807009847103405
:1003F000AC42F6D3FFF754FF94190408B41904086B
:1004000070B58C1810F8015B15F0070301D110F8D6
:10041000013B2A1106D110F8012B03E010F8016B03
:1004200001F8016B5B1EF9D12B0705D40023521E86
:100430000DD401F8013BFAE710F8013BCB1A921CEE
:1004400003E013F8015B01F8015B521EF9D5A142EC
:10045000D8D3002070BD00002DE9F0411C461546A0
:100460000E4607462A2005F06BFAC7F3072005F071
:1004700083FAF8B205F080FAC6F3072005F07CFA9B
:10048000F0B205F079FA2B2005F05AFAC5F30720EF
:1004900005F072FAE8B205F06FFAC4F3072005F030
:1004A0006BFAE0B205F068FA07480022102101F06B
:1004B000FDF8064800224FF4806101F0F7F8BDE82E
:1004C000F0412C2004F070BD0000025800100258CA
:1004D000FEE70000014800F059BA000080B1022494
:1004E000294A016891423AD0274A1832914236D0BF
:1004F000254A3032914232D0234A483291422ED09E
:10050000214A603291422AD01F4A7832914226D045
:100510001D4A9032914222D01B4AA83291421ED0ED
:100520001A4A91421BD0194A1832914217D0174AE1
:100530003032914213D0154A483291420FD0134ABB
:10054000603291420BD0114A7832914207D00F4A63
:100550009032914203D00D4AA832914211D1CAB2D1
:100560001823103AB2FBF3F26FF30901032A02F0E9
:100570000703074AD25CC26500D9091D8165084698
:10058000704721F0FF01F9E710000240100402401B
:10059000D01E010830B5224A012301689142CAB237
:1005A0001BD01F4C1434A14217D01D4C2834A1423B
:1005B00013D01B4C3C34A1420FD0194C5034A142F3
:1005C0000BD0174C6434A14207D0154C7834A142AB
:1005D00003D0134C8C34A1420CD11421114C083A95
:1005E000B2FBF1F10F4A803201F01F0504EB8101EB
:1005F000AB4010E00C4D1824103A0D44B2FBF4F15E
:10060000A82D00D80831094A01F01F0402EB81012E
:10061000064AA3408032603080E80E0030BD000002
:100620000854025800580258F0FBFDBF0008024071
:1006300010B50279531E072B2DD8174C0168A14223
:100640001BD0154C1434A14217D0134C2834A142AE
:1006500013D0114C3C34A1420FD00F4C5034A14266
:100660000BD00D4C6434A14207D00B4C7834A1421E
:1006700003D0094C8C34A14203D10849074C4431C2
:1006800002E00749064C443104EB8202C0E91B2119
:1006900001219940416710BD08540258FC58025886
:1006A000FC08024010B583694FF0C074826A0146AD
:1006B000002053B1B3F5005F15D072B1012A0CD000
:1006C000022A0AD0032A09D104E01AB1012A06D06D
:1006D000022A03D1C96AC90100D5012010BDC96A27
:1006E000A142FAD010BD002AF7D0012AF2D0022A86
:1006F000F3D0032AF3D010BD70474FF4005000F040
:10070000B3BE72B6FEE700002DE9F05F28B190F8A5
:100710003510022904D0802141650120BDE8F09FF9
:10072000904C904B0168183C18338E4ADFF83C928D
:10073000A1428D4CDFF838E28E4FDFF83CB2DFF893
:100740003CA28F4D8F4E31D091422FD099422DD067
:10075000A1422BD0494529D0714527D0B94225D097
:10076000DFF810C20CF1180C61451FD0DFF808C289
:10077000ACF1600C614519D0DFF8FCC1ACF1480C5C
:10078000614513D0DFF8F0C1ACF1300C61450DD0FC
:10079000DFF8E4C1ACF1180C614507D0594505D02C
:1007A000514503D0A94201D0B1422CD1DFF8B4C1E8
:1007B0004FF0040880F83580ACF1180C61451DD06D
:1007C00091421BD0994219D0A14217D0494515D06A
:1007D000714513D0B94211D06648183081420DD00E
:1007E00065486038814209D063484838814205D065
:1007F00061483038814201D05F481838086820F0DD
:1008000001000860ABE0D1F800C02CF00E08DFF862
:1008100054C1C1F80080ACF1180C0168614527D0C3
:10082000914225D0994223D0A14221D049451FD0E1
:1008300071451DD0B9421BD0DFF838C10CF1180C3E
:10084000614515D0DFF830C1ACF1600C61450FD0C7
:10085000DFF824C1ACF1480C614509D0DFF818C1BC
:10086000ACF1300C614503D0DFF80CC1ACF1180CD1
:10087000D1F800C02CF0010CC1F800C0DFF8E48012
:100880004FF0010C0168A8F11808414546D091428B
:1008900044D0994242D0A14240D049453ED0714512
:1008A0003CD0B9423AD0334A1832914236D0324A1B
:1008B000603A914232D0304A483A91422ED02E4A84
:1008C000303A91422AD02C4A183A914226D05945C2
:1008D00024D0514522D0A94220D0B1421ED02A4A6C
:1008E00091421BD0284A1432914217D0264A28320E
:1008F000914213D0244A3C3291420FD0224A5032C6
:1009000091420BD0204A6432914207D01E4A78327D
:10091000914203D01C4A8C32914218D1016E0A6870
:1009200022F480720A6090F85C20816D02F01F0250
:100930000CFA02F24A60D0E919124A60C16E31B174
:100940000A6822F480720A60D0E91C124A60002210
:10095000016D80F835C080F8342001B1884700204F
:10096000DCE600002800024058000240700002400F
:1009700088000240A0000240700402408804024047
:10098000A0040240B8040240085402582DE9FC5F5C
:100990000446F74E0020DFF8D88300904FF416523B
:1009A000F44808F11808A56DDFF8C493DFF8C0A378
:1009B000016809F1300920680AF1480AB1FBF2F137
:1009C000B04201912F68D5F800C0DFF8ACB335D044
:1009D0004146884232D0484530D050452ED0584507
:1009E0002CD0E5491831884228D0E349303188427B
:1009F00024D0E1494831884220D0E04988421DD0C6
:100A0000DE491831884219D0DC493031884215D08E
:100A1000DA494831884211D0DFF860E30EF1600E08
:100A200070450BD0D54A7832904207D0D34B9033E3
:100A3000984203D0D149A83188427DD194F85C20F6
:100A4000082102F01F0201FA02F23A424AD0B042F3
:100A500032D0404530D048452ED050452CD0584556
:100A60002AD0C54A1832904226D0C34A303290422A
:100A700022D0C14A483290421ED0C04A90421BD078
:100A8000BE4A1832904217D0BC4A3032904213D03E
:100A9000BA4A483290420FD0B84A603290420BD0E6
:100AA000B64A7832904207D0B44A9032904203D08E
:100AB000B24AA832904203D1026802F0040202E076
:100AC000026802F008026AB1026822F004020260C1
:100AD00094F85C0000F01F008140A960606D40F058
:100AE0000100606594F85C00012100F01F00814066
:100AF000394240D02068B04234D0404532D04845D9
:100B000030D050452ED058452CD09B4A18329042B8
:100B100028D0994A3032904224D0974A48329042A5
:100B200020D0964A90421DD0944A1832904219D053
:100B3000924A3032904200E0AFE113D08F4A4832FF
:100B400090420FD08D4A603290420BD08B4A78325F
:100B5000904207D0894A9032904203D0874AA83207
:100B600090427DD1406910F0800F04D0A960606D83
:100B700040F00200606594F85C00042100F01F0062
:100B8000814039423ED02068B04232D0404530D01A
:100B900048452ED050452CD058452AD0764A183298
:100BA000904226D0744A3032904222D0724A483263
:100BB00090421ED0714A90421BD0704A1832904227
:100BC00017D06E4A3032904213D06C4A483290426D
:100BD0000FD06A4A603290420BD0684A7832904215
:100BE00007D0664A9032904203D0644AA8329042BD
:100BF0004ED1006810F0020F04D0A960606D40F083
:100C00000400606594F85C00102100F01F00814032
:100C1000394258D02068B04234D0404532D048459F
:100C200030D050452ED058452CD0534A18329042DF
:100C300028D0514A3032904224D04F4A4832904214
:100C400020D04E4A90421DD04C4A1832904219D0C2
:100C50004A4A3032904215D0484A4832904200E029
:100C600014E00FD0454A603290420BD0434A7832AC
:100C7000904207D0414A9032904203D03F4AA83276
:100C8000904207D1006800F0080006E0006872E7B3
:100C90000068B7E7006800F00400A0B1A960206810
:100CA0000168490304D50068000308D5A16C07E07A
:100CB0000168C90503D4016821F008010160216CB5
:100CC00009B12046884794F85C00202100F01F00FD
:100CD0008140394279D02068B04232D0404530D08E
:100CE00048452ED050452CD058452AD0224A18329B
:100CF000904226D0204A3032904222D01E4A4832BA
:100D000090421ED01D4A90421BD01C4A183290427D
:100D100017D01A4A3032904213D0184A48329042C3
:100D20000FD0164A603290420BD0144A783290426B
:100D300007D0124A9032904203D0104AA832904213
:100D400003D1006800F0100002E0006800F002002B
:100D5000B0B3A96094F835000428206801680FD06A
:100D600049037ED5006800032BD4616C2AE00000A3
:100D7000100002400C0000247000024010040240E9
:100D800021F0160101602068416921F08001416174
:100D9000206C08B9A06C20B12068016821F008011E
:100DA000016094F85C303F21012003F01F03002212
:100DB0009940A96084F8350084F83420216D65E0FD
:100DC00003E0E16B09B120468847606D00287DD0C3
:100DD000606DC00759D02068042184F83510B042F6
:100DE0002BD0404529D0484527D0504525D05845DF
:100DF00023D09D49884220D09B49183188421CD07D
:100E000099493031884218D09849884215D097497D
:100E10001831884211D09549303188420DD093491C
:100E20004831884209D091496031884205D08F49C4
:100E30007831884201D08D499031016821F001015B
:100E4000016020680099019A491C0091914202D8E2
:100E50000168C907F6D10068C00710D003200FE071
:100E6000FFE70168C905ACD403680121002223F023
:100E70001003036084F8351084F83420A1E70120C2
:100E800084F83500002084F83400E16C00291DD07E
:100E900002B02046BDE8F05F0847754988421DD082
:100EA00073491431884219D071492831884215D0CC
:100EB0006F493C31884211D06D49503188420DD084
:100EC0006B496431884209D0694900E084E0783197
:100ED000884203D066498C3188427DD194F85C8089
:100EE0000427016808F01F0807FA08F717EA0C0F33
:100EF000009746D04F0744D500980F04686003D58B
:100F0000C8033CD4A16CC1E7880638D42068B0423D
:100F10002DD055496039884229D0484527D05045C1
:100F200025D0584523D05049884220D04E49183109
:100F300088421CD04C493031884218D04B498842F5
:100F400015D04A491831884211D048493031884279
:100F50000DD046494831884209D0704507D09042AB
:100F600005D0984203D04149A831884203D1016895
:100F700021F0080102E0016821F004010160216C08
:100F800084E7022707FA08F717EA0C0F00974ED0FC
:100F90008F074CD500980F04686003D5C80344D46C
:100FA000616C73E7880640D42068B0422FD02E4988
:100FB000603988422BD0484529D0504527D0584524
:100FC00025D02949884222D02749183188421ED08D
:100FD00025493031884200E044E018D02349884256
:100FE00015D022491831884211D020493031884229
:100FF0000DD01E494831884209D0704507D0904233
:1010000005D0984203D01949A831884203D101681C
:1010100021F0140102E0016821F00A0101600121C0
:1010200084F83510002084F83400E16B2EE70822A4
:1010300002FA08F212EA0C0F14D0090712D501685F
:1010400021F00E01016094F85C100120002201F0F3
:101050001F0100FA01F16960606584F8350084F8C9
:10106000342012E7BDE8FC9F8800024010040240D3
:10107000085402582DE9F05F044600F023FB002CD1
:1010800007467DD0E34E022120684FF00308DFF8C9
:1010900088934FF00005DFF884A3B042DFF880B3F7
:1010A00034D0DC4A1832904230D048452ED05045DA
:1010B0002CD058452AD0DA4A1832904226D0D84A45
:1010C0003032904222D0D64A483290421ED0D54A81
:1010D00090421BD0D34A1832904217D0D14A3032B6
:1010E000904213D0CF4A483290420FD0CD4A60325E
:1010F00090420BD0CB4A7832904207D0C94A903206
:10110000904203D0C74AA83290427DD184F835106E
:10111000B04284F834502ED0BE49183188422AD0CB
:10112000484528D0504526D0584524D0BC491831D0
:10113000884220D0BA49303188421CD0B849483161
:10114000884218D0B749884215D0B649183188422C
:1011500011D0B449303188420DD0B249483188426B
:1011600009D0B0496031884205D0AE497831884213
:1011700001D0AC499031016821F00101016008E023
:1011800027E100BF00F09EFAC01B052801D92021ED
:101190001CE120680068C007F4D104F10800216850
:1011A000D4E9053C8E4685C809681043D4E9072870
:1011B0001F43636A38439C4F40EA0C001043394098
:1011C00040EA0800042B40EA010003D1D4E90B12E5
:1011D00011430843954909686FF30F01B1F1005FAE
:1011E0000FD36168A1F12902052A08D9163A032A0A
:1011F00005D9083A012A02D94F39032901D840F408
:101200008010CEF8000000E023E02068676A4069A3
:10121000042F20F0070047EA00070DD1D4E90A01A6
:10122000074349B12046FFF73DFA28B140206065E9
:10123000012184F83510CCE0206847612046FFF793
:101240004FF994F85C203F2102F01F029140816029
:1012500054E0774A90421BD0754B1433984217D014
:10126000734B2833984213D0714B3C3398420FD0C4
:101270006F4B503398420BD06D4B6433984207D07C
:101280006B4B7833984203D0694B8C3398427DD1B5
:1012900084F8351084F83450664B0168A26801EA7E
:1012A000030E402A73D0802A72D00022D4E903783A
:1012B000D4E9053142EAD70242EAD8085C4AD4E9C7
:1012C000077C48EAD30848EAD10141EAD7015242F3
:1012D00041EA1C11142341EA0E0101602068104408
:1012E000B0FBF3F08000E0652046FFF7F9F894F8D2
:1012F0005C20012102F01F02914041602068B04251
:1013000057D044491831884253D0484551D05045B0
:101310004FD058454DD042491831884249D04049B4
:101320003031884245D03E494831884241D03D491C
:1013300088423ED03B49183188423AD03949303151
:10134000884236D037494831884232D035496031F9
:1013500088422ED03349783188422AD031499031A1
:10136000884226D02F49A831884222D0304988426D
:101370001FD02F49143188421BD02D492831884273
:1013800017D02B493C31884213D002E01DE017E012
:1013900018E02749503188420BD0254964318842F2
:1013A00007D023497831884203D021498C318842C3
:1013B00029D12046FFF7EEF8A06880280CD00CE079
:1013C000102273E74FF4804270E74021616584F892
:1013D00035800120BDE8F09F6560216E20790860AE
:1013E000D4E9190141606068401E072808D82046EA
:1013F000FFF71EF9E06E0560D4E91C01416002E0D0
:10140000E566256765670120656584F8350000207D
:10141000E0E7000010000240400002405800024097
:1014200070000240100402403F8010FE0010005C7B
:10143000085402580F00FEFF70B5044600F042F950
:101440000546601C02D004480078044400F03AF9D4
:10145000401BA042FAD370BD00000024B0F5005F2D
:1014600001D105F005BA70474FF0B04110B5D1F881
:101470008820024203D0C1F88800FFF7EFFF10BDBB
:101480002DE9F84F03247D4D00234FF001094FF063
:10149000B04B4FF00F0AE9E009FA03F73A4076D073
:1014A0000E7906F00306012E01D0022E18D1D0F8D5
:1014B00008C04FEA430ECE6804FA0EF82CEA080C76
:1014C00006FA0EF646EA0C068660D0F804C00E79DD
:1014D0002CEA070CC6F300169E4046EA0C0646604E
:1014E0000E79F643B6070BD0C6684FEA43088F68FB
:1014F00004FA08FC26EA0C0607FA08F73743C76027
:101500000E7906F00306022E12D1DE080F694FEAAB
:10151000437C00EB8606B646366A4FEADC6C0AFA74
:101520000CF807FA0CF726EA08063743CEF82070C5
:101530000F7906684FEA430807F0030704FA08FC2E
:1015400007FA08F726EA0C06374307604E6816F4D8
:10155000403F1CD04A4E376847F002073760366874
:101560009F0706F00206009623F0030606F1B04638
:10157000B6463F0FD6F80864DFF808810AFA07FC80
:10158000404526EA0C0603D14FF0000C41E06CE028
:10159000DFF8F4C0604502D14FF0010C39E0DFF80C
:1015A000ECC0604502D14FF0020C32E0DFF8E0C041
:1015B000604502D14FF0030C2BE0DFF8D8C0604546
:1015C00002D14FF0040C24E0DFF8CCC0604502D11A
:1015D0004FF0050C1DE0DFF8C4C0604502D14FF0AC
:1015E000060C16E0DFF8B8C0604502D14FF0070CDA
:1015F0000FE0DFF8B0C0604502D14FF0080C08E002
:10160000DFF8A4C0604502D14FF0090C01E04FF0B3
:101610000A0C0CFA07FC4CEA060CCEF808C44F681A
:10162000DBF80060FF0226EA020600D516435F469B
:10163000CBF80060D1F804C0DBF804605FEA8C2CC2
:1016400026EA020600D516437E606E684F6826EAD9
:101650000206BF0300D516436E602E684F6826EA67
:101660000206FF0300D516432E605B1C0A6832FA9F
:1016700003F67FF411AFBDE8F88F0000800000583A
:10168000F4440258000002580004025800080258AE
:10169000000C02580010025800140258001802589A
:1016A000001C025800200258002402580AB181612F
:1016B00070470904FBE7000001480068000C704710
:1016C0000010005C014880687047000000000024A2
:1016D00030B590F84120202A24D190F84020012AEA
:1016E00020D0012380F84030242280F8412020239C
:1016F00000240268156825F0010515600268156868
:1017000025F480551560026815680D431560016861
:101710000A6842F001020A6080F8413080F84040D7
:10172000002030BD022030BD30B590F84120202A85
:1017300022D190F84020012A1ED0012380F84030A9
:10174000242280F84120202400250268136823F019
:10175000010313600268136823F4706343EA0121F4
:10176000116001680A6842F001020A6080F8414095
:1017700080F84050002030BD022030BD90F841007C
:101780007047000070B5040004D094F841000025B3
:1017900010B106E0012070BD204684F8405000F0F2
:1017A00071F9242084F841002068016821F00101CA
:1017B0000160D4E9001020F0706008612068816841
:1017C00021F400418160E06821680128A06806D00A
:1017D00040F404408860E068022803D006E040F44A
:1017E0000040F7E721684FF400604860202120683E
:1017F000114A4368134343602068C26822F40042E0
:10180000C26054F8106B0DCC104340EA0320F06026
:1018100054F81C3CD4E900021043186054F81C0D25
:10182000026842F001020260656484F84110256399
:1018300084F84250002070BD008000022DE9F84F6E
:10184000044690F841001F469046DDF828A08B46DC
:1018500020287ED194F8400001287AD0012084F815
:101860004000FFF72FFF0122064619230090D10305
:10187000204602F0ADFCE0BB0025222184F8411097
:10188000102084F8420065646785618DFF27324827
:101890004FF00079C4F82480FF294FF08078656309
:1018A00003D927853A46009039E0618D2185009063
:1018B0003AE05946204602F073FC13E002F0B6FC11
:1018C000B8B92068616A406A0870606A401C60624A
:1018D000208D401E81B22185608D401E6085608D07
:1018E00000B169B1608D3246514600282046E5D1ED
:1018F00000E002E002F0E8FCD0B10120BDE8F88F82
:101900000022534680212046009602F061FC002808
:10191000F3D1608DFF2804D927853A4600954346C8
:10192000C7E7608D208500954B4694F82820C0E7D6
:1019300020682021094AC161206843681340436040
:1019400084F8411084F84250002084F84050D5E7D4
:10195000FFE70220D2E700000024008000E800FE3C
:101960002DE9F84F044690F841001F469046DDF8F7
:1019700028A08B4620287ED194F8400001287AD0F8
:10198000012084F84000FFF79DFE0122064619233E
:101990000090D103204602F01BFCE0BB0025212172
:1019A00084F84110102084F8420065646785618DD9
:1019B000FF2732484FF00079C4F82480FF294FF008
:1019C0008078656303D927853A46009039E0618DB8
:1019D000218500903AE05946204602F0E1FB13E0F1
:1019E00002F099FCB8B9606A216800788862606A80
:1019F000401C6062608D401E6085208D401E80B25C
:101A00002085618D01B168B1608D32465146002854
:101A10002046E5D100E002E002F056FCD0B1012002
:101A2000BDE8F88F0022534680212046009602F040
:101A3000CFFB0028F3D1608DFF2804D927853A46D3
:101A400000954346C7E7608D208500954B4694F886
:101A50002820C0E720682021094AC1612068436826
:101A60001340436084F8411084F84250002084F809
:101A70004050D5E7FFE70220D2E7000000200080B9
:101A800000E800FEF0B5B5B0044614212FA8FEF71B
:101A90006BFCBC216846FEF767FC20492068884241
:101AA00039D10820009000246846209400F0B0FA54
:101AB00008B1FEF726FE1A48016841F004010160F2
:101AC000016801F004013491016841F001010160F5
:101AD000006801262FA900F0010034901225700241
:101AE000042781E861000F48CDE93247FFF7C8FCC1
:101AF0002FA9300281E861000B48CDE93247FFF79A
:101B0000BFFC07480830016841F40001016000682B
:101B100000F40000349035B0F0BD0000005C0040DF
:101B2000E044025800080258000002580248816848
:101B3000027811448160704700000024032010B532
:101B400000F0D4F801F042F80F4A10491468136805
:101B5000C4F3032203F00F038A5CC95C02F01F0286
:101B600001F01F01D0400A4A20FA01F11160094931
:101B700008600F2000F010F808B1012010BD00F03F
:101B800079F8002010BD000018440258001F010819
:101B9000100000240C00002470B50D4D0446287878
:101BA000A0B14FF47A71B1FBF0F00A490968B1FBBA
:101BB000F0F001F08CFE48B9102C07D2002221462B
:101BC000501E00F073F800206C6070BD012070BDE5
:101BD000000000240C000024F0B5154C4378211DB2
:101BE0000A1D23600378F3B143680B60057BC67A56
:101BF000817A437B2D07847B45EA0665C77B90F895
:101C000009C0067A90F800E045EAC14040EA834006
:101C100040EA444040EA074040EA0C2040EA4600DF
:101C200040EA0E0001E0002008601060F0BD0000F6
:101C300098ED00E0BFF35F8F044800210368034A7A
:101C400023F48033036070321160704724ED00E0AC
:101C5000074A40F00100064970321060086840F4FD
:101C600080300860BFF34F8FBFF36F8F7047000065
:101C700024ED00E0054808B5016841F0020101606B
:101C8000006800F00200009008BD0000F444025813
:101C9000002809DB410900F01F028900012001F141
:101CA000E0219040C1F80001704700000E4BF0B4F5
:101CB0001B680D46C3F30223C3F10706042E00D9A7
:101CC0000426191D072901D2002300E0DB1E012490
:101CD00004FA06F19C40491E2940641E99401440B4
:101CE0002143F0BC03F092BE0CED00E0064900F089
:101CF000070210B54FF6FF040868044B204040EA85
:101D000002201843086010BD0CED00E00000FA0549
:101D1000134970B50A68D243520705D5096801F026
:101D20000701814213D118E00A6822F0070202433A
:101D30000A60FFF7C7FC0A4D4FF47A760446083D67
:101D400007E000BFFFF7BEFC001BB04201D9012035
:101D500070BD2868C0438004F4D4002070BD00002A
:101D60000C48025810B500F0EBFE05490968054A19
:101D7000C1F30211515C01F01F01C84010BD000009
:101D800020440258001F0108494930B5484C0B1D3A
:101D90000A68143409681D68246802F00303C5F357
:101DA0000012C1F30531C4F3CC04002914FB02F284
:101DB00000EE102AF8EE400A75D03F4A9FED3D1A1A
:101DC000B7EE000A6BB1DFED3D1A012B01D0022BFB
:101DD00064D002EE101A1168F8EE422A81EEA22AAF
:101DE00021E0334C283C23689B0612D5344B2468F1
:101DF00001EE901A1168C4F3C104F8EE612AE340C1
:101E000001EE903AC1F30801F8EE611A81EEA22AC0
:101E10000BE001EE901ADFED2B2A00BFF8EE611AFD
:101E2000116882EEA12AC1F3080101EE901A11682F
:101E3000F8EE611A40EE811A71EE800A62EE200A15
:101E4000C1F3462101EE101AB8EE411A31EE001A24
:101E5000C0EE811ABCEEE11A80ED001A1168C1F3E0
:101E6000064101EE101AB8EE411A31EE001AC0EE2A
:101E7000811ABCEEE11A80ED011A1168C1F3066106
:101E800001EE101AB8EE411A31EE000A80EE801A07
:101E9000BCEEC10A80ED020A30BD04E001EE901AEA
:101EA000DFED092ABAE70021016041608160F3E7B4
:101EB0002844025800000039384402580024744A6B
:101EC0000090D0030024744C20BCBE4B494930B56F
:101ED000484C0B1D0A681C3409681D68246802F010
:101EE0000303C5F30022C1F30551C4F3CC04002958
:101EF00014FB02F200EE102AF8EE400A75D03F4AB9
:101F00009FED3D1AB7EE000A6BB1DFED3D1A012BD4
:101F100001D0022B64D002EE101A1168F8EE422AAA
:101F200081EEA22A21E0334C283C23689B0612D57F
:101F3000344B246801EE901A1168C4F3C104F8EE22
:101F4000612AE34001EE903AC1F30801F8EE611A0C
:101F500081EEA22A0BE001EE901ADFED2B2A00BFE2
:101F6000F8EE611A116882EEA12AC1F3080101EEB0
:101F7000901A1168F8EE611A40EE811A71EE800A2B
:101F800062EE200AC1F3462101EE101AB8EE411AA2
:101F900031EE001AC0EE811ABCEEE11A80ED001A93
:101FA0001168C1F3064101EE101AB8EE411A31EE84
:101FB000001AC0EE811ABCEEE11A80ED011A116818
:101FC000C1F3066101EE101AB8EE411A31EE000AB3
:101FD00080EE801ABCEEC10A80ED020A30BD04E03A
:101FE00001EE901ADFED092ABAE700210160416095
:101FF0008160F3E728440258000000394044025849
:102000000024744A0090D0030024744C20BCBE4BC2
:102010002DE9FC5F044650F8241B002500902E4655
:102020000801FE4FDFF8F8831DD5606E50B1B0F5A2
:10203000801F0CD0B0F5001F0ED0B0F5401F1DD092
:1020400001250FE0386840F40030386016E00221C6
:10205000201D02F0F5FD03E00098022102F080FE51
:1020600005000BD02E462088C00523D5606D0528BD
:102070001ED2DFE800F00C11161B1B00626ED8F8B0
:10208000001021F440111143C8F80010EBE7386844
:1020900040F40030386009E00021201D02F0D0FD3E
:1020A00003E00098002102F05BFE05466DB100E000
:1020B00001252E462088800528D5A06D80281ED0B9
:1020C0000CDC90B140280ED114E0626DD8F80010FD
:1020D00021F007011143C8F80010EBE7C02813D026
:1020E000B0F5807F10D001250FE0386840F4003053
:1020F000386009E00021201D02F0A2FD03E00098F5
:10210000002102F02DFE054695B12E462088DFF80D
:102110001093400509F108092CD5D4F8A400B0F5B6
:10212000800F20D00DDCA0B1B0F5001F0FD115E05D
:10213000A26DD8F8001021F4E0711143C8F8001026
:10214000E4E7B0F5C00F13D0B0F5000F10D00125B3
:102150000FE0386840F40030386009E00021201DAD
:1021600002F06EFD03E00098002102F0F9FD054643
:1021700075B12E46208800052DD5D4F8A800B0F101
:10218000007F21D00EDCA8B1B0F1807F10D116E025
:10219000D4F8A420D9F8001021F460011143C9F843
:1021A0000010E7E7B0F1407F13D0B0F1806F10D09E
:1021B00001250FE0386840F40030386009E0002164
:1021C000201D02F03DFD03E00098002102F0C8FD53
:1021D00005466DB12E46206880011FD5A06CD8B190
:1021E00010280FD0202812D0302815D0012514E057
:1021F000D4F8A820D9F8001021F0E0611143C9F803
:102200000010E8E7386840F40030386004E002214C
:10221000201D02F015FD05466DB12E462088C00434
:102220002BD5E06DB0F5005F20D00DDCA0B1B0F58E
:10223000805F0FD115E07A48A26C001F016821F081
:10224000300111430160E9E7B0F5405F13D0B0F50C
:10225000804F10D001250FE0386840F4003038601E
:1022600009E00021201D02F0EBFC03E000980021B2
:1022700002F076FD054685B12E462088800429D5DA
:10228000206EB0F5403F23D010DC08B3B0F5803F9E
:1022900014D0B0F5003F0FD115E0E26DD8F8001072
:1022A00021F4E0411143C8F80010E6E7B0F5802FB3
:1022B0000ED0B0F5A02F0BD001250AE00121201D82
:1022C00002F0BEFC03E00098012102F049FD054642
:1022D0008DB12E46208840042AD5D4F8AC00B0F148
:1022E000405F23D010DC08B3B0F1805F14D0B0F1B0
:1022F000005F0FD115E0226ED8F8001021F4E02124
:102300001143C8F80010E5E7B0F1804F0ED0B0F1EE
:10231000A04F0BD001250AE00121201D02F090FC06
:1023200003E00098012102F01BFD05466DB12E4629
:10233000208800041FD5E06ED8B1B0F1805F0ED0C8
:10234000B0F1005F10D0012514E0D4F8AC20D9F82A
:10235000001021F0E0411143C9F80010E8E73868A7
:1023600040F40030386004E00121201D02F068FCD8
:1023700005466DB12E462068C0011ED5606CD0B1F7
:1023800001280ED0022811D0032814D0012513E013
:10239000E26ED8F8001021F040511143C8F8001047
:1023A000E9E7386840F40030386004E00221201D7D
:1023B00002F046FC054685B12E462068DFF85CB089
:1023C0004002ABF11C0B57D51648016841F48071EF
:1023D0000160FFF777F982460EE01148626C001F3A
:1023E000016821F0030111430160E6E7FFF76AF994
:1023F000A0EB0A0064283DD80A480068C005F5D55E
:102400007DBBDFF81CA0B4F8B0200AF1200ADAF88E
:10241000001002F4407001F4407105E02C440258B1
:102420005044025800480258814211D0DAF8001096
:10243000DAF8002021F4407142F48032CAF800201A
:10244000DAF8002022F48032CAF80020CAF800101E
:10245000D4F8B000B0F5807F21D1FFF733F90190B7
:1024600019E008E0FFF72EF90199411A41F288308E
:10247000814210D903252E462078DFF844A4C007F6
:102480003DD0A06F182838D026DC80B3082829D08A
:10249000102825D12CE0DAF800008007E2D5D4F826
:1024A000B010C1F30120032858460DD0016821F473
:1024B0007C510160B4F8B020DAF80010C2F30B02CE
:1024C0001143CAF80010D7E7FE4A036802EA111266
:1024D00023F47C511143ECE720280ED028280CD09F
:1024E00001250BE00121201D02F0AAFB04E004E01D
:1024F0000098012102F034FC05465DB12E4620789B
:1025000080071ED5606F062819D2DFE800F0160C90
:1025100011161616A26FDAF8001021F038011143D7
:10252000CAF80010EBE70121201D02F089FB03E04F
:102530000098012102F014FC054675B100E0012568
:102540002E46207840071FD5D4F89000062819D2CF
:10255000DFE800F0160C11161616626FDAF800109C
:1025600021F007011143CAF80010EAE70121201DFC
:1025700002F066FB03E00098012102F0F1FB054642
:102580009DB100E001252E46207880062BD5D4F899
:102590008C00B0F1405F24D011DC10B3B0F1805F4B
:1025A00015D0B0F1005F10D116E0D4F89020D9F822
:1025B000001021F007011143C9F80010E4E7B0F161
:1025C000804F0ED0B0F1A04F0BD001250AE00021C2
:1025D000201D02F035FB03E00098022102F0C0FB51
:1025E00005468DB12E46207840062BD5D4F89800AC
:1025F000B0F5406F24D011DC10B3B0F5806F15D06A
:10260000B0F5006F10D116E0D4F88C20DAF8001085
:1026100021F0E0411143CAF80010E4E7B0F5805F13
:102620000ED0B0F5A05F0BD001250AE00021201DDF
:1026300002F006FB03E00098022102F091FB054640
:102640008DB12E46207800062BD5D4F89C00B0F52D
:10265000C04F24D011DC10B3B0F5005F15D0B0F539
:10266000804F10D116E0D4F89820D9F8001021F44A
:10267000E0511143C9F80010E4E7B0F5004F0ED067
:10268000B0F5204F0BD001250AE00021201D02F0FB
:10269000D7FA03E00098022102F062FB05464DB133
:1026A0002E46207800071ED5D4F88000B0F5805F54
:1026B0000AD00FE0D4F89C20D9F8001021F4604132
:1026C0001143C9F80010ECE70098022102F048FB22
:1026D00000B10126D4F88020DAF8001021F440512E
:1026E0001143CAF800102078C00613D5D4F894001E
:1026F000B0F5807F05D10098022102F031FB00B1D6
:102700000126D4F89420D9F8001021F44071114327
:10271000C9F800102068000316D5D4F8A00038B11D
:10272000B0F5803F09D0B0F5003F0BD001250AE09D
:102730000021201D02F084FA03E00098022102F03B
:102740000FFB054685B12E462068400322D5D4F8FC
:102750008400B0F5801F11D0B0F5001F13D0B0F584
:10276000401F15D0012514E0D4F8A020D9F800109E
:1027700021F440311143C9F80010E5E7386840F40E
:102780000030386004E00098012102F0E9FA0546C3
:1027900055B12E462068C0031CD5E06C70B1B0F571
:1027A000803F10D0012514E0D4F88420DAF800101E
:1027B00021F440111143CAF80010EBE7386840F4E7
:1027C0000030386004E00221201D02F039FA05468D
:1027D000CDB12E462068800005D50098022102F078
:1027E000BFFA00B10126206880031BD5E06FB8B1A5
:1027F000B0F5807F10D0B0F5007F11D0B0F5407FEC
:102800000ED001250DE02E48E26C0838016821F455
:10281000803111430160DDE7386840F400303860F2
:10282000F5B32E462068C00207D5226FD8F80010F5
:1028300021F000411143C8F800102068C00008D5FD
:10284000D4F8B420DBF8001021F480411143CBF818
:1028500000102068800207D5A26ED8F8001021F081
:1028600080711143C8F80010206840000CD5DBF8D7
:10287000001021F40041CBF80010DBF80010D4F870
:10288000B8201143CBF800102068002807DA0C4864
:10289000226D0838016821F040511143016000E0C9
:1028A00014E02068000208D5D4F88820DAF8001077
:1028B00021F440011143CAF8001086B1012003E061
:1028C00054440258CFFFFF00BDE8FC9FE26FDAF8E6
:1028D000001021F440711143CAF80010A2E7002053
:1028E000EDE700002DE9F05F04000F467ED0DFF831
:1028F0003882D8F8000000F00F00B8420CD2D8F8A7
:10290000001021F00F013943C8F80010D8F800007A
:1029100000F00F00B84269D12078844D40070AD5F5
:102920002069296801F07001884204D9296821F0E2
:1029300070010143296020787C4E361D00070AD5BE
:102940006069316801F07001884204D9316821F072
:102950007001014331602078C0060AD5A069316852
:1029600001F4E061884204D9316821F4E061014357
:1029700031602078DFF8B4B180060BF1080B0CD57C
:10298000E1695846DBF8002002F07002914204D958
:10299000026822F070020A430260207880070AD59C
:1029A000E068296801F00F01884204D9296821F004
:1029B0000F01014329602078C0073ED05B49A2681F
:1029C0002868183920F47060104328606068022875
:1029D00018D0032819D00968012819D049070029FF
:1029E0004ADADFF848A1AAF1080A00E044E0DAF880
:1029F000002022F007020243CAF80020FEF762FE20
:102A0000814612E009688903E9E709688901E6E778
:102A1000C905E4E7FEF756FEA0EB090141F2883054
:102A2000814202D90320BDE8F09F6168DAF8000016
:102A300000F03800B0EBC10FECD1207880070AD548
:102A4000E068296801F00F01884204D2296821F06A
:102A50000F0101432960D8F80010404601F00F0132
:102A6000B9420BD9016821F00F01394301600068B8
:102A700000F00F00B84201D00120D4E720784007D1
:102A80000AD52069296801F07001884204D22968BA
:102A900021F0700101432960207800070AD56069A0
:102AA000316801F07001884204D2316821F0700170
:102AB000014331602078C0060AD5A069316801F46D
:102AC000E061884204D2316821F4E0610143316061
:102AD000207880060CD5E1695846DBF8002002F02A
:102AE0007002914204D2026822F070020A4302602E
:102AF00000F06CF80E492A682B68C2F3032203F039
:102B00000F038A5CC95C02F01F0201F01F01D04074
:102B1000084A20FA01F11160074908600748006877
:102B2000BDE8F05FFFF738B80020005218440258A3
:102B3000001F0108100000240C00002404000024E1
:102B400030B500F043F80B4A0B490C4B156814687C
:102B5000C5F3032204F00F048A5C095D02F01F0232
:102B600001F01F01D040064A20FA01F119601060FF
:102B7000084630BD18440258001F01081000002408
:102B80000C00002400B5FFF7DBFF05490968054A82
:102B9000C1F30211515C01F01F01C84000BD0000EB
:102BA0001C440258001F010800B5FFF7C9FF054982
:102BB0000968054AC1F30221515C01F01F01C840B8
:102BC00000BD00001C440258001F0108454970B5B3
:102BD00045480968434B103B11F0380208D00111F9
:102BE000082A03D0102A0BD0182A0BD0084670BD33
:102BF00019688906FBD51968C1F3C101C84070BDC9
:102C00003A4870BD3749374D18310C1D24350A68D4
:102C1000096826682D6802F0030406F00102C1F37A
:102C20000511C5F3CC0515FB02F200EE102AB8EE33
:102C3000400AE9B32F4ADFED2E0AB7EE001A6CB155
:102C4000DFED2D1A012C01D0022C43D002EE101A18
:102C50001068F8EE422A81EEA22A1EE01C68A40643
:102C600011D51B6801EE901A1168C3F3C103F8EE89
:102C7000612AD84001EE900AC1F30800F8EE611A0B
:102C800081EEA22A0BE001EE901ADFED1C2A00BFB4
:102C9000F8EE611A106882EEA12AC0F3080001EE76
:102CA000900AF8EE611A40EE201A31EE810A00E037
:102CB00015E022EE000A1068C0F34620401C00EE2A
:102CC000900AF8EE600A80EE201ABCEEC10A10EEFF
:102CD000100A70BD01EE901ADFED092AD8E7002036
:102CE00070BD0000104402580090D00340787D0170
:102CF00000000039304402580024744A0024744C07
:102D000020BCBE4B2DE9F05F04007DD0FF4F207842
:102D1000FE4D1837DFF8F493103DC00748D0D9F8BE
:102D20000000396800F03800102815D0182803D1A9
:102D300001F0030002280FD06068B0F5803F12D088
:102D400010B1B0F5A02F18D0286820F4803028608A
:102D5000286820F4802009E02868800328D560686E
:102D60000028D2D024E0286840F4803028606068D1
:102D700088B1FEF7A7FC064609E0286840F48020E9
:102D80002860F0E7FEF79EFC801B64286FD8286857
:102D90008003F7D50CE0FEF795FC064605E000BF82
:102DA000FEF790FC801B6428F0D828688003F7D4D5
:102DB000207841F20308D54E0C3E800769D5D9F83A
:102DC0000000396810F038000ED0182801D18807AB
:102DD0000AD0E06890B3296821F019010143296005
:102DE000FEF770FC824631E02868400702D5E068B3
:102DF00000288AD0E168286820F01900084328607C
:102E0000FEF760FC824607E0DFE000BFFEF75AFCF9
:102E1000A0EB0A000228B9D828684007F6D500BF01
:102E2000FEF74AFC40451BD82069402812D0316883
:102E300021F47C3141EA003030602AE018E000BF24
:102E4000FEF740FCA0EB0A0002289FD82868400744
:102E5000F6D5E5E7306820F47C3040F40030EBE74D
:102E6000207C316821F0FE4141EA0060E4E70DE199
:102E7000286820F001002860FEF724FC824605E067
:102E8000FEF720FCA0EB0A0002288DD82868400736
:102E9000F6D42078C0065DD5D9F80000DFF86CB212
:102EA000396800F03800ABF1040B082810D018285E
:102EB00003D101F0030001280AD0E0690028286846
:102EC00038D040F080002860FEF7FCFB824623E00B
:102ED0002868C00523D5E069802876D11FE0206AE4
:102EE000202821D0316821F0F84141EA806030602B
:102EF00030E000BF94F82010DBF8002022F07C5274
:102F000042EA0161CBF8001024E000BFFEF7DAFBD3
:102F1000A0EB0A00022898D82868C005F6D5FEF76D
:102F2000CBFB4045E6D8DAE7306820F0F84040F0C7
:102F30008040DCE720F080002860FEF7C3FB0646F7
:102F400005E000BFFEF7BEFB801B02289DD8286865
:102F5000C005F7D42078000729D56C486169643032
:102F600000298046016811D041F001010160FEF79F
:102F7000A9FB064605E000BFFEF7A4FB801B022864
:102F8000C9D8D8F800008007F6D510E021F001017B
:102F90000160FEF797FB064605E000BFFEF792FBD7
:102FA000801B022872D8D8F800008007F6D4207859
:102FB000800623D5A0690028286810D040F48050EE
:102FC0002860FEF77FFB064605E02CE1FEF77AFB62
:102FD000801B02285AD828688004F7D50EE020F418
:102FE00080502860FEF76EFB064604E0FEF76AFBA1
:102FF000801B02284AD828688004F7D4207840072C
:103000004FD5DFF80C81D8F8001041F48071C8F872
:103010000010FEF757FB064605E000BFFEF752FB27
:10302000801B642832D8D8F80000C005F6D5374E8A
:10303000A068603601280AD008B1052813D030688E
:1030400020F001003060306820F0040002E03068B9
:1030500040F001003060A06841F2883A90B1FEF77C
:1030600031FB80460AE0306840F004003060EEE753
:10307000FEF728FBA0EB0801514507D83068800710
:10308000F6D50EE0FEF71EFB804607E084E000BFA9
:10309000FEF718FBA0EB080151457DD8306880078A
:1030A000F6D4606AB0B3DFF86480D9F8001008F194
:1030B0002008C1F3C20103296FD00228286820F03C
:1030C0008070286003D0FEF7FDFA044680E0FEF72A
:1030D000F9FA064605E000BFFEF7F4FA801B022865
:1030E00073D828688001F7D4E26A40F2F331386877
:1030F00054F8283F884340EA021018433860217B87
:103100004FF4FE0C22894FF0FE4704E010440258B1
:103110000048025889E0208A4902521E267DA1F506
:10312000007189B2401EC2F308021143761E0CEAF8
:10313000004001433E4807EA066211433C4AC8F892
:1031400000100832016821F00101016011684FF69A
:10315000F876236AB14341EAC30111600168A269AC
:1031600021F00C01114301600168E26921F00201C4
:1031700011430160016841F480310160016841F44C
:1031800000310160016841F480210160016841F073
:1031900001010160286801E017E01DE040F0807047
:1031A0002860FEF78FFA044605E000BFFEF78AFAB2
:1031B000001B022809D828688001F7D535E000BF38
:1031C000FEF780FA001B022802D90320BDE8F09F19
:1031D00028688001F4D428E039680128D8F8000074
:1031E00021D0A26A01F0030393421CD1E26AC1F329
:1031F00005118A4217D1216BC0F30802491E8A4289
:1032000011D1616BC0F34622491E91420BD1A16BD3
:10321000C0F30642491E914205D1E16BC0F306603E
:10322000491E814201D00120D0E70020CEE70000F6
:103230002C440258704700002DE9F05F01680446F5
:103240000020D1F810804F69D1F8089094F881607F
:1032500008EA070515F0600F01F1300B08D1690786
:1032600006D5616F20468847216F20468847012098
:1032700005F04101012905D1690703D4216F2046DA
:103280008847012005F02201022906D1690704D4EC
:10329000616F2046BDE8F05F084700284CD1280741
:1032A0004FF0010A5CD52068816941F00801816115
:1032B0002068816941F0100181612068816941F4D1
:1032C000006181612068016921F0080101612068C5
:1032D000806810F4404F20D023E0E0680F2806D922
:1032E0002068616E006B0860606E001D0FE00728AB
:1032F00006D9BBF80000616E0880606E801C06E095
:103300002068616E90F830000870606E401C606646
:10331000B4F86A00401EA4F86A00B4F86A000028F5
:10332000DBD1204601F0B2FD84F881A0D4F88400FE
:1033300020B12046FFF77EFFBDE8F09F052E07D0A5
:10334000042E09D0032EF7D1204600F0BEFAF3E791
:10335000204600F0BBFAEFE7204600F099F9EBE7D2
:10336000380508D55FEA087005D52068816941F401
:1033700000618161E0E715F4587FDDD068060AD569
:10338000D4F8840040F00400C4F884002068816907
:1033900041F040018161A8050AD5D4F8840040F0CD
:1033A0000100C4F884002068816941F400718161E2
:1033B000E8050AD5D4F8840040F00800C4F8840079
:1033C0002068816941F480718161A8060AD5D4F82A
:1033D000840040F08000C4F884002068816941F0D6
:1033E00020018161D4F884000028A5D0206840F233
:1033F0006B32C9F381310368032923F001010160B5
:103400002068016921EA0201016102D084F881A0EB
:103410008FE72068104D816821F440418160E06FA2
:1034200050B10565E06FFDF76FF928B1D4F884005D
:1034300040F04000C4F88400A06F002887D00565E4
:10344000A06FFDF761F9002885D0D4F8840040F022
:103450004000C4F884006FE7494F00082DE9F047A9
:10346000040029D0504A4FF0000920684F4B504DBE
:103470009042C4F8289006D0984204D0A84202D0C6
:10348000E1680F2918D8E1684FF0010AE76B0831AD
:10349000C9080AEB57167143904205D0984203D0F1
:1034A000A84201D0082907D8904203D0984201D001
:1034B000A84204D1102902D90120BDE8F08794F870
:1034C000810020B9204684F8809000F073F8022033
:1034D00084F881002068016821F001010160216801
:1034E000A0698A68B0F1806F02F4F81010D16268A8
:1034F000B2F5800F01D01AB10AE0A26B22B107E049
:10350000A26BB2F1805F03D10A6842F480520A6074
:10351000A66AE169E26B25683143E368024311431F
:103520001943A960D4E90D02D4E90571636A2569DC
:103530001843D4F820C00A43266810432843A56DD9
:103540003843D4E90182D4E9123140EA0C0040EA60
:1035500008000843104318432843F060606868B9C6
:103560002068816821F4C05141F4006181602068C5
:10357000816821F4C06141F4806181602068016D3F
:1035800021F0010101656068400206D52068626D86
:10359000C16821F000411143C160C4F8849084F8EF
:1035A00081A0002089E70000003001400038004081
:1035B000003C0040F0B5B5B0064614212FA8FCF73A
:1035C000D3FEBC216846FCF7CFFE2C493068884208
:1035D00051D102248014052730210291CDE9000445
:1035E000CDE9037400250895C0220594179068461C
:1035F000CDE90625FEF70CFD08B1FDF782F820485D
:10360000016841F480510160006800F480503490FA
:103610001B481038016841F00101016000682FA9C2
:1036200000F001003490E02081E831001548CDE938
:103630003247FDF725FF144C2621144840224FF451
:10364000005C84E82700C714C4E906C50315256299
:1036500065622046C4E90437FDF70CFD08B1FDF7AB
:1036600050F80022B46723201146A663FEF71EFB24
:103670002320FEF70DFB35B0F0BD00000030014007
:10368000F04402580000025880B102248800024031
:1036900070472DE9FC5F0446006817468A46002102
:1036A0001D4694F8802000F1200B0191012A0DD0D5
:1036B0004FF0010884F88080FEF704F8814694F802
:1036C00081000026012804D002201EE00220BDE86F
:1036D000FC9FBAF1000F17D0B7B1A1680320C4F85E
:1036E0005CA0A4F8607084F88100C4F88460A4F839
:1036F00062706666A4F86860A4F86A60B1F5C02FCD
:103700006667266704D008E0012084F88060DEE761
:103710002068016841F400610160206841686FF32E
:103720000F01394341602068016841F001010160E7
:103730006068B0F5800F04D12068016841F4007121
:103740000160E0680F281BD81FE0206841698907E5
:103750000BD5E16D09680162E06D001DE065B4F80C
:103760006200401EA4F862000AE0FDF7ABFFA0EB88
:103770000900A84202D3681C02D095E0002D30D089
:10378000B4F862000028E0D174E007282BD86DE07F
:103790002068416989071CD5B4F8621001290BD94A
:1037A000E16B49B1E16D09680162E06D001DE06502
:1037B000B4F86200801E09E0E06D0188ABF80010EB
:1037C000E06D801CE065B4F86200401EA4F8620061
:1037D00009E0FDF777FFA0EB0900A84202D3681CBF
:1037E00001D061E0BDB3B4F862000028D0D141E05F
:1037F0002068416989072FD5B4F8621003290CD9D4
:10380000E16B402909D9E16D09680162E06D001D95
:10381000E065B4F86200001F1AE0B4F862100129F4
:103820000CD9E16B51B1E06D0188ABF80010E06D8F
:10383000801CE065B4F86200801E09E0E16D097843
:1038400080F82010E06D401CE065B4F86200401E76
:10385000A4F862000AE027E0FDF734FFA0EB0900BE
:10386000A84202D3681C01D01EE0EDB1B4F862009A
:103870000028BDD100224B4608212046009501F0CA
:1038800070FB28B1D4F8840040F02000C4F8840014
:10389000204601F0FBFA84F88180D4F8840084F893
:1038A000806080B1012012E7204601F0EFFAD4F8E1
:1038B000841084F8806041F48071C4F8841084F826
:1038C0008180032003E7019801E770477047401E9D
:1038D000B0F1807F10B501D3012010BD4FF0E0247E
:1038E00060610F21601702F091F80020A0610721AC
:1038F000216110BD7047704770470000F0B590F827
:103900003C20012A3BD01F4E012480F83C4002227B
:1039100080F83D2002681C4D5368B242D2F808C0BE
:1039200001D0AA4203D14F6823F470033B430F68D0
:1039300023F070031F4357600268B24213D0B2F104
:10394000804F10D0114B9A420DD0114B9A420AD0A1
:10395000104B9A4207D0AA4205D00F4B9A4202D090
:103960000E4B9A4204D189682CF080031943916070
:10397000002180F83D4080F83C100846F0BD022050
:10398000F0BD0000000001400004014000040040C0
:1039900000080040000C00400018004000400140BA
:1039A00010B5040003D094F83D0010B107E00120E9
:1039B00010BD002084F83C00204600F023F80220CF
:1039C00084F83D002068211D01F0DAFB012084F815
:1039D000480084F83E0084F83F0084F8400084F8F2
:1039E000410084F8420084F8430084F8440084F8DD
:1039F000450084F8460084F8470084F83D00002024
:103A000010BD000008B5154A0168154891420ED155
:103A1000016841F00201016000680022114600F0D7
:103A2000020000901D20FEF741F91D2010E00D4A14
:103A3000914211D1016841F0040101600068002247
:103A4000114600F0040000901E20FEF72FF91E2002
:103A5000BDE80840FEF71CB908BD000000040040A6
:103A6000E84402580008004090F83D10012901D0B8
:103A700001207047174A022180F83D100168CB6889
:103A800043F00103CB600068904214D0B0F1804F46
:103A900011D0114988420ED0104988420BD01049EC
:103AA000884208D00F49884205D00F49884202D089
:103AB0000E49884207D181680D4A1140062906D077
:103AC000B1F5803F03D0016841F0010101600020A1
:103AD0007047000000000140000400400008004062
:103AE000000C00400004014000180040004001406C
:103AF0000700010070B5044690F83C00002501283D
:103B000014D03A4B012684F83C60022084F83D0032
:103B100022689068184020F47F4090600868702800
:103B20002FD010DC10F00F0F03D022E04FF0020076
:103B300070BD4FEA2012072A1BD2DFE802F0535370
:103B400053534B394100B0F1101F4BD009DCB0F595
:103B5000805F0FD0B0F5005F1ED0B0F5801F08D198
:103B600040E0A0F5801120393CD010293AD020291E
:103B700038D0012584F83D60002084F83C002846B8
:103B800070BD4A682068D1E9021301F05BFB206830
:103B9000816841F0770109E04A682068D1E90213A1
:103BA00001F050FB2068816841F480418160E1E7C9
:103BB000CA684968206801F059FB2068502106E076
:103BC000CA684968206801F062FB2068602101F042
:103BD00043FBCFE7CA684968206801F047FB2068CB
:103BE0004021F4E7226801461046F0E788FFCEFF47
:103BF000704770B50446006800250169C94389070C
:103C000015D4C168C943890711D4EA1E0261012194
:103C10002177206880698007204602D0FFF7E8FFFF
:103C200004E000F0A7F8204600F0A5F8257720680A
:103C30000169C943490717D4C168C943490713D467
:103C400002216FF00402026121772068806910F47C
:103C5000407F204602D0FFF7CBFF04E000F08AF857
:103C6000204600F088F8257720680169C9430907D4
:103C700016D4C168C943090712D404216FF00802A1
:103C8000026121772068C0698007204602D0FFF7D3
:103C9000AFFF04E000F06EF8204600F06CF82577E6
:103CA00020680169C943C90617D4C168C943C90658
:103CB00013D408216FF01002026121772068C069D7
:103CC00010F4407F204602D0FFF792FF04E000F09E
:103CD00051F8204600F04FF8257720680169C94364
:103CE000C90708D1C168C943C90704D1891E016148
:103CF000204600F041F820680169C943090609D44B
:103D0000C168C943090605D46FF0800101612046EE
:103D1000FFF7F1FD20680169C943C90509D4C168ED
:103D2000C943090605D46FF4807101612046FFF78D
:103D3000E1FD20680169C943490609D4C168C94346
:103D4000490605D46FF040010161204600F038F8C3
:103D500020680169C94389060BD4C168C943890633
:103D600007D46FF0200101612046BDE87040FFF7E5
:103D7000C3BD70BD704770470E4910B50068096833
:103D8000884216D00C490968884212D101200DF0F2
:103D900089FC0A480168491C0160B1F57A7F04D1A9
:103DA000002101604168491C4160BDE810400EF0EF
:103DB00043B810BDF8B1022444B20224900D00248F
:103DC000704730B590F88010012918D0012280F892
:103DD00080202421C0F884100022202450F8641B85
:103DE0000B680D6823F0005325F001050D6002609B
:103DF00050F8641C0B6004620277104630BD02204C
:103E000030BD70B5044690F8800001281DD0012215
:103E100084F880202420C4F88400206805680268A3
:103E200022F0010202602068826822F060620A4388
:103E30008260204601F06AFA226820210020156085
:103E4000C4F8841084F8800070BD022070BD70B585
:103E5000044690F8800001281DD0012284F88020BB
:103E60002420C4F8840020680568026822F001025A
:103E700002602068826822F060420A438260204625
:103E800001F044FA2268202100201560C4F8841053
:103E900084F8800070BD022070BD10B5040003D00E
:103EA000D4F8840010B107E0012010BD002084F890
:103EB0008000204600F026F82420C4F88400206802
:103EC000016821F001010160204601F0D5FA0128C6
:103ED000EBD0A06A10B1204601F03AFA20684168A0
:103EE00021F4904141602068816821F02A018160BD
:103EF0002068016841F0010101602046BDE81040E2
:103F000001F08ABAF0B5B5B0044614212FA8FCF729
:103F10002BFABC216846FCF727FA1D492068884225
:103F200033D102256846002400951D94FEF770F8F1
:103F300008B1FCF7E6FB1748016841F40031016065
:103F4000006800F40030349012480838016841F0ED
:103F500001010160006831AA07260F4F00F001003F
:103F60003490012182E852000420CDE92F052FA9C9
:103F70003846FDF785FA08202F90CDE93054CDE979
:103F800032462FA93846FDF77BFA35B0F0BD000068
:103F900000440040E8440258000002582DE9F8436C
:103FA0000446D0F884001F4616460D46202852D1FC
:103FB000DDB1D6B194F8800001284CD0012084F8FE
:103FC000800021224FF00008C4F88C80C4F88420BF
:103FD0001834FDF777FB814654F8100CA687E68766
:103FE000183CB0F5805F03D004E00120BDE8F88301
:103FF000206920B12E46002584F8808010E000263C
:10400000FAE78021204601F00DFCB8B9C6B116F8D8
:10401000010B21688862B4F85600401EA4F85600CF
:10402000B4F856004B464FF0000200970028E8D144
:104030004FF04001204601F0F5FB38B10320D5E7F1
:1040400035F8020B2168C0F30800E3E72020C4F82C
:1040500084000020CAE70220C8E7FEE701688A69F9
:10406000D243920701D400228A6200688169C94361
:10407000C90703D0816941F00101816170470000E7
:104080002DE9F047044600688A464FF000091746BC
:104090004FF020084D464E468169C90648D510218B
:1040A000C16136E0BAF1FF3F33D0FDF70BFBC01B17
:1040B000504502D8BAF1000F2BD12068426894F81D
:1040C0004210836902F48042DB431B041CD4B2F526
:1040D000804F19D0202917D0416841F480414160B8
:1040E000FDF7F0FA07460FE0FDF7ECFAC01B1928C0
:1040F0000AD9626C012542F02002626484F8418092
:1041000084F8429084F8409020688069C04380061B
:10411000EAD420688069C043800602D5002DC1D052
:1041200003E015B92168C1F81C80012546F004069A
:1041300021688869C20505D54FF48072CA6146F0CE
:104140000106012541050AD5216880054FF48062EA
:1041500046F00806CA614FF0010502D40AE0800566
:1041600007D5216801254FF4007046F00206C861AA
:1041700000E085B12046FFF771FF2168074F4A68CC
:104180003A404A60616C3143616484F8418084F84C
:10419000429084F840902846BDE8F08700E800FE91
:1041A00070B50068C1F3090141EA0241074D049C62
:1041B00019434FF480664268214306EA54532B4367
:1041C0009A4321F000410A43426070BDFF63FF0340
:1041D0002DE9F0411D4617460E460446DDF81880CD
:1041E00008E0681C06D0FDF76DFAA0EB0800A842B5
:1041F0000BD855B12068806936EA000013D0002042
:10420000B842EED00020BDE8F081626C002084F856
:104210004000202142F02002626484F8411084F8BA
:1042200042000120EFE70120EAE700002DE9F0411C
:104230002026904600250F46044630E04246394687
:104240002046FFF71DFF10BB20688069C043800631
:104250001ED420688169C943490701D4218D19BB47
:104260008169C943C90604D41022C2610421616472
:1042700000E0656420681349C661206842680A400E
:10428000426084F8416084F8425084F8405016E05F
:10429000FDF718FAA0EB0800B84208D83FB1206833
:1042A0008069C0434007C9D40020BDE8F081606C3C
:1042B00084F8405040F02000606484F841600120A0
:1042C000F3E7000000E800FE70B516460D46044610
:1042D0000DE0324629462046FFF7D2FE08B1012004
:1042E00070BDFDF7EFF9801BA84207D835B12068F3
:1042F0008069C0438006ECD4002070BD626C002051
:1043000084F84000202142F02002626484F84110C9
:1043100084F84200E3E770B516460D4604460FE008
:10432000324629462046FFF7ABFE08B1012070BD9A
:10433000681C05D0FDF7C6F9801BA84207D835B127
:1043400020688069C0438007EAD4002070BD626C99
:10435000002084F84000202142F02002626484F8AA
:10436000411084F84200E1E72DE9F041151A1446A6
:104370005A1A521CDDF8188097B20A466D1C214665
:10438000AEB2FCF769F800250EE0002408E000BF9B
:1043900005FB064138F8110001F00AFB641CA4B2C9
:1043A000B442F5D36D1CADB2BD42EED3BDE8F08191
:1043B0000122FF4810B5D102FDF778F9FD4800222F
:1043C0001021FDF773F9FC4C012202212046FDF774
:1043D0006DF91420FDF730F8002220460221FDF788
:1043E00065F91420FDF728F8012220460221FDF787
:1043F0005DF91420FDF720F8FE2001F0A1FAEF206E
:1044000001F09EFAEB2001F09BFA142001F0B4FABF
:10441000842001F095FA402001F0AEFA882001F0E6
:104420008FFA0A2001F0A8FA892001F089FA2120E8
:1044300001F0A2FA8A2001F083FA002001F09CFA30
:104440008B2001F07DFA802001F096FA8C2001F09B
:1044500077FA012001F090FA8D2001F071FA012025
:1044600001F08AFAB62001F06BFA202001F084FAFC
:10447000362001F065FA882001F07EFA3A2001F03A
:104480005FFA052001F078FA902001F059FA08202F
:1044900001F072FA082001F06FFA082001F06CFABE
:1044A000082001F069FABD2001F04AFA062001F067
:1044B00063FABC2001F044FA002001F05DFAFF200D
:1044C00001F03EFA602001F057FA012001F054FAA1
:1044D000042001F051FAC32001F032FA132001F058
:1044E0004BFAC42001F02CFA132001F045FAC92040
:1044F00001F026FA222001F03FFABE2001F020FA56
:10450000112001F039FAE12001F01AFA102001F02F
:1045100033FA0E2001F030FADF2001F011FA2120E9
:1045200001F02AFA0C2001F027FA022001F024FA07
:10453000F02001F005FA452001F01EFA092001F0F3
:104540001BFA082001F018FA082001F015FA2620BD
:1045500001F012FA2A2001F00FFAF12001F0F0F92F
:10456000432001F009FA702001F006FA722001F0F0
:1045700003FA362001F000FA372001F0FDF96F2030
:1045800001F0FAF9F22001F0DBF9452001F0F4F92D
:10459000092001F0F1F9082001F0EEF9082001F0FE
:1045A000EBF9262001F0E8F92A2001F0E5F9F320E3
:1045B00001F0C6F9432001F0DFF9702001F0DCF9C9
:1045C000722001F0D9F9362001F0D6F9372001F038
:1045D000D3F96F2001F0D0F9ED2001F0B1F91B20E3
:1045E00001F0CAF90B2001F0C7F9AE2001F0A8F9DB
:1045F000742001F0C1F9CD2001F0A2F9632001F08F
:10460000BBF9702001F09CF9072001F0B5F90920F1
:1046100001F0B2F9042001F0AFF90E2001F0ACF97D
:104620000F2001F0A9F9092001F0A6F9072001F0F7
:10463000A3F9082001F0A0F9032001F09DF9E8207A
:1046400001F07EF9342001F097F9622001F078F949
:10465000182001F091F90D2001F08EF9712001F080
:104660008BF9ED2001F088F9702001F085F97020B8
:1046700001F082F9182001F07FF90F2001F07CF998
:10468000712001F079F9EF2001F076F9702001F046
:1046900073F9702001F070F9632001F051F91820CE
:1046A00001F06AF9112001F067F9712001F064F955
:1046B000F12001F061F9702001F05EF9702001F045
:1046C0005BF9182001F058F9132001F055F9712019
:1046D00001F052F9F32001F04FF9702001F04CF98C
:1046E000702001F049F9642001F02AF9282001F036
:1046F00043F9292001F040F9F12001F03DF90120B2
:1047000001F03AF9F12001F037F9002001F034F915
:10471000072001F031F9662001F012F93C2001F088
:104720002BF9002001F028F9CD2001F025F96720B0
:1047300001F022F9452001F01FF9452001F01CF994
:10474000102001F019F9002001F016F9002001F005
:1047500013F9002001F010F9672001F0F1F80020B2
:1047600001F00AF93C2001F007F9002001F004F9FA
:10477000002001F001F9002001F0FEF8012001F015
:10478000FBF8542001F0F8F8102001F0F5F8322081
:1047900001F0F2F8982001F0EFF8742001F0D0F861
:1047A000102001F0E9F8852001F0E6F8802005E00E
:1047B00000080258000002580004025801F0DCF81A
:1047C000002001F0D9F8002001F0D6F84E2001F0C9
:1047D000D3F8002001F0D0F8982001F0B1F83E2085
:1047E00001F0CAF8072001F0C7F8352001F0A8F859
:1047F000212001F0A5F87820FCF71EFE112001F021
:104800009FF84FF4A070FCF717FE292001F098F8EC
:104810007820FCF711FE2C2001F092F82A2001F0FC
:104820008FF8002001F0A8F8002001F0A5F8002082
:1048300001F0A2F8EF2001F09FF82B2001F080F8A2
:10484000002001F099F8002001F096F8002001F016
:1048500093F8EF2001F090F8112001F071F8782022
:10486000FCF7EAFD292001F06BF8BDE810402C2090
:1048700001F066B8FFF79CBD10B50AF05BF80CF0CC
:10488000B5F8BDE810400CF0D3B80000094808B5F1
:10489000016841F00101016000680022114600F04A
:1048A000010000901020FDF701FABDE8084010203B
:1048B000FDF7EEB9D84402582DE9F04F87B0142126
:1048C0006846FBF751FD5C48016841F0100101604A
:1048D000016801F010010591016841F004010160D7
:1048E000016801F004010591016841F08001016057
:1048F000016801F080010591016841F0010101604A
:10490000016801F001010591016841F002010160B7
:10491000016801F002010591016841F008010160A0
:1049200000680122DFF814A1102100F008000590B2
:104930005046FCF7BBFEDFF808B1002206215846BE
:10494000FCF7B4FE4FF480683E4801224146FCF774
:10495000ADFE4FF400693C4800224946FCF7A6FE34
:1049600003254FF6FF30002469460294CDE9000587
:104970003448FCF785FD4FF4881002944FF4005141
:10498000CDE9001030486946FCF77AFD4DF2FF5042
:104990006946CDE900052C480294FCF771FD49F603
:1049A00003606946CDE9000550460294FCF768FDB6
:1049B0000126694602271020CDE90006CDE902470D
:1049C0005046FCF75DFD4FF6F9706946CDE90005EC
:1049D00058460294FCF754FD06200090CDE901648E
:1049E000694658460394FCF74BFDCDF800806946B4
:1049F00003971448CDE90164FCF742FD4FF6FF70C0
:104A00006946CDE9000511480294FCF739FDCDF85F
:104A100000906946CDE901640B480394FCF730FD32
:104A2000002228201146FDF741F92820FDF730F932
:104A300007B0BDE8F08F0000E044025800000258C3
:104A4000000402580010025800080258000C0258D6
:104A50001348002110B5114C0123124A0460C0E92B
:104A60000121C0E9033141618161C1610162FCF74B
:104A700089FE08B1FBF745FE09480021FCF728FE36
:104A800008B1FBF73EFE06480021FCF74DFE00286A
:104A900003D0BDE81040FBF734BE10BD005C004001
:104AA000ACB00224FD9F402070B515480F224FF492
:104AB0008005124E00212C01C0E902120161E300C1
:104AC000C0E90514C0E9073141625A008162C16240
:104AD000C0E90D21C163016441648164C164016561
:104AE00041658165C0E90065FEF7B8FC002803D088
:104AF000BDE87040FBF705BE70BD0000003001400E
:104B0000F8B0022410B588B016480024144A642175
:104B10000094019402940394049405940694C0E9CB
:104B20000021C0E9024104618461FEF739FF08B148
:104B3000FBF7E7FD4FF4805000900A486946FEF706
:104B4000D9FF08B1FBF7DDFD064804A904940694DB
:104B5000FEF7D4FE002801D0FBF7D3FD08B010BD4E
:104B600000040040F8B1022410B588B017480024B2
:104B70001549642200944FF47A73019402940394CB
:104B800004940594069480E81600C0E90334846117
:104B9000FEF706FF08B1FBF7B4FD4FF4805000901C
:104BA0000A486946FEF7A6FF08B1FBF7AAFD0748C9
:104BB00004A904940694FEF7A1FE002801D0FBF797
:104BC000A0FD08B010BD00000008004044B202245F
:104BD0001848002110B5164C0C224FF4E133046044
:104BE000C0E90131C160C0E904128161C1610162A3
:104BF00041628162FFF751F908B1FBF782FD0D4870
:104C00000021FFF724F908B1FBF77BFD09480021DB
:104C1000FFF7F7F808B1FBF774FD0648FFF7D1F886
:104C2000002803D0BDE81040FBF76BBD10BD0000AD
:104C30000044004090B20224FEE7FEE77047000007
:104C40002DE9F047454D044689464FF0000A286893
:104C5000C04380070AD0414E283E306820F0806073
:104C60003060FCF72FFD0746B04608E00120BDE8A4
:104C7000F08700BFFCF726FDC01B022867D8D8F8D4
:104C800000000001F6D4206829684FF4FE0721F4E3
:104C90007C313E0241EA00302860207AA389B4F8D2
:104CA00004C040022D4D2D495B1E227CACF1010C4D
:104CB0001035091DA0F5007080B2521ECCF3080C0F
:104CC00007EA034340EA0C00184306EA0262104375
:104CD00028600868626920F0C000104308600A6814
:104CE000A06922F0200202430A60281D0A6822F00F
:104CF00010020A6002684FF6F873E4699A4342EAC8
:104D0000C40202600868B9F1000F40F010020A60A6
:104D100011D00868B9F1010F11D040F400100860FB
:104D2000D8F80000444640F08060C8F80000FCF766
:104D3000C9FC05460DE0086840F40020EFE740F4A8
:104D40008010ECE7FCF7BEFC401B022801D90320D1
:104D50008DE720680001F5D5504688E728440258C1
:104D60002DE9F047454D044689464FF0000A286872
:104D7000C04380070AD0414E283E306820F0805062
:104D80003060FCF79FFC0746B04608E00120BDE814
:104D9000F08700BFFCF796FCC01B022867D8D8F844
:104DA00000008000F6D4208829684FF4FE0721F027
:104DB0007C713E0241EA00502860207AA389B4F851
:104DC00004C040022D4D2D495B1E227CACF1010C2C
:104DD0001835091DA0F5007080B2521ECCF3080CE6
:104DE00007EA034340EA0C00184306EA0262104354
:104DF00028600868626920F44060104308600A680F
:104E0000A06922F4007202430A60281D0A6822F495
:104E100080720A6002684FF6F873E4699A4342EAC6
:104E2000C40202600868B9F1000F40F480720A60A1
:104E300011D00868B9F1010F11D040F080700860FE
:104E4000D8F80000444640F08050C8F80000FCF755
:104E500039FC05460DE0086840F48000EFE740F4B7
:104E60000000ECE7FCF72EFC401B022801D90320D0
:104E70008DE720688000F5D5504688E72844025821
:104E80000148FEF7D9B90000F8B0022410B5026855
:104E900040F26F335169946944F0080494610268E8
:104EA000946944F0100494610268146824F00104C9
:104EB0001460026814699C4314610268936823F4C7
:104EC0004043936090F88120042A0CD08A060AD5CA
:104ED000D0F8842042F08002C0F8842002689369F0
:104EE00043F02003936190F88120032A0CD04A06F6
:104EF0000AD5D0F8842042F00402C0F88420026869
:104F0000936943F0400393618A050AD5D0F8842061
:104F100042F00102C0F884200268936943F40073F0
:104F20009361C9050AD5D0F8841041F00801C0F892
:104F3000841001688A6942F480728A610021A0F8B5
:104F40006210A0F86A1010BD10B5806B002101221C
:104F5000A0F86A10A0F8621080F88120FEF76AF9C4
:104F600010BD2DE9F041984616460D460746069CB1
:104F700009E0FCF7A7FBA0EB0800A04202D3601CED
:104F800001D00BE054B13868406935EA000007D021
:104F90000020B042EDD00020BDE8F0810320FBE707
:104FA0000120F6E770470000084908B509688A68DB
:104FB00022F01F02D21D8A608DF80000FF230348F3
:104FC00001226946FEF765FB08BD0000F8B0022427
:104FD000FCF7ACBD70B59CB04C216846FBF7C4F93A
:104FE000202113A8FBF7C0F90220FCF791FE244909
:104FF000002424480A6822F001020A600968016856
:1050000041F440410160016801F440411B91016895
:105010008904FCD51C4902200A6840250123C603E7
:1050200022F00302921C0A600A2109900A900C22C5
:10503000CDE90B05CDE90D010FA981E81500CDE9FA
:10504000003668461294FDF75DFE08B172B6FEE7C1
:105050005020082316930DF14C0C3F210322CDE97B
:1050600017508CE81600DE01CDE91960022113A863
:10507000FDF738FC002801D072B6FEE71CB070BD09
:105080002C04005818480258284402582C48F0B5FF
:105090002C4A016841F470010160106800F00F00B3
:1050A000072804D2106820F00F00C01D10602649A8
:1050B0000020254C10340B68244D43F001030B6095
:1050C00020600B682B400B60136803F00F03072B65
:1050D00004D9136823F00F03DB1D13601A4C1C4A1C
:1050E00018341C4B261D371D2060174C1A4D2834D0
:1050F0003060261D3860371D23603B1D35601C1D48
:105100003A60251D2E1D1860331D22602860326014
:1051100018600A680C4B114C22F4802260330A603C
:10512000186020686FF30F00B0F1005F03D20C49E4
:105130000120C1F8080143F2D2000A490860F0BD1D
:1051400088ED00E000200052004402587FEDF6EAAE
:1051500080020101000202020000FF010010005C59
:1051600000800051004000520148FEF742BD00009F
:10517000F8B102240148FEF73CBD000044B202240D
:105180002DE9F047274B4FF0804A274D026898429F
:10519000264E274F274C09D0504507D0A84205D0AE
:1051A000B04203D0B84201D0A04205D1D1F804C02A
:1051B00022F070024CEA0202DFF87CC0DFF87C804B
:1051C0009842DFF87C900FD050450DD0A8420BD00C
:1051D000B04209D0B84207D0A04205D0604503D004
:1051E000404501D0484503D1CD6822F440722A439E
:1051F0004D6922F080022A43026098428A68C262A6
:105200000A68826207D0A04205D0604503D04045BD
:1052100001D0484501D10969016301214161BDE81F
:10522000F08700000000014000040040000800403A
:10523000000C0040000401400040014000440140D7
:105240000048014042EA032283680A4323F47F4175
:105250000A43826070470000034B82681A400A4389
:1052600042F00701816070478FFFCFFF10B5036ADE
:10527000046A23F00A0324F00104046284690B43E6
:1052800024F0F00141EA02118161036210BD10B502
:10529000036A23F0100303628369046A23F47043F2
:1052A00024F0A00443EA0232826144EA011101625F
:1052B00010BD01F0CBB9000010B54FF47A740E495F
:1052C0000E4841F2883322460CF09AFD0B480CF050
:1052D000A1FD0A4805230A49224610300CF090FD32
:1052E000064810300CF096FD0648FEF7BDFBBDE801
:1052F00010400548FEF7B8BBFB1D010874120324DB
:10530000FD1D0108F8B1022444B2022430B5416EFB
:10531000B9B101680D4B03F108048A688968C2F3CA
:105320004262490F5D5C615C2D01B5FBF1F1A0F8B3
:105330006A10995CA25C0901B1FBF2F1A0F8681057
:1053400030BD0121A0F86A10F8E70000F01E010846
:1053500090F82810C90706D00168C36A4A6822F489
:1053600000321A434A6090F82810890706D5016870
:10537000036B4A6822F480321A434A6090F828107E
:10538000490706D50168436B4A6822F480221A4314
:105390004A6090F82810090706D50168836B4A68AF
:1053A00022F400421A434A6090F82810C90606D534
:1053B0000168C36B8A6822F480521A438A6090F8AD
:1053C0002810890606D50168036C8A6822F4005209
:1053D0001A438A6090F82810490611D50168436C79
:1053E0004A6822F480121A434A60416CB1F5801F6A
:1053F00006D10168836C4A6822F4C0021A434A60ED
:1054000090F82810090606D50168C26C486820F497
:105410000020104348607047F8B500260446C0F8E5
:105420008C60FCF74FF9054620686FF07E470068F6
:10543000000708D500222B464FF4001120460097A4
:1054400000F0F0F960B92068006840070AD5002232
:105450002B464FF480012046009700F0E3F908B195
:105460000320F8BD2020C4F88400C4F88800E66654
:10547000002084F88060F8BD2DE9F0430446806880
:10548000D84E87B0D84B2168D4E90427D4F81CC083
:1054900010430A68002547EA0C07384332400243AC
:1054A0000A602068E268416821F44051114341607C
:1054B0002268A1699A4201D0206A01439768DFF807
:1054C0002CC3CB4ECB4807EA0C070F4397602168EB
:1054D000676ACA6A22F00F023A43CA622268B2427D
:1054E0000ED1006800F03800182873D047DCB8B33C
:1054F000082879D010286FD178E028287ED17BE069
:10550000BD498A4209D1006800F00700062875D21B
:10551000DFE800F0546A6C6E7072B8498A4209D1B3
:10552000006800F00700062868D2DFE800F0475D59
:105530005F616365B2498A4209D1006800F00700E3
:1055400006285BD2DFE800F03A5052545658AD4975
:105550008A420BD1006800F0070006284ED200E016
:1055600010E0DFE800F02B4143454749A6498A4255
:105570000AD1006800F03800182839D0B7DD20289B
:10558000BBD13CE001203AE0A0498A4209D1006841
:1055900000F00700062831D2DFE800F01026282AA4
:1055A0002C2E9B498A420BD1006800F00700062888
:1055B00024D2DFE800F003191B1D1F2100201EE08C
:1055C0009A421BD18B48001D006800F00700062896
:1055D00014D202E00CE007E010E0DFE800F0030581
:1055E00007090B0D02200AE0042008E0082006E06D
:1055F000102004E0202002E0402000E080208549C7
:10560000DFF814829A42854A4FF400434FEA21178B
:105610004FF000064ED110281AD006DC022809D01F
:1056200004280BD008287CD10DE020283ED040284B
:1056300077D13DE0FCF796FB014610E06846FCF7A9
:10564000A3FB01990BE003A8FCF740FC049906E0DA
:105650001068800605D51068C0F3C100C14000295C
:1056600070D0606A676838F8102007EB4703B1FB19
:10567000F2F0834255D8B0EB073F52D800230846DA
:105680001946FAF727FE02467808130E120243EA7B
:10569000012110183A4671410023FAF71BFE604AB7
:1056A000A0F5407191423CD821688FE03946D8E797
:1056B0001946D6E7D4F81CC04FF6EF799C4546D181
:1056C000082819D005DC58B101280CD0042875D160
:1056D0000DE0102815D0202835D040286ED134E0B8
:1056E000FDF750FA01E0FDF75FFA014610E0684669
:1056F000FCF74AFB01990BE003A8FCF7E7FB0499D0
:1057000006E01068800604D51068C0F3C100C140EF
:10571000C1B1636A606838F81330B1FBF3F1490036
:1057200000E04BE001EB5001B1FBF0F0A0F1100103
:10573000494543D84FF6F0732168C0F34202184040
:10574000104343E043E03946E3E71946E1E7082820
:1057500019D005DC58B101280CD004282ED10DE059
:10576000102815D020282BD0402827D12AE0FDF77B
:1057700009FA01E0FDF718FA014610E06846FCF767
:1057800003FB01990BE003A8FCF7A0FB049906E0DA
:105790001068800604D51068C0F3C100C140B1B1E3
:1057A000636A606838F81330B1FBF3F101EB500124
:1057B000B1FBF0F0A0F11001494505D9012506E043
:1057C0003946EDE71946EBE7216880B2C860012051
:1057D000A4F86A00A4F8680028462667666707B040
:1057E000BDE8F083F369FFCF000C0058FFF4FF1110
:1057F000001001405444025800440040004800405A
:10580000004C00400050004000140140007800406F
:10581000007C00400090D003D81E010800440258CC
:10582000FFFC0F002DE9F0479A4617460E46044646
:10583000089D4FF000094FF020084CE0681C4AD04A
:10584000FBF740FFA0EB0A00A8422AD84DB320681E
:10585000016849073FD5C069C04300053BD42168B2
:105860004FF400600862216851E8000F20F4D07006
:1058700041E80002002AF6D12068083050E8001FF5
:1058800021F0010140E80012002AF5D1C4F884801B
:1058900084F88090C4F88880C4F88C800320BDE828
:1058A000F087206850E8001F21F4D07140E8001212
:1058B000002AF6D12068083050E8001F21F00101CD
:1058C00040E80012002AF5D1C4F8848084F8809062
:1058D000C4F88880E2E72068C06936EA000004D096
:1058E0000020B842AAD00020D9E70120F9E7000043
:1058F00038B504F0ADFE04F0D8FE0F4C0021206056
:1059000004F026F9002160600B460A4600910AF077
:105910007BFA606802210B460A46009104F087FD7D
:1059200003F06CFC0BF004FE40F6B830FBF784FD8E
:10593000BDE8384002F002BD6C0D0024FEE7000017
:1059400070B50B4C0022102105462046FBF7AEFE39
:10595000084800224FF48061FBF7A8FE2846FFF7B5
:1059600023FB2046BDE8704001221021FBF79EBEBC
:10597000000002580010025870B50B4C0022102194
:1059800005462046FBF792FE012208489102FBF7EC
:105990008DFE2846FFF708FB2046BDE87040012237
:1059A0001021FBF783BE00000000025800100258CF
:1059B00010B50446000AFFF7DFFFE0B2BDE8104073
:1059C000FFF7DABF0FB4054B10B503A9044A0298DC
:1059D00000F03CF810BC5DF814FB0000F9730008FF
:1059E000A80D00240FB4084B10B504A902AA03980F
:1059F00000F02CF8044602A9002000F052FA2046DC
:105A000010BC5DF814FB0000A35E00080907002825
:105A10004FEA116104DB00F1E02080F800147047C8
:105A200000F00F0000F1E02080F8141D704702E044
:105A300008C8121F08C1002AFAD170477047002019
:105A400001E001C1121F002AFBD170472DE9FF4F71
:105A50008DB00F460546002606E025280BD0DDE96F
:105A60000F1290476D1C761C28780028F5D111B0D4
:105A70003046BDE8F08F0024A246A1460122E94944
:105A800000E0044315F8013F203B02FA03F008420E
:105A9000F7D128782A2810D06FF02F022878A0F1AB
:105AA0003001092914D80AEB8A0102EB410144F0C4
:105AB000020400EB010A6D1CF0E701CF5FEA000A67
:105AC00003D544F40054CAF1000A44F002046D1CEA
:105AD00028782E2817D115F8010F44F004042A283D
