:020000040800F2
:10000000D0430424C5020008F97C0108EF49010827
:10001000F57C01080D7A0008F9DB010800000000FA
:10002000000000000000000000000000499A0108E4
:100030008D8A000800000000158301088D9C0108CE
:10004000DF020008DF7F0108DF020008DF0200088E
:10005000DF020008DF020008358E0008DF0200081A
:10006000DF020008DF020008DF02000861840008E8
:10007000718400088184000891840008A18400082C
:10008000B1840008DF020008A54E0008DF02000866
:10009000DF020008DF020008DF020008DF020008BC
:1000A000DF020008DF020008DF020008DF020008AC
:1000B000DF020008899E0108999E0108DF020008FE
:1000C000DF020008DF020008DF020008E9970108EC
:1000D000DF020008DF0200087DB00108DF0200082F
:1000E0003F8E0008DF02000800000000DF02000869
:1000F000DF020008DF020008DF020008DF0200085C
:10010000DF020008DF020008DF020008DF0200084B
:10011000DF020008DF020008DF020008DF0200083B
:10012000DF020008DF020008C1840008D184000853
:10013000E1840008DF020008DF020008DF02000897
:1001400000000000000000000000000000000000AF
:10015000F18400080185000811850008DF0200080D
:10016000DF020008DF020008DF020008DF020008EB
:10017000DF020008DF020008DF02000800000000C4
:10018000DF020008DF020008DF020008DF020008CB
:10019000DF020008DF020008F9970108DF0200080B
:1001A000DF020008DF020008DF020008DF020008AB
:1001B000DF020008DF020008DF020008DF0200089B
:1001C000DF020008DF020008DF020008DF0200088B
:1001D000DF020008717D0108DF020008DF0200086D
:1001E000DF020008DF020008DF020008DF0200086B
:1001F000DF020008DF020008DF020008DF0200085B
:10020000DF020008DF020008DF020008DF0200084A
:10021000DF020008DF020008DF020008DF0200083A
:10022000DF020008DF020008DF0200080000000013
:10023000DF020008DF02000800000000DF02000803
:10024000DF020008CD790008DD790008ED790008AB
:10025000FD790008DF020008DF020008DF02000865
:10026000DF020008DF020008DF020008DF020008EA
:10027000DF020008DF020008DF02000800000000C3
:10028000DF020008DF020008DF02000800000000B3
:1002900000000000DF020008DFF810D000F072FC60
:1002A00000480047D13C0208AFF30080D04304244B
:1002B000EFF308807047EFF3098070476846704796
:1002C000704670470648804706480047FEE7FEE74D
:1002D000FEE7FEE7FEE7FEE7FEE7FEE7FEE7FEE7F6
:1002E000859D0108990200082DE9F05F0546002070
:1002F00092469B4688460646814640241BE0284697
:1003000041464746224600F02FF853465A46C01A47
:10031000914110D311461846224600F016F82D1AC6
:1003200067EB01084F4622460120002100F00DF83E
:1003300017EB00094E41201EA4F10104DFDC484602
:1003400031462A464346BDE8F09F202A04DB203A86
:1003500000FA02F1002070479140C2F1200320FA18
:1003600003F3194390407047202A04DB203A21FA16
:1003700002F00021704721FA02F3D040C2F12002BE
:100380009140084319467047202A06DBCB17203AD4
:1003900041FA02F043EAE07306E041FA02F3D0408A
:1003A000C2F12002914008431946704710B5431A24
:1003B000934209D28318881803E010F8011D03F84E
:1003C000011D521EF9D210BD40EA01039B0703D064
:1003D00009E008C9121F08C0042AFAD203E011F884
:1003E000013B00F8013B521EF9D210BDD2B201E030
:1003F00000F8012B491EFBD270470022F6E710B52A
:1004000013460A4604461946FFF7F0FF204610BD82
:1004100010B5044604E00B7800F8013B03B1491C19
:10042000521EF8D2204610BD421C10F8011B0029B4
:10043000FBD1801A704710B5002200E0521C835C8B
:100440008C5CA34201D1002BF8D1D8B2E1B2401AA2
:1004500010BD30B504460020034600E05B1C93420B
:1004600003D2E05CCD5C401BF8D030BD30B5054612
:100470000020034600E05B1C934205D2EC5CC85CA4
:10048000201A01D1002CF6D130BD00000FB400B508
:100490008DB010A909900B9000914FF0FF300A9099
:1004A00000200C9005480690054807906A4609A868
:1004B0000F9900F069F90DB05DF814FBA50700086D
:1004C000C30700082DE9FF5F1D464FF0FF3BD5E94C
:1004D000014691465F464FF00008A9697F1C0198CC
:1004E0008847296A824688470028F6D1BAF1FF3F3B
:1004F0000CD024F4C064002E19DD600614D5BAF1C6
:100500002B0F09D0BAF12D0F0ED103E0584604B0DD
:10051000BDE8F09F44F48064A9697F1C0198884776
:10052000761E8246002E02DDBAF1300F03D0B9F1FB
:10053000000F26D032E0A969761E44F400747F1CB7
:10054000019888478246002E05DDBAF1780F06D063
:10055000BAF1580F03D0B9F1000F10D01EE0B9F175
:10056000000F02D0B9F1100F18D1A969761E24F43A
:1005700000747F1C019888478246102002E0082002
:1005800000E00A20814609E008FB0908A969761EF7
:1005900044F400747F1C019888478246002E05DDD4
:1005A0004946504600F0DBF80028EDDAE969019889
:1005B0008847A00502D46FF00100A8E7E00725D125
:1005C000600613D5600502D5C8F1000000E0404682
:1005D00029680A1D2A600968220501D5087015E0FE
:1005E000220701D5088011E008600FE02868011D8E
:1005F00029600068210502D580F8008006E0210707
:1006000002D5A0F8008001E0C0F8008038467EE7FF
:100610002DE9FF5FD2E901A74FF0000891699946E3
:100620001446DDF838B0464601988847054659EA31
:100630000B0005D009E0A169761C019888470546A2
:10064000216A284688470028F5D1681C03D05FEA54
:10065000CA7005D015E04FF0FF3004B0BDE8F09F40
:100660002068011D2160D0F800800AE05FEACA70AE
:1006700001D108F8015BA169761C7F1E01988847AB
:100680000546002F1ADD681C18D0B9F1000F0DD0F7
:10069000E81705EBD060421120F01F0059F8221036
:1006A0002A1A012090400142E0D107E0BBF1000F7F
:1006B000DCD1216A284688470028D7D0E169019813
:1006C0008847BBF1000F07D1002E05DD5FEACA7035
:1006D00002D1002188F80010A068B84203DDBBF108
:1006E000000F03D017B16FF00100B6E73046B4E752
:1006F00010B500F0004420F00040C20DC0F3160019
:1007000040F400007F2A02DA0020014610BD0021DB
:10071000962A03DCC2F19602D04002E0963AFFF737
:1007200014FE002CF2D00023D0EB030063EB010198
:1007300010BD30B50B46014600202022012409E0FF
:1007400021FA02F59D4205D303FA02F5491B04FA8A
:1007500002F52844151EA2F10102F1DC30BD3A2851
:1007600000D2303820F02002412A01D3A2F1370014
:10077000884201D34FF0FF307047000002681144F7
:100780001378016018467047D160044951610449EB
:10079000116200211161114600F00CBA7D070008BA
:1007A000A90B0008426842B1016811F8013B23B16E
:1007B000521EC0E90012184670470121C160881E10
:1007C000704742685AB1C368016843B983688B4275
:1007D00005D0491E521CC0E90012002070474FF09E
:1007E000FF3070472DE9FE4F804681EA0300C00FBD
:1007F0000C46009021F0004123F00045B8EB0200C8
:10080000A94105D24046214690461C460B46024669
:1008100023F00040104347D0270DC7F30A00C3F36D
:100820000A510290401A019040286BDAC3F313007A
:1008300040F4801B0098924620B10023D2EB030ABB
:1008400063EB0B0B01985946C0F140025046FFF78D
:100850007CFD06460D4650465946019AFFF794FD29
:1008600010EB08006141002487EA115284EAE77323
:100870001A4340D0009A62B3019A012A4FEA075204
:1008800015DC001B61EB02014FF0004202EA075247
:10089000CDE90042001C41F5801132462B4600F0A4
:1008A00030FB03B0BDE8F08F40462146F9E7001B5E
:1008B00061EB0201001C41F5801300185B41201818
:1008C000A2F5001747EB030140EAD570B6196D4158
:1008D00011E06D084FEA360645EAC0754FEA075247
:1008E000001B61EB0201001C41F5801149084FEA31
:1008F00030000019514132462B4603B0BDE8F04F9D
:1009000000F0F0BA0098012240000023D0EB020270
:1009100063EBE073009821464FEAE074B8EB000007
:1009200061EB0401E9E783F000435BE781F00041FC
:1009300058E72DE9FE4F81EA030404F0004421F05A
:10094000004100944FF0000B23F0004350EA0104F3
:100950005ED052EA03045BD0C3F30A54C1F30A55D4
:100960002C44A4F2F3340194A0FB0254C1F313010C
:1009700041F48011C3F3130343F4801301FB0244D9
:1009800000FB034E840A970A44EA815447EA8357DE
:10099000A4FB076802958D0A05FB07854FEA932C97
:1009A00004FB0C542705029D4FEA065847EA163708
:1009B000B5EB08056EEB070C870E920E47EA811720
:1009C00042EA8312A7FB0201B6EB0B0164EB0004C1
:1009D0002B0D43EA0C335E1844EB1C50DA465146AB
:1009E000E7FB0201C5F313044FEA0B3343EA145348
:1009F0004FEA0432019C43EA0603A4F10C0402947A
:100A0000009CCDE900B400F07CFA03B0BDE8F08FA3
:100A100000200146F9E72DE9F04D81EA030404F0D6
:100A2000004B21F0004514464FF0000A23F000412E
:100A300050EA050220D054EA01021DD0C5F30A573E
:100A40000246C5F31303C1F31300C1F30A5640F481
:100A5000801543F48013A7EB0608101BD64608F256
:100A6000FD3873EB050002D308F1010801E092188C
:100A70005B41B8F1000F03DA00200146BDE8F08DBC
:100A800000204FF48011064684460EE0171B73EBDE
:100A9000050705D3121B63EB050306434CEA010C63
:100AA00049084FEA300092185B4150EA0107EDD146
:100AB00052EA030012D082EA040083EA05010843E7
:100AC00005D0101BAB4106D20122002306E0002214
:100AD0004FF0004302E06FF0010253101AEB0600E2
:100AE0004CEB085110EB0A0041EB0B01BDE8F04D57
:100AF00000F0F8B970B521F0004303430CD0C1F306
:100B00000A550024D5EB040564EB0403D617AD1A8F
:100B1000B34102DB0020014670BD201841EB0251B9
:100B200070BDC1F30A52C1F3130140F2FF3341F427
:100B300080119A4202DA00200146704740F23343A6
:100B40009A42A2F2334202DC5242FFF70DBCFFF799
:100B5000FCBB000030B5041E71F1000404DB4FF053
:100B60000044404264EB0101141E73F1000405DBF4
:100B70001C464FF00043524263EB0403994208BF06
:100B8000904230BD064C074D06E0E06840F001039E
:100B900094E8070098471034AC42F6D3FFF780FB87
:100BA0006C6504089C650408C0B24FF4F05100F075
:100BB000F7B900002DE9F34F8BB04FF0000801F1B9
:100BC0000C000C464FF0010B46460DF1080A01904F
:100BD0006269012101989047051E2DD0252D2CD04A
:100BE000216A8847C0B16269012101989047216A52
:100BF00088470028F7D1411E62690198904700E0BC
:100C0000761CA1690B988847216A88470028F7D18C
:100C1000E1690B988847DBE7A1690B98884707468D
:100C2000A84201D1761CD3E7E1690B9888477F1C65
:100C300002D1B8F1000F6FD047E1002762693D464D
:100C40003946019890472A2804D162690121019808
:100C500090470125DFF88892626901210198904749
:100C6000A0F130010A290AD24F45E5DC07EB8701E4
:100C700000EB4107303FDFD445F01005ECE7E90613
:100C800001D46FF000476C280AD04C2814D0682893
:100C900015D06A280DD074281CD07A281AD01DE0EF
:100CA00062690121019890476C2802D045F0040543
:100CB00014E045F002050DE045F020050AE0626908
:100CC000012101989047682802D045F0080505E009
:100CD00045F400656269012101989047C4E9015714
:100CE00065283DD019DC58287AD00CDC452837D04F
:100CF00004DC252826D0412831D131E046282FD0E8
:100D000047282CD12CE05B2877D0612828D0632895
:100D10007CD0642823D15AE0D1E06F2848D008DC89
:100D200066281DD067281BD0692821D06E2816D1CF
:100D300027E0702845D0732868D0752847D07828D8
:100D40000DD14DE0A1690B988847054625283FF451
:100D500069AFE1690B9888476D1C3FF46AAFB4E056
:100D600023466A466FF001000B99AFF300809FE0C5
:100D700045F040006060A80723464FF0000236D4DB
:100D80003EE0E8077FF447AF2068011D216000685E
:100D9000290501D506701BE7290701D5068017E74D
:100DA000A90703D5F117C0E9006111E706600FE755
:100DB00045F040006060A80723464FF0080216D4B3
:100DC0001EE040F60E0125EA0100606016E045F0E5
:100DD00040006060A80723464FF00A0207D40FE0E6
:100DE00045F040006060A80708D5234610226FF048
:100DF00001000B99AFF300805AE007E02346102270
:100E00006FF001000B99FFF75DFB51E04FF0000917
:100E10004F464B46632802D05B2807D041E020793B
:100E2000C00601D40120A06001273AE062690121D7
:100E3000019890475E2805D14FF001096269494643
:100E400001989047216939B900210A46534643F871
:100E50002120491C0829FADBB0B3216969B9C117FF
:100E600000EBD16253110AEB830122F01F02821AB8
:100E700001200B68904003430B60626901210198D7
:100E800090475D28E8D1B9F1000F09D00020514604
:100E900051F82020D24341F82020401C0828F7DBDD
:100EA00002AB224600976FF001000B99FFF7B0FBF1
:100EB00000280CDA401C08D1BBF1000F05D04FF020
:100EC000FF300DB0BDE8F08FFFE74046F9E7E907D6
:100ED00001D108F1010806444FF0000B78E600004C
:100EE000CCCCCC0C10B5141E73F1000408DA401CF5
:100EF00041F1000192185B411A4301D120F0010039
:100F000010BD2DE9F04D92469B4611B1B1FA81F228
:100F100002E0B0FA80F220329046FFF716FA04465B
:100F20000F4640EA0A0041EA0B0153465A4608437D
:100F300013D0114653EA010019D0C8F140025046BF
:100F4000FFF712FA05460E46504659464246FFF74D
:100F5000FCF9084305D0012004E020463946BDE8ED
:100F6000F08D0020054346EAE0762C4337430A988B
:100F70006305E40AA0EB08000022FD0A44EA475496
:100F80000A3002D500200146E9E701051019694140
:100F9000DDE9084500196941BDE8F04DA2E7000010
:100FA0007F2801D9002208E0064A02EB5002C00760
:100FB000127800D1120902F00F020120904008407F
:100FC00070470000886C020870B58C1810F8015B3F
:100FD00015F0070301D110F8013B2A1106D110F8D2
:100FE000012B03E010F8016B01F8016B5B1EF9D1D6
:100FF0002B0705D40023521E0DD401F8013BFAE75C
:1010000010F8013BCB1A921C03E013F8015B01F8C6
:10101000015B521EF9D5A142D8D3002070BD00005B
:1010200030B5024689B120290FD8481E012505FA9E
:1010300000F0431EC3F1FF349A4201DD184630BD73
:10104000A24201DA2046FAE700BF1046F7E72DE991
:10105000F04103460C46DAB1402A19D8501E01214E
:1010600001FA00F0451E0026891E4F1B61EB0608A1
:10107000E81A76EB040003DA28463146BDE8F08131
:10108000D81B74EB080002DA38464146F6E700BF89
:1010900018462146F2E770B503460C463D2A14D89F
:1010A00001209040451E0026E81A76EB040002DA83
:1010B0002846314670BD00210846591A74EB0000DD
:1010C00002DA00200146F5E700BF18462146F1E7A5
:1010D00010B50346002016E003EB8004D4ED000AAF
:1010E000F4EEC00AF1EE10FA04D201EB800484EDB4
:1010F000000A07E003EB8004D4ED000A01EB800452
:10110000C4ED000A401C9042E6DB10BD10B503465A
:10111000002016E003EB8004D4ED000AF4EEC00AD0
:10112000F1EE10FA04DD01EB800484ED000A07E023
:1011300003EB8004D4ED000A01EB8004C4ED000A47
:10114000401C9042E6DB10BD0A46D0ED000AB0EE2E
:10115000600A01210FE000EB8103D3ED000AF4EEF9
:10116000C00AF1EE10FA05D200EB8103D3ED000ABC
:10117000B0EE600A491C9142EDDB70470246DFED9C
:10118000FE0AB0EE600A002008E002EB8003D3ED17
:10119000000A70EE800AB0EE600A401C8842F4DB60
:1011A00070470246DFEDF40AB0EE600A002013E05B
:1011B00052F8203000EE903AF8EEE00A30EEC01A15
:1011C000431C00EE903AF8EEE01AC1EE210A70EEF0
:1011D000800AB0EE600A401C8842E9DBFDEEC00ADE
:1011E00010EE900A70470246DFEDE30AB0EE600AA7
:1011F000002013E032F9103000EE903AF8EEE00AE9
:1012000030EEC01A431C00EE903AF8EEE01AC1EE40
:10121000210A70EE800AB0EE600A401C8842E9DBC9
:10122000FDEEC00A10EE900A00B270470246DFEDF4
:10123000D20AB0EE600A002014E002EB8003D3ED86
:10124000000A30EEC01A00EE900AF8EEE00AF7EE5F
:10125000001A70EEA11AC1EE210A70EE800AB0EEFB
:10126000600A401C8842E8DB704710B52DED028B08
:10127000B0EE408B04462046B0EE480B21F066FAF3
:10128000BDEC028B10BD02468A4201DD104670475C
:101290000846FCE702468A4201D2084670471046DB
:1012A000FCE702468A4201DA104670470846FCE72E
:1012B00002468A4201D2104670470846FCE70146C2
:1012C0000A1E01DB104670475042FCE770B5044629
:1012D0000D46164632462946204602F0BBF970BD3F
:1012E00070B504460D46164632462946204602F0A1
:1012F00019FC70BD2DE9F05F06460F469046C146C9
:101300001CE036F9024B002C01DD204612E00025DE
:1013100021B2681A1021FFF783FE1FFA80FA291400
:10132000A1EB24401021FFF77BFE1FFA80FB4AEA65
:101330000B4000B227F8020BA9F10109B9F1000F27
:10134000DFD1BDE8F09F70B52DED028BB0EE408A85
:1013500004460D4629462046B0EE480A01F072FFC9
:10136000BDEC028B70BD70B504460D461646324684
:101370002946204601F086FF70BD70B504460D4633
:10138000164632462946204601F008FE70BD2DE97A
:10139000F04104460D4616461F463B463246294656
:1013A000204602F083FABDE8F0812DE9F0470446BB
:1013B0000D4616469946CA460DE002CD01CC04F012
:1013C000F1FD07468846202238464146FFF73FFE9A
:1013D00001C6AAF1010ABAF1000FEED1BDE8F0870B
:1013E0002DE9F04704460D4616469946CA460CE0DC
:1013F00001CC02CDA0FB017800BF20223846414637
:10140000FFF749FE01C6AAF1010ABAF1000FEFD1B8
:10141000BDE8F08770B52DED028B0446B0EE408A32
:101420000D46164632462946B0EE480A204602F0DE
:10143000B5FFBDEC028B70BD2DE9F84304460D46A7
:1014400016461F46DDF820803B4632462946204698
:10145000CDF8008003F020F8BDE8F8832DE9F843CB
:1014600004460D4616461F46DDF820803B463246B0
:1014700029462046CDF8008002F0C6FFBDE8F8837B
:101480002DE9F04F85B081460C4693469A46CBF144
:101490001F0040B201900E9804901FE059F8040B11
:1014A000C117CDE90201E217DDE90201A0FB0453F7
:1014B00001FB043100FB0216CDE9025601AA64CA01
:1014C00028463146FEF760FF074620213846FFF7E1
:1014D000A7FD4AF8040B0498401E049004980028C5
:1014E000DCD105B0BDE8F08F2DE9F04704460E468B
:1014F00017461D46DDF82090C7F10F004FFA80FA1D
:10150000C8460CE034F9021B714341FA0AF010217D
:10151000FFF786FD00B225F8020BA8F10108B8F12B
:10152000000FEFD1BDE8F0872DE9FF4F81B00646EF
:1015300099460398C0F11F0040B20090DDF838A032
:1015400017E056F804BB0298ABFB0075A8463C4672
:10155000454620462946009AFEF706FF074688467C
:10156000202238464146FFF796FD49F8040BAAF1C0
:10157000010ABAF1000F01E000000000E1D105B05E
:10158000BDE8F08F2DE9F04104460D4616461F4692
:101590003B4632462946204600F04CFCBDE8F0812F
:1015A0002DE9F05F04460D4616469946CA460FE0FF
:1015B00004CD01CCC117834604F0D4FC074688460D
:1015C000202238464146FFF742FD01C6AAF1010A32
:1015D000BAF1000FECD1BDE8F09F2DE9F05F0446B1
:1015E0000D4616469946CA4613E054F804BB55F812
:1015F00004CB624600235846194604F0BAFC07465D
:101600008846202238464146FFF745FD01C6AAF12B
:10161000010ABAF1000FE8D1BDE8F09F70B52DEDD9
:10162000028B0446B0EE408A0D46164632462946E5
:10163000B0EE480A204602F083F9BDEC028B70BD83
:101640002DE9F05F0446884615469946CA460FE0E4
:1016500001CCC1178346424604F084FC06460F467F
:10166000202230463946FFF7F2FC01C5AAF1010AF3
:10167000BAF1000FECD1BDE8F09F2DE9D04F06463E
:10168000884617469946CA4610E036F9020BC1173C
:101690008346424604F066FC044610212046FFF7CC
:1016A000BFFC00B227F8020BAAF1010ABAF1000F41
:1016B000EBD1BDE8D08F2DE9F04704460D46164624
:1016C0009946CA4611E054F804CB2A4600236046E6
:1016D000194604F04EFC074688462022384641460B
:1016E000FFF7D9FC01C6AAF1010ABAF1000FEAD14D
:1016F000BDE8F08770B504460D46164632462946C9
:10170000204602F0B7F970BD70B504460D46164686
:1017100032462946204602F081F970BD2DE9F0439A
:101720000C4615464FF0000C62466346264606E01E
:1017300002C881FB01C71CEB02027B41761E002E12
:10174000F6D1C5E90023BDE8F0832DE9F0430C464E
:1017500015464FF0000C62466346264607E030F916
:10176000021B81FB01C71CEB02027B41761E002E8F
:10177000F5D1C5E90023BDE8F0832DE9F74F044614
:10178000894600210F468846CA460DE034F902BB5F
:101790005A460125002628463146FEF7D6FDC719D0
:1017A00041EB0808AAF1010ABAF1000FEED1029844
:1017B000C0E90078BDE8FE8F70B504460D461646B8
:1017C00032462946204600F04BFF70BD70B50446F6
:1017D0000D46164632462946204600F0CDFF70BD24
:1017E00070B504460D46164632462946204600F09E
:1017F00089FF70BD2DE9F74F82B0044689460498F1
:10180000019019E054F804AB54F804BB514650461B
:1018100004F0C8FB884607465946584604F0C2FB08
:1018200005460E46791948EB0600C9E9001009F192
:1018300008090198401E019001980028E2D105B0E6
:10184000BDE8F08F2DE9F04104460D4616461F46CF
:101850003B4632462946204601F06EF8BDE8F0814D
:101860002DE9F04104460D4616461F463B463246DA
:101870002946204601F03EF9BDE8F0812DE9F0410E
:1018800004460D4616461F463B463246294620462C
:1018900001F0BCF8BDE8F0812DE9F05F04460E468A
:1018A00015469A46D34614E080CE02CC81FB0780D1
:1018B000014620224046FFF7CAFB01C502CC81FB4E
:1018C0000780014620224046FFF7C1FB01C5ABF16E
:1018D000010BBBF1000FE7D1BDE8F09F10B52DED76
:1018E000028BB0EE408AB0EE480A02F077FEBDEC03
:1018F000028B10BD10B50446204602F0B5FE10BDA7
:1019000010B50446204602F0CEFE10BD10B52DEDF8
:10191000028BB0EE408AB0EE480A01F0BDFBBDEC90
:10192000028B10BD10B50446204601F0FDFB10BD32
:1019300010B50446204601F01DFC10BD70472DE98E
:10194000F04104460D4616461F463B4632462946A0
:10195000204600F0DDFABDE8F081704770472DE9C0
:10196000F04104460D4616461F463B463246294680
:10197000204602F0A8FCBDE8F08170B504460D4693
:101980002946204602F0C2FC70BD10B504466FF037
:10199000050010BD2DE9FF4F83B089461646DDE9ED
:1019A000118A00BF00273BE0002009E0A8EB0001FE
:1019B000491E56F82110A8EB000246F82210401CE0
:1019C0004045F3DB039850F827003060002425469B
:1019D000002009E0069951F8201056F8202081FBDC
:1019E000022114194D41401C08F101018842F1DB2C
:1019F000BAF1000F0ADACAF10002A3465846294696
:101A00000095FEF7C1FC49F8270008E05246204641
:101A10002946CDE90154FEF798FC49F827007F1CC0
:101A200010988742C0DB07B0BDE8F08F70472DE902
:101A3000F04104460D4616461F463B4632462946AF
:101A4000204601F039FCBDE8F0812DE9F041044663
:101A50000D4617461E46DDF818802580A760A8F1C0
:101A60000100284481003046FEF7C7FC6660BDE8EF
:101A7000F0810000EA4870472DE9F04105460E4626
:101A80004FF04008002400270AE035F91410E44A1A
:101A900032F9140004F08BFA00B246F82400641CFA
:101AA0004445F2D3671E0BE035F91410DC4A32F9D5
:101AB000170004F07CFA00B246F82400641C7F1E74
:101AC000002FF1DABDE8F0812DE9F04105460E4620
:101AD0004FF040080024002709E055F82410D04AB0
:101AE00032F9140004F063FA46F82400641C4445FB
:101AF000F3D3671E0AE055F82410C94A32F91700DB
:101B000004F055FA46F82400641C7F1E002FF2DA18
:101B1000BDE8F08130B5024640240020002315E0E6
:101B2000BF4D35F9105000EE105AB8EEC00A02EB66
:101B30008005D5ED000A20EE200ADFEDBA0A80EE1E
:101B4000201A01EB800585ED001A401CA042E7D366
:101B5000431E16E0B24D35F9135000EE105AB8EEA0
:101B6000C00A02EB8005D5ED000A20EE200ADFED69
:101B7000AD0A80EE201A01EB800585ED001A401CAD
:101B80005B1E002BE6DA30BD70B52DED028B0546ED
:101B90000C46204604EBD0714910A4EB410189BBEF
:101BA000002628E000EE106AB8EEC00AF7EE000A40
:101BB00030EE200ADFED9C0A60EE200A00EE104AAB
:101BC000B8EEC00AB7EE001A30EE010A80EE801AB5
:101BD000B0EE418AB0EE480AFFF798FEF7EE000A31
:101BE00030EEC00AF6EE000A20EE200A05EB860071
:101BF00080ED000A761C04EBD471B6EB610FD1DBEB
:101C0000002014E019E0214604EBD1735B105B1E49
:101C10001B1A05EB830393ED000A224604EBD273F3
:101C200000EB630305EB830383ED000A401C04EB28
:101C3000D472B0EB620FE6DB4BE0002628E000EE4A
:101C4000106AB8EEC00AF7EE000A30EE200ADFEDA7
:101C5000760A60EE200A00EE104AB8EEC00AB7EE2F
:101C6000001A30EE010A80EE801AB0EE418AB0EE22
:101C7000480AFFF733FEF7EE000A30EEC00AF6EE30
:101C8000000A20EE200A05EB860080ED000A761C93
:101C9000601C00EBD071B6EB610FD0DB012012E0CD
:101CA000611E01EBD173C0EB630305EB830393ED7E
:101CB000000A621E02EBD27300EB630305EB8303A1
:101CC00083ED000A401C611E01EBD172B0EB620F84
:101CD000E6DDBDEC028B70BD70B52DED028B0546C7
:101CE0000C46204604EBD0714910A4EB410179BBAE
:101CF000002626E000EE106AB8EEC00AF7EE000AF1
:101D000030EE200ADFED480A60EE200A00EE104AAD
:101D1000B8EEC00AB7EE001A30EE010A80EE801A63
:101D2000B0EE418AB0EE480AFFF7D8FDDFED3F0A7A
:101D30009FED3F1A41EE400A05EB8600C0ED000A18
:101D4000761C04EBD471B6EB610FD3DB012014E0F9
:101D500019E0214604EBD1735B105B1E1B1A05EBE7
:101D6000830393ED000A224604EBD27300EB630376
:101D700005EB830383ED000A401C04EBD472B0EB47
:101D8000620FE6DD49E0002626E000EE106AB8EEBC
:101D9000C00AF7EE000A30EE200ADFED230A60EEFB
:101DA000200A00EE104AB8EEC00AB7EE001A30EE74
:101DB000010A80EE801AB0EE418AB0EE480AFFF7C1
:101DC0008DFDDFED1A0A9FED1A1A41EE400A05EB70
:101DD0008600C0ED000A761C601C00EBD071B6EBEB
:101DE000610FD2DB012012E0611E01EBD173C0EB69
:101DF000630305EB830393ED000A621E02EBD273CB
:101E000000EB630305EB830383ED000A401C611EB6
:101E100001EBD172B0EB620FE6DDBDEC028B70BD61
:101E20006C5F040800000047DB0FC940F6D1093F92
:101E3000145CEC3EB0B50025B5EB930F31D04FEA02
:101E4000930C00BF90ED000A91ED001A30EE010AEC
:101E500000F1100E82ED000A01F1100490ED010A6C
:101E600091ED011A30EE010A02F1100582ED010A2E
:101E7000BCF1010C90ED020A91ED021A30EE010A5C
:101E800082ED020A90ED030A91ED031A30EE010A89
:101E9000704682ED030A2A462146D3D121462A46BE
:101EA000704613F0030308BFB0BD00BFB0EC010AD9
:101EB000B1EC011A30EE010A151D013B82ED000A5A
:101EC0002A46F3D1B0BD000070B501B3002300BFB6
:101ED00002EB430C32F813E00233BCF802C02EF0E0
:101EE000030E00EB0E048B422CF0030C50F80E5046
:101EF00050F80C6040F80E6000EB0C0640F80C50F7
:101F0000D4F804C075686560C6F804C0E0D370BD3D
:101F10002DE9F041048816460746012A98460D46E9
:101F20000CD1E4B3281D214690ED000A0139B1EE31
:101F3000400A80ED000A00F10800F5D1FF2C0CDD0D
:101F4000B4F5806F10DBB4F5805F22D0B4F5006F7C
:101F500011D0B4F5806F17D021E03F2C10DC102C8D
:101F600012D0202C07D01AE0B4F5807F03D0B4F54E
:101F7000007F0ED013E03846294600F04BF90EE002
:101F8000402C06D0802C0AD13846294600F08AF829
:101F900005E07A6801232846214601F061FEB8F188
:101FA000000F04D0B989BA682846FFF78DFF012ECB
:101FB0001CD100EE104A002CB8EE400A08BFBDE864
:101FC000F081B7EE001A81EE000A00BF95ED001A0D
:101FD00095ED012A20EE011A013C22EE402A85ED02
:101FE000001A85ED012A05F10805EFD1BDE8F08161
:101FF0000022FF2942604FF0FF0201800EDDB1F5A3
:10200000806F16DB29D0B1F5805F2BD0B1F5006F62
:1020100046D14CF60043C0F6020336E03F2913DCFC
:10202000102924D020293BD14CF62043C0F60203CE
:102030002BE0B1F5807F1FD0B1F5007F30D14CF699
:102040004043C0F6020320E040291AD0802927D15E
:102050004CF6E033C0F6020317E04CF6D033C0F67E
:10206000020312E04CF63043C0F602030DE04CF6DA
:10207000F033C0F6020308E04CF61043C0F602034A
:1020800003E04CF65043C0F60203191D03F10802A9
:102090000C33126882601B880022838109684160CA
:1020A00050B270472DE9F047038880460846D8F8BB
:1020B00004204FEA530901EB830A0021B1EBD30F4F
:1020C00000F09B80D90800270AEB890C00EB890EF1
:1020D000C5190AEB07040EEB07030CEB070695ED99
:1020E000000A94ED003A95ED011A94ED014A70EE64
:1020F000035A95ED022A94ED025A93ED006AD6ED4B
:10210000001AD6ED012AD6ED023AD6ED034AC5ED06
:10211000005A71EE045A93ED017AC5ED015A72EE40
:10212000055AD3ED020AC5ED025AD5ED035A30EE39
:10213000430A94ED033A75EE837AD3ED036AC5ED55
:10214000037A76EE217AC3ED007A77EE227A31EEC9
:10215000441AC3ED017A36EEA44AD51970EEA37A7B
:1021600083ED034A31EEC64AC3ED027A32EEC76A06
:1021700095ED017AD5ED001A61EE072A21EE211ABC
:10218000013940EE212A07F1100700EE471A24EE2C
:10219000070A06EE610A26EE077AC4ED002A04EE6D
:1021A000217A84ED011A32EE452A35EEC31A86ED06
:1021B000000A33EEE00A34EEE63A86ED017A95ED58
:1021C000034A95ED025A21EE046A21EE051A02EE49
:1021D000056A02EE441A20EE042A23EE044A03EEB6
:1021E000452A84ED026A00EE054A84ED031A86ED65
:1021F000022A86ED034A7FF46BAF0223494601F0C1
:102200002FFDD8F80420022350464946BDE8F04788
:1022100001F026BD2DE9F04F81B02DED088B90B077
:10222000B0F800C091ED000A91ED011A07464FEA9F
:102230005C0208460497930001EB8205796805EB80
:102240008206059195ED006A06EB820496ED002A60
:1022500096ED013A30EE424A4FEA9C0131EE435A84
:10226000009130EE020A95ED012A31EE031A6FF06B
:10227000010134EE027A94ED013A75EE460AD4ED8E
:10228000001A70EE462A01EB9C0171EE423A4FEAC9
:10229000510930EE060A02EB420131EE021A0C90AF
:1022A00034EE424A029535EE065A6FF0070737EED4
:1022B000437A70EEA10A30EE210A31EE031A80ED66
:1022C000000A72EEE12A80ED011A73EEC33A85ED41
:1022D000007A34EE034AC5ED010A35EE612A6FF04B
:1022E0000305C6ED002AD0000F9005EBC20003964F
:1022F00005EB820AC6ED013A07EB02120E9007EBDE
:10230000810084ED004A00260A92002701940025EE
:1023100084ED012A8C000D900C9A0F98911902EB14
:10232000000C02EB030E02EB040891ED020A9CED97
:10233000022A30EE426ADEED030A30EE020ADEEDDA
:10234000021AD8ED032A91ED031A36EE202A9CEDED
:10235000033A31EE437AD8ED023A31EE031A0B9389
:1023600032EE624A099430EE612A059A30EE210A73
:10237000089637EE615A164431EE603AD41930EEC1
:10238000230AB9F1000F36EE606A81ED020A37EEDA
:10239000217A9EED030A71EE000A02EB050B35EE81
:1023A000235A079732EE632A069533EE623A36EEE9
:1023B000220A98ED036A37EE631A30EE866A81EDE1
:1023C000036A00F0B580DDE90C01471800EB0A0351
:1023D0000E99A9F1010993ED006A97ED017A014484
:1023E00076EE070A0A9A53ED011AD1ED002A8518F4
:1023F00070EEA24AD7ED003A36EE476A95ED017AC3
:1024000071EEA35A51ED016A74EE874AD5ED007A58
:10241000C3ED004A71EEE31A51ED014AD5ED003AE1
:1024200075EEA44A0F9836EE668A0830083AAAF18B
:10243000080A74EEA33A72EEC74A43ED013A78EE09
:10244000273A96ED038A96ED029A25EE08AA31EE18
:10245000A4BA0B9B25EE095A0F9004EE485A089E29
:1024600004EE09AA083323EE884A08362BEE088AC0
:102470000BEE494A8EED035A03EE898A8EED02AACD
:1024800030EEE25A75EEE63A81ED004A01ED018A3E
:1024900035EE475A94ED057AD4ED040A33EEE74A57
:1024A000099C63EE072A083423EE203A02EE473AED
:1024B00042EE202A25EE602A04EE472A25EE075A2E
:1024C0008CED033A04EE605ACCED022A37EEE63A80
:1024D00087ED012A34EEE12A33EE463A87ED005AC1
:1024E0009BED074A9BED065A21EE046A079F21EEF9
:1024F000051A103700EE056A00EE441A23EE040AAE
:1025000022EE044A02EE450A88ED026A03EE054A0D
:1025100088ED031A85ED010A85ED004A069D0A92B1
:1025200018350D9808380D900E9808380E90F3E67F
:1025300096ED036A96ED027A65EE060A009D25EE99
:10254000075A042344EE070A0C9804EE465A29461B
:10255000059ACEED020A8EED035A94ED054A94EDEC
:10256000045A23EE046A23EE053A02EE056A02EEEF
:10257000443A8CED026A8CED033A9BED072A9BED01
:10258000063A21EE024A21EE031A00EE034A00EE5B
:10259000421A88ED024A88ED031A01F061FB049C9F
:1025A000042302982946626801F05AFB62680423FA
:1025B0000398294601F054FB6268042301982946D8
:1025C00010B0BDEC088B01B0BDE8F04F01F048BB86
:1025D00080B50023B3EB920F2DD04FEA920C00BFD1
:1025E00003680B6090ED010A00F1200EB1EE400A85
:1025F000BCF1010C81ED010A83688B6090ED030A48
:10260000B1EE400A81ED030A03690B6190ED050A02
:10261000B1EE400A81ED050A83698B6190ED070AEE
:1026200001F12003B1EE400A704681ED070A194618
:10263000D6D11946704612F0030208BF80BD00BF14
:1026400003680B6090ED010A013AB1EE400A00F117
:10265000080081ED010A01F10801F1D180BD0000FF
:1026600080B50023B3EB920F35D04FEA920C00BF38
:1026700090ED010A90ED001A20EE000A00F1200E04
:1026800001EE010A01F11003BCF1010C81ED000A19
:1026900090ED030A90ED021A20EE000A01EE010A05
:1026A00081ED010A90ED050A90ED041A20EE000A72
:1026B00001EE010A81ED020A90ED070A90ED061A7B
:1026C00020EE000A704601EE010A81ED030A194668
:1026D000CED11946704612F0030208BF80BD00BF7C
:1026E00090ED010A90ED001A20EE000A0B1D01EE9C
:1026F000010A013A00F1080081ED000A1946EFD104
:1027000080BD000010B50023B3EB920F23D04FEA39
:10271000920C00BF036801F10804BCF1010C23FB1B
:1027200003F34FEA63430B80436823FB03F34FEA51
:1027300063434B80836823FB03F34FEA63438B803F
:10274000C36800F1100023FB03FE4FEA6E43CB8009
:102750002146DFD1214612F0030208BF10BD00BFA1
:1027600050F8043B013A23FB03F34FEA634321F89B
:10277000023BF5D110BD000010B50023B3EB920F62
:1027800039D04FEA920C00BFD0E9003EBCF1010CF9
:1027900053FB03F45EFB0EF300F1200E4FEA5303EC
:1027A00003EB54030B60D0E9023453FB03F354FBF7
:1027B00004F44FEA540404EB53034B60D0E90434AF
:1027C00053FB03F354FB04F44FEA540404EB5303A8
:1027D0008B60D0E9064353FB03F354FB04F44FEA48
:1027E000530001F1100300EB5400C8607046194615
:1027F000CAD11946704612F0030208BF10BD00BFCF
:10280000D0E90034013A00F1080053FB03F354FB14
:1028100004F44FEA540404EB530341F8043BEFD1B2
:1028200010BD0000B0B50025B5EB930F61D04FEAA5
:10283000930C00BF90ED000A90ED011A91ED002A73
:1028400091ED013A20EE024A00F1200E01EE434ADA
:1028500001F1200420EE030A02F1200501EE020A34
:10286000BCF1010C82ED004A82ED010A90ED020AF2
:1028700090ED031A91ED022A91ED033A20EE024AFF
:1028800001EE434A20EE030A01EE020A82ED024AFB
:1028900082ED030A90ED040A90ED051A91ED042AE9
:1028A00091ED053A20EE024A01EE434A20EE030A7A
:1028B00001EE020A82ED044A82ED050A90ED060A55
:1028C00090ED071A91ED062A91ED073A20EE024AA3
:1028D000704601EE434A214620EE030A01EE020A49
:1028E00082ED064A82ED070A2A46A3D121462A46EE
:1028F000704613F0030308BFB0BD00BF90ED000A9F
:1029000090ED011A91ED002A91ED013A20EE024A74
:10291000013B01EE434A00F1080020EE030A01F1F9
:10292000080101EE020A82ED004A82ED010A02F17D
:102930000802E3D1B0BD0000B0B50025B5EB930FA0
:1029400049D04FEA930C00BF91ED000A90ED001AB8
:1029500020EE011A01F1100E82ED001A00F12004A0
:1029600090ED011A02F1200520EE010ABCF1010CE4
:1029700082ED010A91ED010A90ED021A20EE011A92
:1029800082ED021A90ED031A20EE010A82ED030A8D
:1029900091ED020A90ED041A20EE011A82ED041A5C
:1029A00090ED051A20EE010A82ED050A91ED030A69
:1029B00090ED061A20EE011A714682ED061A90ED8E
:1029C000071A204620EE010A82ED070A2A46BBD1EB
:1029D00071462A46204613F0030308BFB0BD00BF6E
:1029E00091ED000A90ED001A20EE011A043182EDFB
:1029F000001A013B90ED011A00F1080020EE010AD7
:102A000082ED010A02F10802EAD1B0BDF0B54FF043
:102A1000000CBCEB930F4DD04FEA930CD0F800E0C4
:102A20000C684568BCF1010C14FB0EF614FB1EFE8D
:102A300015FB14F74FEAE63614FB35F44FEAEE3592
:102A40004FEAE7374FEAE43406F30F0605F30F05C4
:102A500007F30F0704F30F04C6EA05461660C7EA3A
:102A60000447576087684E68C56800F1100016FB80
:102A700007F401F1080116FB17F715FB16FE4FEAE4
:102A8000E43416FB35F54FEAE7364FEAEE374FEA06
:102A9000E53504F30F0406F30F0607F30F0705F3FC
:102AA0000F05C4EA06469660C7EA0547D76002F1FB
:102AB0001002B3D113F0030308BFF0BD31F9027B5C
:102AC000B0F90060013B07FB06F64FEAE63606F375
:102AD0000F061680B0F9026000F1040006FB07F74C
:102AE0004FEAE73707F30F07578002F10402E5D1F9
:102AF000F0BD0000B0B50025B5EB930F55D04FEAFF
:102B0000930C00BF0D68046800F1200EBCF1010CAD
:102B100054FB05F404F31E044FEA440414604468B3
:102B200054FB05F505F31E054FEA450555604D6854
:102B3000846854FB05F404F31E044FEA44049460D3
:102B4000C46854FB05F505F31E054FEA4505D5603D
:102B50008D68046954FB05F404F31E044FEA440431
:102B60001461446954FB05F505F31E054FEA45055C
:102B70005561CD68846954FB05F404F31E044FEAE3
:102B800044049461C46954FB05F501F11004214625
:102B900005F31E0002F120054FEA4000D0617046A7
:102BA0002A46AFD121462A46704613F0030308BFD8
:102BB000B0BD00BF51F8045B0468013B54FB05F451
:102BC00004F31E044FEA44041460446800F1080052
:102BD00054FB05F505F31E054FEA4505556002F166
:102BE0000802E7D1B0BD00002DE9F04F84B0924655
:102BF00080469E4699423EBF904682468E46994206
:102C0000DDF834B038BF1946BEF10109A1EB090661
:102C100000F0EB8001219FEDE00A4FF0000C5346DD
:102C200048460196B0EE401ABCEB910F42461F4653
:102C300028D021F003028C08B0EE401A1E4608EBA3
:102C400082024546A3EB041795ED002A96ED003A63
:102C500002EE031A95ED012A16ED013A013C02EE4F
:102C6000031A95ED022A16ED023A02EE031A95EDCB
:102C7000032A16ED033A05F11005A6F1100602EE3F
:102C8000031AE1D111F003040AD000BF92ED002A2B
:102C900097ED003A02EE031A0432043F013CF5D1ED
:102CA0000BF104048BED001A013803F1040301F168
:102CB0000101A346B6D1BEF1030FCDF800A00AEB87
:102CC000890A40F2958001990025B5EB910F00F03B
:102CD000B8802EF003008E08A9EB00004FEA9E0199
:102CE00003914EF00301009A0EF0030B00259FEDB7
:102CF000AA0A02EB8000C44608EB8102214602903A
:102D0000B0EE402AB0EE403AB0EE404AB0EE401A83
:102D10009CED006A9CED015A9CED027A0CF10C04CA
:102D200053460398D3ED000AD4ED001A06EE202A8C
:102D300094ED016A05EE203A013807EE204A00EED4
:102D4000A11A53ED010A05EE202A94ED025A07EE6E
:102D5000203A01EEA04A00EE861A53ED020A07EE71
:102D6000202A94ED037A01EEA03A04F1100406EE55
:102D7000204A00EE851A53ED030A01EEA02AA3F1C2
:102D8000100306EE203A05EE204A00EE871AC9D15C
:102D9000BBF1000F16D05846029B1746D3ED000A30
:102DA000043B06EE202AB0EE456A05EE203AB0EE6E
:102DB000475A07EE204A97ED007A00EE871A04374B
:102DC0000138EBD1043501F1100481ED002A013EF8
:102DD00081ED013A08EB850C81ED024A02F1100207
:102DE00081ED031A21468BD12CE00AEB890A01E020
:102DF000A346019E1EB300209FED670A314642465E
:102E0000B0EE401ABEF1000F0ED0B0EE401A73467D
:102E1000574600BF92ED002A97ED003A02EE031AE2
:102E20000432043F013BF5D101300BF104040139B8
:102E30008BED001A08EB8002A346E1D158E05C4616
:102E400056E0C446019810F0030150D02EF0030B59
:102E5000009BA9EB0B024FEA9E000EF003079FEDCB
:102E60004E0A03EB820E00BF30B3B0EE401A0346A9
:102E70005246664696ED002A92ED003A02EE031A9B
:102E800096ED012A12ED013A013B02EE031A96ED8E
:102E9000022A12ED023A02EE031A96ED032A12ED0F
:102EA000033A06F11006A2F1100202EE031AE1D174
:102EB0000CEB8B0C724602E05246B0EE401A67B142
:102EC0003B4600BF9CED002A92ED003A02EE031A49
:102ED0000CF1040C043A013BF4D10135221D0139F7
:102EE00084ED001A08EB850C1446BDD11446019EF2
:102EF000B9F1000F4DD008EB86059FED270A0021A0
:102F0000B0EE401AB1EB990F2A4653462AD029F069
:102F100003004FEA9907B0EE401A564605EB8002CF
:102F20002846AAEB071300BF90ED002A96ED003A61
:102F300002EE031A90ED012A16ED013A013F02EE6E
:102F4000031A90ED022A16ED023A02EE031A90EDF2
:102F5000032A16ED033A00F11000A6F1100602EE66
:102F6000031AE1D119F003000AD000BF92ED002A44
:102F700093ED003A02EE031A0432043B0138F5D116
:102F8000201DB9F1010984ED001A05F1040504467C
:102F9000B6D104B0BDE8F08F0000000010B50023EA
:102FA000B3EB920F12D0940803680B6043684B6038
:102FB00083688B6000F1100C01F1100E013CC068B9
:102FC000C86060467146EFD17146604612F0030258
:102FD00008BF10BD013A50F8043B41F8043BF9D159
:102FE00010BD00000023B3EB920F0BD04FEA920C00
:102FF00003680B6043680830BCF1010C4B6001F1C1
:103000000801F5D112F0030208BF704730F8023B07
:10301000013A21F8023BF9D17047000010B50023B6
:10302000B3EB920F12D0940803680B6043684B60B7
:1030300083688B6000F1100C01F1100E013CC06838
:10304000C86060467146EFD17146604612F00302D7
:1030500008BF10BD013A50F8043B41F8043BF9D1D8
:1030600010BD00000023B3EB920F08D04FEA920C82
:10307000BCF1010C50F8043B41F8043BF8D112F0CC
:10308000030208BF704700BF10F8013B013A01F886
:10309000013BF9D1704700009FED201AB5EE002AE0
:1030A00000EE012A9FED1E1ABDEEC20AB5EE402ABF
:1030B000F1EE10FA10EE100AB8BF013800EE100A57
:1030C0000020B8EEC00A32EE400A9FED162A20EE2C
:1030D000010ABCEEC01A30EE022A11EE101AB0EB53
:1030E000512F4CF6604018BF002100FE020AC0F6C6
:1030F000020001EE101A00EB810090ED012A90ED24
:10310000003AB8EE411A30EE410AB7EE001A31EE3D
:10311000401A20EE020A01EE030A704783F9223EAC
:1031200000000044000000C400F500510AB2002A6B
:103130004FF4FC4248BFA0F5C04108B202EA412169
:103140004DF264428009C0F6020202EB400332F9FC
:103150001000C1F50042B3F9023050430022C7F617
:10316000FF72104013FB01006FF0010101EAD03043
:1031700000B2704780B510F100514DF6680348BFAA
:1031800000F120414FF60062C0F60203880DC7F639
:10319000FF7202EA412153F8202003EB800CC1F1B9
:1031A0000043A2FB030ED017DCF8042000FB03E071
:1031B00051FB0200400080BDB0B50025B5EB920F79
:1031C0002AD022F0030E94089FED1D0A0D4600EB55
:1031D0008E0C00BF90ED001A95ED002A01EE020A58
:1031E00090ED011A95ED012A013C01EE020A90EDE5
:1031F000021A95ED022A01EE020A90ED031A95EDEE
:10320000032A00F1100005F1100501EE020AE1D1D8
:1032100001EB8E01604601E09FED090A12F0030206
:103220000AD000BF90ED001A91ED002A01EE020ACB
:1032300004300431013AF5D183ED000AB0BD00BF7E
:10324000000000000022B2EB910F0FD08A0800BFEF
:1032500000F1100380ED000A80ED010A013A80EDD3
:10326000020A80ED030A1846F2D1184611F0030154
:1032700008BF7047021D013980ED000A1046F9D1E0
:10328000704700000023B3EB920F0BD0930800BFF0
:1032900001F1100C0860C1E90100013BC860614602
:1032A000F6D1614612F0030208BF7047013A41F8B7
:1032B000040BFBD1704700002DE9F04F81B02DEDDC
:1032C000048B86B0B0F800E0D0F804C00027D0F836
:1032D00008A0AEF10106B7EBD30F02960CEB860BFC
:1032E000019300F05D81DE082EF007004EF0070329
:1032F0004FEADE090EF007080AEB800003900CEBA2
:1033000083049FEDD30A6046CDE9048E0B68CBF8A9
:1033100000304B68CBF804308B68CBF80830CB68B2
:10332000CBF80C300B69CBF810304B69CBF814306C
:103330008B69CBF81830CB69CBF81C30D0ED006A24
:10334000D0ED015AD0ED027AD0ED031AD0ED042A67
:10335000B9F1000FD0ED053AD0ED064A00F0C68075
:10336000B0EE401AB0EE402AB0EE403AB0EE404A1D
:10337000B0EE405AB0EE406AB0EE407AF0EE400A4D
:103380004FF0000E4F4600BF0AEB0E0800EB0E0395
:10339000B9F101090EF1200E98ED009A93ED078A1C
:1033A00046EE890AD3ED086A05EE897A07EE896A46
:1033B00001EE895A02EE894A03EE893A04EE892A1F
:1033C00009EE081A98ED019A45EE890AD3ED095ADB
:1033D00007EE897A01EE896A02EE895A03EE894A7C
:1033E00004EE893A08EE092A09EE261A98ED029AA7
:1033F00047EE890AD3ED0A7A01EE897A02EE896AEC
:1034000003EE895A04EE894A08EE093A06EE892A43
:1034100009EE251A98ED039A41EE890AD3ED0B1AAD
:1034200002EE897A03EE896A04EE895A08EE094AA7
:1034300006EE893A05EE892A09EE271A98ED049AD4
:1034400042EE890AD3ED0C2A03EE897A04EE896AEA
:1034500008EE095A06EE894A05EE893A07EE892AEE
:1034600009EE211A98ED059A43EE890AD3ED0D3A3B
:1034700004EE897A08EE096A06EE895A05EE894A51
:1034800007EE893A01EE892A09EE221A98ED069A8A
:1034900044EE890AD3ED0E4A08EE097A06EE896AEF
:1034A00005EE895A07EE894A01EE893A02EE892A29
:1034B00009EE231A98ED079A48EE090A06EE897A72
:1034C00005EE896A07EE895A01EE894A02EE893AC9
:1034D00003EE892A09EE241A7FF456AF2346039D92
:1034E000DDF814E0B946DDF8108012E000F11C03AD
:1034F0005546F0EE400AB0EE407AB0EE406AB0EECB
:10350000405AB0EE404AB0EE403AB0EE402AB0EE3B
:10351000401AB8F1000F01F120010BF1200B25D06A
:10352000474600BF95ED008A043546EE880AF0EE66
:10353000656A05EE887AF0EE675A07EE886AF0EE63
:10354000617A01EE885AF0EE621A02EE884AF0EED5
:10355000632AF0EE643A04EE882AD3ED004A04337D
:1035600002EE883A013F08EE241ADBD102F1200373
:10357000C2ED000A82ED017A203082ED026A013E3E
:1035800082ED035A04F1200482ED044A82ED053AEB
:1035900082ED062A82ED071A1A467FF4B7AE01E0E3
:1035A00060461346019A12F0070224D09FED280AC4
:1035B000B0EE401ABEF1000F51F8047B4BF8047BCB
:1035C00011D0B0EE401A0027754600BF0AEB070481
:1035D000C619013D07F1040796ED002A94ED003A63
:1035E00002EE031AF2D11F1D013A83ED001A00F119
:1035F00004003B46DCD1029F0021B1EB970F17D0AE
:10360000B90800BF0268CCF800204268CCF804205A
:103610008268CCF8082000F110020CF11003013987
:10362000C068CCF80C009C461046EBD110469C4676
:1036300017F0030106D000BF013950F8042B4CF8F5
:10364000042BF9D106B0BDEC048B01B0BDE8F08FBE
:103650000000000080B50023B3EB920F5DD0BEEEFA
:10366000000AB6EE001A4FEA920C9FED3D2A00BF09
:1036700090ED003A90ED014A23EE023A90ED036A94
:1036800024EE024A26EE026AB5EE403AF1EE10FA56
:10369000B5EE404A31FE005AF1EE10FA33EE053A2B
:1036A00090ED025A31FE007A103025EE025ABDEE3E
:1036B000C33AB5EE405A13EE103A34EE073AF1EE43
:1036C00010FAB5EE406A31FE004A03F30F030B8097
:1036D000BDEEC33AF1EE10FA13EE103A35EE043AAD
:1036E00031FE004ABCF1010C03F30F0336EE044A2D
:1036F0004B80BDEEC33A13EE103A03F30F038B80F9
:10370000BDEEC43A13EE103A03F30F0E01F10803B5
:10371000A1F806E01946ABD1194612F0030208BF22
:1037200080BDBEEE000AB6EE001A9FED0D2A00BF66
:1037300090ED003A043023EE023AB5EE403AF1EE55
:1037400010FA31FE004A013A33EE043ABDEEC33AB4
:1037500013EE103A03F30F0321F8023BE8D180BDCA
:10376000000000472DE9F0412DED0C8B0023904621
:10377000B3EB920F0C4605466CD0BEEE008AB6EE57
:10378000009A4FEA98079FED48AA6FF0004600BFE5
:1037900095ED000A95ED01BA20EE0A0A95ED02CAF0
:1037A00095ED03DAB5EE400AF1EE10FA39FE081A8B
:1037B00030EE010A10EE100AFCF79AFF2BEE0A0A0F
:1037C000B1EBE07F18BF86EAE170B5EE400A2060F9
:1037D000F1EE10FA39FE081A30EE010A10EE101A56
:1037E0000846FCF785FF2CEE0A0AB1EBE07F18BF14
:1037F00086EAE170B5EE400A6060F1EE10FA39FE3B
:10380000081A30EE010A10EE101A0846FCF770FF95
:103810002DEE0A0AB1EBE07F18BF86EAE1701035A1
:10382000B5EE400AA060F1EE10FA39FE081A30EE4B
:10383000010A10EE101A0846FCF75AFFB1EBE07FC0
:1038400018BF86EAE17004F11001013FE0600C4608
:103850009ED10C4618F0030622D0BEEE008AB6EECA
:10386000009A9FED11AA6FF0004700BF95ED000A86
:10387000043520EE0A0AB5EE400AF1EE10FA39FEE0
:10388000081A30EE010A10EE100AFCF731FFB1EB16
:10389000E07F18BF87EAE170013E44F8040BE5D1F0
:1038A000BDEC0C8BBDE8F0810000004FB0B50025E9
:1038B000B5EB930F31D04FEA930C00BF90ED000AA7
:1038C00091ED001A20EE010A00F1100E82ED000ABF
:1038D00001F1100490ED010A91ED011A20EE010AA8
:1038E00002F1100582ED010ABCF1010C90ED020A13
:1038F00091ED021A20EE010A82ED020A90ED030A10
:1039000091ED031A20EE010A704682ED030A2A4661
:103910002146D3D121462A46704613F0030308BF3F
:10392000B0BD00BFB0EC010AB1EC011A20EE010AF3
:10393000151D013B82ED000A2A46F3D1B0BD0000FF
:1039400080B50023B3EB920F22D0930890ED001ABC
:1039500000F1100C31EE001A01F1100E81ED001A89
:10396000013B90ED011A31EE001A81ED011A90ED44
:10397000021A31EE001A81ED021A90ED031A604628
:1039800031EE001A81ED031A7146DFD171466046AF
:1039900012F0030208BF80BDB0EC011A31EE001A2C
:1039A0000B1D013A81ED001A1946F5D180BD0000CA
:1039B00080B50023B3EB910F1ED04FEA910E21F09A
:1039C000030C9FED150A034693ED001ABEF1010E9C
:1039D00001EE010A93ED011A01EE010A93ED021ABC
:1039E00001EE010A93ED031A03F1100301EE010A3F
:1039F000EAD100EB8C0001E09FED070A11F0030112
:103A000007D000BF90ED001A043001EE010A013921
:103A1000F8D182ED000A80BD00000000F0B54FF043
:103A2000000CBCEB910F15D04FEA910E21F003046E
:103A30004FF0000C002305462E686F68BEF1010EA2
:103A400005F10805C6FBC6C3C7FBC7C3F4D100EB2D
:103A5000440000E0002311F0030108D030F9027B9C
:103A60007F431CEB070C43F100030139F6D1C2E997
:103A700000C3F0BD2DE9F0474FF0000CBCEB910FF7
:103A800039D04FEA910E21F003084FF0000C0023CB
:103A9000054600BF2E68D5E9014986FB0667B60BCF
:103AA00046EA874A84FB0446BF0B1CEB0A0C4FEA2C
:103AB0009434D5F80CA044EA86447B411CEB040CFA
:103AC00089FB094743EB963910358AFB0A63A40B3F
:103AD00044EA8744B60B14EB0C0446EA834649EBF0
:103AE000973714EB060C47EB9333BEF1010ED1D19F
:103AF00000EB880000E0002311F003010DD000BFAF
:103B000050F8047B87FB0776BF0B47EA8647B60B66
:103B10001CEB070C73410139F2D1C2E900C3BDE8C7
:103B2000F0870000B0B50023B3EB920F35D04FEA19
:103B3000920C9FED250A00BFB0F90030B0F90440A7
:103B4000B0F902E0B0F9065001EE103A01F11003AD
:103B5000BCF1010C00F10800B8EEC11A21EE001A08
:103B600081ED001A01EE10EAB8EEC11A21EE001A3A
:103B700081ED011A01EE104AB8EEC11A21EE001AC9
:103B800081ED021A01EE105AB8EEC11A21EE001AA8
:103B900081ED031A1946CFD1194612F0030208BF6E
:103BA000B0BD9FED090A00BF30F9023B013A01EEBA
:103BB000103A01F10403B8EEC11A21EE001A81EDAA
:103BC000001A1946F0D1B0BD000000380023B3EB55
:103BD000920F2CD04FEA920C9FED200A90ED001A24
:103BE00090ED012A90ED023A90ED034AB8EEC11A29
:103BF00001F11003BCF1010C00F1100021EE001ADC
:103C000081ED001AB8EEC21A21EE001A81ED011AF8
:103C1000B8EEC31A21EE001A81ED021AB8EEC41AEA
:103C200021EE001A81ED031A1946D7D1194612F078
:103C3000030208BF70479FED090A00BF50F8043B1C
:103C4000013A01EE103A01F10403B8EEC11A21EE77
:103C5000001A81ED001A1946F0D1704700000030BB
:103C60002DE9F04F81B02DED108B94B09FED050A3A
:103C70000C46CDE9023200900430019008461091C4
:103C800002E000BFF304353F4FEAD40CCDF818C072
:103C90004FEACC064FF0000B0CEB8C020C94A6EB19
:103CA000D40013960CEB4C0ED200C0000F904FEADC
:103CB0000E114FEA4C174FEA0C109446019AE5009A
:103CC0004FEACE03CDE91175CDE90A3002EB070AC0
:103CD00002EB060802EB0C0E14180A9812ED011AFA
:103CE0001AED012A551802EB00090F9831EE023A3D
:103CF0001EED014A31EE421A18ED012A104432EE4F
:103D0000045A32EE442A14ED014A15ED016A50EDD1
:103D1000010A34EE067ADAED003A34EE464A19ED3D
:103D2000016A76EE201ADEED005A36EE606A90EDFA
:103D3000008A73EE070A139E75EE212A33EE473A86
:103D400092ED007A35EE615A70EEA21A70EEE20A38
:103D5000D8ED002A77EE234A42ED011A37EE637A56
:103D6000D4ED003A72EEA56A4AED010A72EEE52A38
:103D7000D5ED005A73EEA57A73EEE53AD9ED005A07
:103D800035EE889A75EEC85A34EEA78A36EE89AABF
:103D900074EEE74A76EEC96A78EE0A7A38EE4A8A15
:103DA000C2ED007A32EE46AA8AED008A33EE269AF8
:103DB00033EE663A04ED019A74EEC56A05ED013AF8
:103DC00035EE245AC4ED006A72EEE54A85ED005ADC
:103DD00072EEA52A0C9C32EE062AA3442AEE006A53
:103DE00062EE801A22EE002A71EE465A31EE061A71
:103DF00024EE806A73EEA12A74EE420A34EE022A9F
:103E000037EE464A37EE066A33EEE13A31EE225A91
:103E100031EE621A08ED015A36EE425A00ED011AEF
:103E200032EE061A88ED005A80ED001A35EE831A3C
:103E30000EED011A34EE601A8EED001A35EEC31A3B
:103E4000DDE91175109809ED011A30EE841A8345E9
:103E50000B982A4489ED001AFFF438AF402CC0F0CB
:103E6000888106980123CDE90DC1C0EBC0000299FD
:103E70004FF0000C009E89B20591C000049000BF75
:103E8000059807968444039D4FEACC0008900CEBFC
:103E90004C00CDF824C005EBCC0B9FEDB91A05EB17
:103EA000C0020CEB8C049BED000A05EB4C1792ED65
:103EB000003A4FEAC40B8DED0F0A05EBC40297EDF3
:103EC000004A05EB0014089FCCEBCC0192ED005AA0
:103ED0004FEA0C1E94ED006A4FEAC0093C1D05EB49
:103EE0000C1809F104074FEA4C1A2F44CA002C445D
:103EF00005EBC10C0EF1040129440001D7ED002AA5
:103F00000AF10407D1ED001A0BF104010430043268
:103F1000D4ED000AEC196F1828442A4498ED002AC1
:103F20009CED007A0C99D4ED003AD7ED004AD0ED23
:103F3000005AD2ED006AB446DDF81080DDE90A7659
:103F4000089300BF11980E9D0CEB000413980CEB26
:103F500000020D986044DCED027A94ED028A0CEBCD
:103F6000060B0CEB050937EE88BA77EEC87A92EDAE
:103F7000028A90ED029A0CEB070E0CEB080A38EE61
:103F800009CA38EE49AA9BED028A99ED029A9AED88
:103F900002EA38EE09DAD0ED03AA38EE499A9EED2E
:103FA000028A38EE0EFAD9ED03CA7BEE0D8ADAEDFD
:103FB00003EA38EE4EEA0B447CEE0F9A3BEE4DBA24
:103FC0003CEE4FCA9CED03FA38EEA98A38EEE9DAE6
:103FD000D4ED038A7FEE289A8CED028A3FEE68FAD0
:103FE000D2ED038A78EEAABA78EEEA8ADBED03AA6C
:103FF0007AEEACDA7AEEECAADEED03CA7CEEAEFA2B
:104000007CEEEECA79EEEDEA3BEEEF0A79EEAD9A80
:104010007BEEAFBA7BEE00DA3BEE400A39EEABBA8C
:1040200079EEEB9A8CED03BA7EEECCBA3CEE2ECA5A
:104030007AEE4EFA63EEA9EA64EE299A44EE0DEAAE
:1040400043EECD9A22EE2DDA01EEABDA62EE2BBA18
:10405000C4ED02EA41EEEDBAC4ED039A66EE00DA71
:1040600045EE8CDA8BED02DA26EE0CCA05EEC0CAFC
:10407000CBED03BA3AEE0E0A2FEE81AAC9ED02DAB1
:1040800038EEECEA78EEAC8A89ED03CA77EECACA5C
:1040900077EE8A7A20EE010A2EEE01AA28EE81EA56
:1040A00079EE408A39EE000A3FEE4A9A7AEE8EFAAD
:1040B0003FEE0AAA3AEECEEA37EEAFFA77EEEF7AA3
:1040C000DDED0FFA7CEE8EAA3CEECEEA7AEE40CA27
:1040D00030EE0A0A39EE68AA38EE899A60EEAC8AA8
:1040E0006FEEACCA4FEE8F8A40EECFCA26EE808AC2
:1040F00027EE000A07EE278AC2ED028A06EEE70ADB
:10410000C2ED03CA64EE8A7A25EE0AAA45EE2A7A3F
:104110008AED028A04EEEAAA8AED030A22EE89BA3F
:1041200023EE099A03EE0EBAC0ED027A02EECE9AA1
:1041300080ED03AA10988342129884448EED02BA4F
:104140008EED039AFFF4FEAE089B079E013306989E
:10415000834206F10806DDF824C0FFF491AE3F2942
:104160000298069C9FED060A4FEAC00002903FF6B7
:104170008BAD14B0BDEC108B01B0BDE8F08F00BF6B
:10418000F304353F10B578B14FF400710446FDF7E4
:104190002FFF50B94FF4806020824DF6EC70C0F6CE
:1041A00003006061002000E0FF2040B210BD10B5A8
:1041B00068B140210446FDF71BFF48B980202082EA
:1041C0004EF6EC70C0F603006061002000E0FF20B6
:1041D00040B210BD10B578B14FF480610446FDF7D0
:1041E00007FF50B94FF4006020824FF2EC10C0F688
:1041F00003006061002000E0FF2040B210BD10B558
:1042000070B180210446FDF7F3FE50B94FF4807081
:10421000208241F2EC10C0F604006061002000E052
:10422000FF2040B210BD10B568B110210446FDF763
:10423000DFFE48B92020208241F2EC50C0F6040095
:104240006061002000E0FF2040B210BD10B578B1E1
:104250004FF400610446FDF7CBFE50B94FF4805097
:10426000208241F26C60C0F604006061002000E032
:10427000FF2040B210BD10B578B14FF480710446F4
:10428000FDF7B6FE50B94FF40070208245F26C6025
:10429000C0F604006061002000E0FF2040B210BDC5
:1042A00010B568B120210446FDF7A2FE48B94020B0
:1042B000208245F66C60C0F604006061002000E0DA
:1042C000FF2040B210BDF0B581B014460F46054640
:1042D00073B12846394622461E4600F08BFC012366
:1042E00028462146324601B0BDE8F040FDF710BE39
:1042F0000022012328463946FDF70AFE28463946A2
:10430000224601B0BDE8F04000F0C6BCB1F5007F28
:104310000ADA7F2916DC202929D040293BD144F232
:10432000A121C0F600010847B1F5006F14DAB1F51C
:10433000007F21D0B1F5806F2DD144F28511C0F6F8
:104340000001084780291CD0B1F5807F23D144F2B9
:10435000FF11C0F600010847B1F5805F16D0B1F536
:10436000006F18D144F2D511C0F60001084744F29D
:104370002721C0F60001084744F27721C0F600016A
:10438000084744F2AF11C0F60001084744F24D213E
:10439000C0F6000108474FF0FF3070470023B3EB31
:1043A000920F21D0930800BF90ED001A90ED012AE2
:1043B00090ED023A90ED034A21EE001A01F1100C43
:1043C00022EE002A81ED001A23EE003A81ED012A47
:1043D00024EE004A81ED023A013B00F1100081ED2C
:1043E000034A6146E0D1614612F0030208BF7047FC
:1043F000B0EC011A21EE001A0B1D013A81ED001AF2
:104400001946F5D1704700002DE9F041DDF818C0DC
:104410000024C2F10F0EB4EB9C0F28D04FEA9C028F
:104420004FFA8EF8056846680830013A15FB21F707
:1044300011FB05F516FB21F447FA08F711FB06F608
:1044400045FA08F544FA08F446FA08F607F30F07A8
:1044500005F30F0504F30F0406F30F06C5EA07453D
:104460001D60C6EA04445C6003F10803DAD11CF065
:10447000030208BFBDE8F0815FFA8EF430F9027BD9
:10448000013A01FB07F747FA04F707F30F0723F890
:10449000027BF3D1BDE8F081F0B50132DDF814C044
:1044A0004FFA82FE4FEA9C02BEF1FF3F3DDD002A3B
:1044B0006BD06FF0004400BF056855FB01F505FAAD
:1044C0000EF646FA0EF7BD4218BF84EAE5761E6086
:1044D000456855FB01F505FA0EF646FA0EF7BD42A2
:1044E00018BF84EAE5765E60856855FB01F505FA3C
:1044F0000EF646FA0EF7BD4218BF84EAE5769E60D6
:10450000C56855FB01F606FA0EF747FA0EF5AE42FE
:1045100000F1100518BF84EAE67703F11006013AAE
:10452000DF6028463346C7D124E0002A45D0CEF1CB
:10453000000400BF0568013A55FB01F545FA04F592
:104540001D60456855FB01F545FA04F55D60856819
:1045500055FB01F545FA04F59D60C66800F11005AC
:1045600056FB01F003F1100640FA04F0D86028462B
:104570003346DFD133462846BEF1FF3F0CF003023D
:1045800019DD002A08BFF0BD02E01CF0030223D0B1
:104590006FF0004450F8047B57FB01F707FA0EF662
:1045A00046FA0EF5AF4218BF84EAE776013A43F8BF
:1045B000046BEFD110E01AB90EE01CF003020BD02F
:1045C000CEF1000450F8047B013A57FB01F747FA9B
:1045D00004F743F8047BF5D1F0BD00009FED1F1AEE
:1045E00020EE010A9FED1F2ABDEEC01AB5EE400A6B
:1045F000F1EE10FA11EE100AB8BF013801EE100A00
:104600000020B8EEC11A30EE410A9FED151A20EED7
:10461000010ABCEEC01A30EE022A11EE101AB0EBFD
:10462000512F4CF6604018BF002100FE020AC0F670
:10463000020001EE101A00EB810090ED012A90EDCE
:10464000003AB8EE411A30EE410AB7EE001A31EEE8
:10465000401A20EE020A01EE030A704783F9223E57
:1046600000000044000000C44FF4FC42C0F3881175
:1046700002EA40204DF26442C0F6020202EB41031E
:1046800032F91110C0F50042B3F902305143002253
:10469000C7F6FF72114013FB00106FF0010101EA31
:1046A000D03000B2704780B54DF668034FF6006217
:1046B000C0F38851C0F60203C7F6FF7202EA402039
:1046C00053F8212003EB810CC0F10043A2FB031E31
:1046D000D117DCF8042001FB03E150FB021040007D
:1046E00080BD00002DE9F04F85B0D0E90356A5F15B
:1046F000010ED0F804B0022D806806EB8E070397F8
:10470000CDE9010606EBCE00049051DB009591ED5A
:10471000000A0026012B06F1010A42DB0BEB8A009E
:1047200090ED001AB4EE410AF1EE10FA39DC019F67
:104730000BEB860807EB8605029F07EB8604039FB9
:1047400007EB8609049F07EB860C00BF98ED001A63
:1047500094ED002A30EE410A95ED001A9CED003AE6
:10476000022BA3F1010302EE001A99ED002A22EEBA
:10477000002A20EE033A00EE021A20EE032A00EE91
:10478000021A82ED001A02F1040291ED010A01F110
:10479000040106DB90ED001AB4EE410AF1EE10FAC6
:1047A000D4DDF2455646B5D10098A0F1020C01E0E7
:1047B0004FF0FF3C012B2FDB0198029F039D049CCF
:1047C00000EB8C00013307EB8C070BEB8C0605EB41
:1047D0008C0504EB8C0400BF91ED000A96ED001AE5
:1047E00030EE410A97ED002A90ED001A94ED003A60
:1047F000013B043102EE001A95ED002A22EE002A58
:10480000012B20EE033A00EE021A20EE032A00EEFE
:10481000021AA2EC011ADFDC05B0BDE8F08F00003F
:104820002DE9F04F82B0DDF82C90DDF834B0A9F11D
:10483000010CC0E901230BEB8C0A0090C0F80C902E
:1048400021B1012906D1BFEE000A01E09FED700AF7
:104850008BED000ABCF1020F4FF00007CAF80070A0
:104860004BDB92ED000A92ED012A32EE400AB0EEE7
:10487000081A4FEA89081F1DA9F1030E02F1080565
:104880005E4600BF95ED003AB0EE404A33EE420A74
:1048900097ED002A97ED013A06EB080417ED016A3F
:1048A00033EE423A34EE005ABEF1000F36EE422AA1
:1048B00096ED006A23EE013A35EE055A04EE465AAB
:1048C00022EE012A83EE003A82EE042A80EE056A87
:1048D00086ED016A33EE022A14ED013A04EE432A12
:1048E00082EE052A84ED002A07D095ED002A0436D1
:1048F0000437AEF1010E0435C4E799B1012917D18F
:104900006FF00701B7EE000A01EB89010BEB01071D
:10491000514497ED001A31EE000A91ED001A81EE34
:10492000000A01E09FED3A0A0AEB8C0181ED000AD2
:10493000B9F1020665D40C9809EB49046FF0030540
:10494000B0EE080A00EB8C0101914FEA4C0100EB3C
:10495000840405EB810559460AEB8C0EA4F1100A7C
:1049600000EB86094F190BEB860B441903EB8C0304
:10497000002502EB8C0200BF0BEB050878199EEDB9
:10498000001A511998ED002A90ED003A01EE423AD2
:104990006019ACF1010CBCF1000F80ED003A91ED13
:1049A000004A33EE032A11ED013A34EE433A03EBA9
:1049B000050131EE022A11ED014A91ED005A09EB91
:1049C000050135EE444A23EE022A84EE034A82EEC4
:1049D000002A34EE422A81ED002A90ED002A019847
:1049E00031EE421A23EE002A00EB860E0AEB050098
:1049F000A6F10106A5F1040581EE021A80ED001A68
:104A0000BADC00980C99016102B0BDE8F08F00BFDC
:104A10000000000010B52DED028B82B0144601AAF3
:104A200000F06AF89DED018AB5EE408AF1EE10FAC9
:104A300002DA9FED0B0A08E0B0EE480A1CF0C7F856
:104A4000B4EE400AF1EE10FA05D684ED000A02B089
:104A5000BDEC028B10BDB0EE480A1CF0B8F8F4E7CC
:104A600000000000B0B50025B5EB930F31D04FEA40
:104A7000930C00BF90ED000A91ED001A30EE410A50
:104A800000F1100E82ED000A01F1100490ED010A10
:104A900091ED011A30EE410A02F1100582ED010A92
:104AA000BCF1010C90ED020A91ED021A30EE410AC0
:104AB00082ED020A90ED030A91ED031A30EE410AED
:104AC000704682ED030A2A462146D3D121462A4662
:104AD000704613F0030308BFB0BD00BFB0EC010A7D
:104AE000B1EC011A30EE410A151D013B82ED000ABE
:104AF0002A46F3D1B0BD0000B0B5022902D29FED25
:104B00003C0A72E000234FEA910CB3EB910F1CD0EA
:104B100021F0030E9FED361A0446634694ED000A19
:104B2000013B31EE000A94ED011A30EE010A94EDDA
:104B3000021A30EE010A94ED031A04F1100430EE6B
:104B4000011AEBD100EB8E0302E09FED291A034618
:104B500011F0030507D02C4693ED000A043331EE23
:104B6000001A013CF8D100EE101ABCF1000FB8EEAB
:104B7000400A81EE002A25D021F0030E9FED1C1A79
:104B8000014600BF91ED003A91ED014A33EE423A01
:104B9000BCF1010C03EE031A34EE423A91ED024AE5
:104BA00003EE031A34EE423A91ED034A01F110018B
:104BB00003EE031A34EE423A03EE031AE2D100EB9D
:104BC0008E0001E09FED0A1A4DB100BF90ED003A52
:104BD000043033EE423A013D03EE031AF6D1BFEE44
:104BE000002A30EE020A81EE000A82ED000AB0BD12
:104BF0000000000080B591ED001A91ED012A31EE20
:104C0000023AB6EE000A31EE421A0388B3F1010C03
:104C100023EE002A21EE001A82ED002A436982ED7C
:104C2000011A08BF80BD01EBCC0E01F1080008336A
:104C300002F108010EF1040212ED011A90ED003AA2
:104C400033EE415A92ED002A90ED014A93ED007A3D
:104C500031EE031A93ED013A32EE046ABCF1010C15
:104C600005EE471A00F1080034EE422A03F108036A
:104C700005EE032AA2F1080206EE431A07EE462AC1
:104C800021EE001A81ED001A22EE002A81ED012AA0
:104C900001F10801D0D180BD80B591ED000A91ED00
:104CA000011A30EE002A038831EE011AB6EE000A2E
:104CB000A3F1010C406900F1080301F1080032EE94
:104CC000013A01EBCC0E32EE411A02F1080123EE5B
:104CD000002A21EE001A82ED002A82ED011A0EF15F
:104CE000040200BF12ED011A90ED003A31EE435A72
:104CF00092ED002A90ED014A93ED007A31EE031A0D
:104D000093ED013A32EE046ABCF1010C05EE071A8C
:104D100003F1080334EE422A00F1080005EE032AED
:104D2000A2F1080206EE031A07EE462A21EE001A47
:104D300081ED001A22EE002A81ED012A01F108011D
:104D4000D0D180BD70B504464E492068884203D05A
:104D50004D492068884208D14C48006800F4403032
:104D600008B1012009E0002007E04948006800F48C
:104D7000403008B1012000E00020B8B10CF026F965
:104D800005466068B0F5803F06D0B0F5003F04D01E
:104D9000B0F5403F08D105E000BF6068000CB5FBEE
:104DA000F0F502E0AD0800E000BF2AE04FF400207B
:104DB0000AF020FE05466068C0F31101F9B98014BD
:104DC0000C281CD2DFE800F01B060708090A0B11AB
:104DD0001315171900BF00BF00BF00BF00BF6068F8
:104DE000800C4000B5FBF0F50AE02D0908E06D09E4
:104DF00006E0AD0904E0ED0902E02D0A00E000BF85
:104E000000BF08F0C5F941F20301884210D82148DB
:104E1000854206D92068806840F4807021688860E7
:104E20002FE02068806820F480702168886028E086
:104E30006D081948854206D82068806820F44070C3
:104E4000216888601DE01548854208D82068806880
:104E500020F4407040F480702168886011E01048B0
:104E6000854208D82068806820F4407040F40070C3
:104E70002168886005E02068806840F440702168FF
:104E8000886070BD002002400021024008230240DB
:104E900008630258002D3101105E5F0020BCBE0087
:104EA00040787D0110B5024805F0C8FA10BD000039
:104EB000C8060024F0B52DED048B81B006460F46E0
:104EC00014469FED480A8DED000A6A46402130469F
:104ED000FEF76EFD9DED000ADFED430A80EE201A1D
:104EE0008DED001A94ED000ADDED000AB4EEE00A43
:104EF000F1EE10FA13DD3D4890ED000AF7EE000ADE
:104F000030EEC00AD4ED000A20EE200AD0ED000AEF
:104F10009DED001A00EE810A8DED000A12E0344882
:104F200090ED000AF7EE000A30EEC00AD4ED000A58
:104F300020EE200AD0ED000A9DED001A00EE810A55
:104F40008DED000A9DED000A84ED000A9DED000A3A
:104F5000B7EEC00A1BF00CF9B0EE401B9FED250B1D
:104F6000B2EE042B02EE010B244890F9010001EE91
:104F7000100AB8EEC11B30EE411B2048807800EECD
:104F8000100AB8EE400B31EE400BBDEEC00B10EE38
:104F9000105A1B490D7019488079A8421DDA17482C
:104FA0008079401B00EE100AB8EEC00AF3EE040A46
:104FB00080EE201AB7EEC10AB0EE409BB0EE491B5E
:104FC000B2EE040B1BF054F9B7EEC08B4022394609
:104FD000B0EE480A3046FCF71DFA01B0BDEC048B78
:104FE000F0BD00000000000000008042D403002457
:104FF000D003002400000000008057402C900324C0
:105000001C0000240346012A02D0022A02D100E03B
:1050100000E000BF00BF002070470146002070473D
:10502000002070470346002070470146002070476B
:1050300003460020704770B505460E46D5F8BC42C1
:1050400004B970BD402104F20B10FBF7D6F9F288C9
:1050500004F20B11284616F0E5F900BFF1E770B530
:1050600006460C46D6F8BC5205B970BDE08878B14A
:10507000E28805F20B11304616F0B3F9012085F8ED
:105080000A01A17985F84B11A088010A85F84C1115
:1050900000BFEAE701460020704700001FB500206E
:1050A0000390029001901A2003906420012303AA28
:1050B0006C2100902A4808F065FA6420022302AAB5
:1050C0006D210090264808F057F99DF80C008DF8E6
:1050D00004009DF8080020F07F008DF805009DF881
:1050E00009008DF806006420032301AA6C210090BA
:1050F0001B4808F047FA0C2003906420012303AA00
:105100006C210090164808F03DFA6420022302AAA0
:105110006D210090124808F02FF99DF8090000F069
:10512000E00040F016008DF809009DF8090020F01D
:1051300020008DF809009DF80C008DF804009DF802
:1051400008008DF805009DF809008DF80600642020
:10515000032301AA6C210090014808F013FA1FBD37
:105160007807002410B501200C4908706E20887162
:105170000A20C8719FED0A0A084680ED020A9FEDD9
:10518000090A80ED030A4FF4FA408880E62048704F
:105190000020887000F026F810BD00002C90032439
:1051A000295C0F3D0AD7233C2DE9F04107460C4608
:1051B00015461E460848007808B9BDE8F081074A40
:1051C00029463846FFF776FE054A31462046FFF766
:1051D00071FE00BFF1E700002C900324D8030024E7
:1051E000DC03002410B52DED028B1E48D0ED020A21
:1051F000808800EE100AB8EE400A20EE800ADFED4B
:105200001A0A80EE801AB7EEC10AB0EE408B1AF08F
:105210005BFDB7EE001B31EE400BB7EEC00B134841
:1052200080ED000A0F48D0ED030A808800EE100AD6
:10523000B8EE400A20EE800ADFED0B0A80EE801AFD
:10524000B7EEC10AB0EE408B1AF03EFDB7EE001B80
:1052500031EE400BB7EEC00B054880ED000ABDEC07
:10526000028B10BD2C900324000080C2D0030024C8
:10527000D403002410B52DED028B012032490870B3
:10528000022048709FED311BB2EE040B1AF0F0FFC4
:10529000B7EEC00B2F4880ED000A03212E48FCF723
:1052A00073FC03212C48FBF769FFB0EE408A002015
:1052B0000CE0294901EB800191ED000AC0EE080ADB
:1052C000254901EB8001C1ED000A401C0328F0DBF9
:1052D0000B212248FCF758FC0B212048FBF74EFF1E
:1052E000B0EE408A00200CE01C4901EB800191EDFA
:1052F000000AC0EE080A194901EB8001C1ED000A5D
:10530000401C0B28F0DB41211548B7EE000AFCF7E2
:105310001AF800200CE0134A02EB4011124A42F83E
:105320002010124A02EB4011114A42F82010401C92
:105330004128F0DB00210F48C0F8E81CC0F8EC1C45
:10534000BDEC028B10BD0000840300246666666617
:10535000666606C0AC030024F44703247C61032482
:105360000C4B0324AC350324705E0324CC3D032492
:10537000745F0324EC55032470B504460D461A48A7
:10538000007800B970BD1948D0F8E80C401C1749E6
:10539000C1F8E80C0846D0F8EC0C0F2805DC0846EC
:1053A000D0F8EC0C401CC1F8EC0C802210492046CF
:1053B000FBF7E3FF0C48407808B110F065FD0B489F
:1053C000D0F8E80C0F2801DB002002E00748D0F8F5
:1053D000E80C0649C1F8E80C802229460448FBF78E
:1053E000CCFF00BFCEE7000084030024EC5503246B
:1053F000EC4503242DE9F04105460E4617461E48AC
:105400000078012822D100241DE006EB44211B4A2C
:1054100002EB8402D2ED000AB0EE600A55F82400D7
:105420008022FBF7F7FF07EB4421144A103202EB0E
:105430008402D2ED000AB0EE600A55F82400802202
:10544000FBF7E8FF641C042CDFDB12E000240EE015
:1054500006EB442155F824008022FBF78EFF07EB72
:10546000442155F824008022FBF787FF641C042C9C
:10547000EEDBBDE8F0810000408003245C80032463
:105480002DE9F04105460F461646284800780128C8
:105490003AD1002435E0DFF898C0631C1CF80330D3
:1054A0001CF804C0A3EB0C02214B1B5D07EB83012E
:1054B000204B03EB8403D3ED000AB0EE600A1C4BD3
:1054C0001B5D05EB8300FBF7A5FFDFF864C0631CE1
:1054D0001CF803301CF804C0A3EB0C02144B1B5D3A
:1054E00006EB8301134B103303EB8403D3ED000A67
:1054F000B0EE600A0E4B1B5D05EB8300FBF78AFFE5
:10550000641C042CC7DB0EE000240AE0802239462C
:105510002846FBF732FF802231462846FBF72DFF55
:10552000641C802CF2DBBDE8F08100004080032485
:10553000485F02085C80032410B501200F49087001
:105540000020087500210D4841758175C175002046
:105550000A4908760021094841768176C1769FED97
:10556000080A80ED010A9FED070A80ED020A9FED0F
:10557000040A80ED030A03F05DFB10BD40800324A4
:10558000CDCC4C3E9A99193F10B503F053FB10BD9A
:1055900010B50120FE490870202081F88A019FED96
:1055A000FD0A084680ED010A9FEDFB0A80ED020A24
:1055B0009FEDFA0A80ED030A9FEDF90A80ED040AD7
:1055C0009FEDF80A80ED050A9FEDF70A80ED060AC7
:1055D0009FEDF60A80ED070A9FEDF50A80ED080AB7
:1055E0009FEDF40A80ED090A9FEDF30A80ED0A0AA7
:1055F0009FEDF20A80ED0B0A9FEDF10A80ED0C0A97
:105600009FEDF00A80ED0D0A9FEDEF0A80ED0E0A86
:105610009FEDEE0A80ED0F0A9FEDED0A80ED100A76
:105620009FEDEC0A80ED110A9FEDE90A80ED120A68
:105630009FEDE60A80ED130A9FEDE30A80ED140A60
:105640009FEDE00A80ED150A9FEDDD0A80ED160A58
:105650009FEDDA0A80ED170A9FEDD70A80ED180A50
:105660009FEDD40A80ED190A9FEDD10A80ED1A0A48
:105670009FEDCE0A80ED1B0A9FEDCB0A80ED1C0A40
:105680009FEDC80A80ED1D0A9FEDC50A80ED1E0A38
:105690009FEDC20A80ED1F0A9FEDBF0A80ED200A30
:1056A0009FEDBC0A80ED210A00F01CFAB84890ED8D
:1056B000010ADFEDC90A20EE200ABDEEC00A10EE95
:1056C000100A00B2B249A1F80801084690ED020A9A
:1056D000DFEDC10A20EE200ABDEEC00A10EE100A6E
:1056E00001B2AB48A0F80A1190ED030ADFEDBA0A47
:1056F00020EE200ABDEEC00A10EE100A01B2A44846
:10570000A0F80C1190ED040ADFEDB30A20EE200A98
:10571000BDEEC00A10EE100A01B29D48A0F80E11AD
:1057200090ED050ADFEDAC0A20EE200ABDEEC00ABE
:1057300010EE100A01B29648A0F8101190ED060A7A
:10574000DFEDA50A20EE200ABDEEC00A10EE100A19
:1057500001B28F48A0F8121190ED070ADFED9E0A02
:1057600020EE200ABDEEC00A10EE100A01B28848F1
:10577000A0F8141190ED080ADFED970A20EE200A38
:10578000BDEEC00A10EE100A01B28148A0F8161151
:1057900090ED090ADFED900A20EE200ABDEEC00A66
:1057A00010EE100A01B27A48A0F8181190ED0A0A1A
:1057B000DFED890A20EE200ABDEEC00A10EE100AC5
:1057C00001B27348A0F81A1190ED0B0ADFED820ABE
:1057D00020EE200ABDEEC00A10EE100A01B26C489D
:1057E000A0F81C1190ED0C0ADFED7B0A20EE200AD8
:1057F000BDEEC00A10EE100A01B26548A0F81E11F5
:1058000090ED0D0ADFED740A20EE200ABDEEC00A0D
:1058100010EE100A01B25E48A0F8201190ED0E0AB9
:10582000DFED6D0A20EE200ABDEEC00A10EE100A70
:1058300001B25748A0F8221190ED0F0ADFED660A79
:1058400020EE200ABDEEC00A10EE100A01B2504848
:10585000A0F8241190ED100ADFED5F0A20EE200A77
:10586000BDEEC00A10EE100A01B24948A0F8261198
:1058700090ED110ADFED580A20EE200ABDEEC00AB5
:1058800010EE100A01B24248A0F8281190ED120A59
:10589000DFED510A20EE200ABDEEC00A10EE100A1C
:1058A00001B23B48A0F82A1190ED130ADFED4A0A35
:1058B00020EE200ABDEEC00A10EE100A01B23448F4
:1058C000A0F82C1190ED140ADFED430A20EE200A17
:1058D000BDEEC00A10EE100A01B22D48A0F82E113C
:1058E00090ED150ADFED3C0A20EE200ABDEEC00A5D
:1058F00010EE100A01B22648A0F8301190ED160AF9
:10590000DFED350A20EE200ABDEEC00A10EE100AC7
:1059100001B21F48A0F8321190ED170ADFED2E0AF0
:1059200020EE200ABDEEC00A10EE100A01B218489F
:10593000A0F8341190ED180ADFED270A20EE200AB6
:10594000BDEEC00A10EE100A01B21148A0F83611DF
:1059500090ED190ADFED200A20EE200ABDEEC00A04
:1059600010EE100A01B20A48A0F8381190ED1A0A98
:10597000DFED190A20EE200ABDEEC00A10EE100A73
:1059800001B20348A0F83A1190ED1B0A26E000008E
:105990003C9003247B87D33E9949B4BD8E1E23BF20
:1059A000C686663F4C34483D8F0005C06006A13F67
:1059B000BE4D773F022D81C0624D753F828D5240B2
:1059C00089D09BC0A67C08BEE824C140B4AD7AC093
:1059D0006039E8BFE4C8F240000080445FED020A8D
:1059E00020EE200ABDEEC00A10EE100A01B22C48CB
:1059F000A0F83C1190ED1C0A5FED090A20EE200A88
:105A0000BDEEC00A10EE100A01B22548A0F83E1102
:105A100090ED1D0A5FED100A20EE200ABDEEC00ACF
:105A200010EE100A01B21E48A0F8401190ED1E0AB7
:105A30005FED170A20EE200ABDEEC00A10EE100A34
:105A400001B21748A0F8421190ED1F0A5FED1E0A3F
:105A500020EE200ABDEEC00A10EE100A01B2104876
:105A6000A0F8441190ED200A5FED250A20EE200AEF
:105A7000BDEEC00A10EE100A01B20948A0F84611A6
:105A800090ED210A5FED2C0A20EE200ABDEEC00A3F
:105A900010EE100A01B20248A0F8481110BD000033
:105AA0003C9003242DE9F04104460E4617461D465E
:105AB0000948007808B9BDE8F08140233A462146FC
:105AC0000648FBF7B4FF40232A4631460448FBF75B
:105AD000AEFF00BFEFE700003C900324C891032411
