:020000040800F2
:1000000080810524C502000883490108991B010865
:10001000814901080D7200081D9B010800000000C5
:10002000000000000000000000000000D562010890
:10003000117F0008000000003D4F0108F562010833
:10004000DF020008ED490108DF020008DF020008B6
:10005000DF020008DF0200080D830008DF0200084D
:10006000DF020008DF020008DF020008F179000863
:10007000FD790008097A0008157A0008217A00083D
:100080002D7A0008DF020008854A0008DF02000818
:10009000DF020008DF020008DF020008DF020008BC
:1000A000DF020008DF020008DF020008DF020008AC
:1000B000DF020008C5640108DF020008DF02000853
:1000C000DF020008DF020008DF020008016101080A
:1000D000DF020008DF020008D1750108DF02000816
:1000E00013830008DF02000800000000DF020008A0
:1000F000DF020008DF020008DF020008DF0200085C
:10010000DF020008DF020008DF020008DF0200084B
:10011000DF020008DF020008DF020008DF0200083B
:10012000DF020008DF020008397A0008457A00087B
:10013000517A0008DF020008DF020008DF02000831
:1001400000000000000000000000000000000000AF
:100150005D7A0008697A0008757A0008DF020008F5
:10016000DF020008DF020008DF020008DF020008EB
:10017000DF020008DF020008DF02000800000000C4
:10018000DF020008DF020008DF020008DF020008CB
:10019000DF020008DF02000815610108DF02000825
:1001A000DF020008DF020008DF020008DF020008AB
:1001B000DF020008DF020008DF020008DF0200089B
:1001C000DF020008DF020008DF020008DF0200088B
:1001D000DF020008E1490108DF020008DF02000831
:1001E000DF020008DF020008DF020008DF0200086B
:1001F000DF020008DF020008DF020008DF0200085B
:10020000DF020008DF020008DF020008DF0200084A
:10021000DF020008DF020008DF020008DF0200083A
:10022000DF020008DF020008DF0200080000000013
:10023000DF020008DF02000800000000DF02000803
:10024000DF0200084971000855710008617100085B
:100250006D710008DF020008DF020008DF020008FD
:10026000DF020008DF020008DF020008DF020008EA
:10027000DF020008DF020008DF02000800000000C3
:10028000DF020008DF020008DF02000800000000B3
:1002900000000000DF020008DFF810D000F088FC4A
:1002A0000048004785C70208AFF30080808105241D
:1002B000EFF308807047EFF3098070476846704796
:1002C000704670470648804706480047FEE7FEE74D
:1002D000FEE7FEE7FEE7FEE7FEE7FEE7FEE7FEE7F6
:1002E000D1630108990200082DE9F05F054600205E
:1002F00092469B4688460646814640241BE0284697
:1003000041464746224600F02FF853465A46C01A47
:10031000914110D311461846224600F016F82D1AC6
:1003200067EB01084F4622460120002100F00DF83E
:1003300017EB00094E41201EA4F10104DFDC484602
:1003400031462A464346BDE8F09F202A04DB203A86
:1003500000FA02F1002070479140C2F1200320FA18
:1003600003F3194390407047202A04DB203A21FA16
:1003700002F00021704721FA02F3D040C2F12002BE
:100380009140084319467047202A06DBCB17203AD4
:1003900041FA02F043EAE07306E041FA02F3D0408A
:1003A000C2F12002914008431946704710B5431A24
:1003B000934209D28318881803E010F8011D03F84E
:1003C000011D521EF9D210BD40EA01039B0703D064
:1003D00009E008C9121F08C0042AFAD203E011F884
:1003E000013B00F8013B521EF9D210BDD2B201E030
:1003F00000F8012B491EFBD270470022F6E710B52A
:1004000013460A4604461946FFF7F0FF204610BD82
:1004100010B5044604E00B7800F8013B03B1491C19
:10042000521EF8D2204610BD421C10F8011B0029B4
:10043000FBD1801A704710B5002200E0521C835C8B
:100440008C5CA34201D1002BF8D1D8B2E1B2401AA2
:1004500010BD30B504460020034600E05B1C93420B
:1004600003D2E05CCD5C401BF8D030BD034611F8F0
:10047000012B00F8012B002AF9D11846704730B53E
:1004800005460020034600E05B1C934205D2EC5C6D
:10049000C85C201A01D1002CF6D130BD10B54843FC
:1004A00004462CF093FA002805D00021002C02D03D
:1004B000641E0155FAE710BD0FB400B58DB010A948
:1004C00009900B9000914FF0FF300A9000200C90A3
:1004D00005480690054807906A4609A80F9900F05C
:1004E00069F90DB05DF814FBD1070008EF070008AB
:1004F0002DE9FF5F1D464FF0FF3BD5E901469146D0
:100500005F464FF00008A9697F1C01988847296A57
:10051000824688470028F6D1BAF1FF3F0CD024F478
:10052000C064002E19DD600614D5BAF12B0F09D076
:10053000BAF12D0F0ED103E0584604B0BDE8F09F8C
:1005400044F48064A9697F1C01988847761E82461E
:10055000002E02DDBAF1300F03D0B9F1000F26D022
:1005600032E0A969761E44F400747F1C0198884724
:100570008246002E05DDBAF1780F06D0BAF1580F89
:1005800003D0B9F1000F10D01EE0B9F1000F02D076
:10059000B9F1100F18D1A969761E24F400747F1CDC
:1005A000019888478246102002E0082000E00A20D7
:1005B000814609E008FB0908A969761E44F4007425
:1005C0007F1C019888478246002E05DD494650462B
:1005D00000F0DBF80028EDDAE96901988847A0050A
:1005E00002D46FF00100A8E7E00725D1600613D51B
:1005F000600502D5C8F1000000E0404629680A1DE8
:100600002A600968220501D5087015E0220701D586
:10061000088011E008600FE02868011D296000686B
:10062000210502D580F8008006E0210702D5A0F858
:10063000008001E0C0F8008038467EE72DE9FF5FCA
:10064000D2E901A74FF00008916999461446DDF8F8
:1006500038B0464601988847054659EA0B0005D050
:1006600009E0A169761C019888470546216A284659
:1006700088470028F5D1681C03D05FEACA7005D00E
:1006800015E04FF0FF3004B0BDE8F09F2068011D79
:100690002160D0F800800AE05FEACA7001D108F852
:1006A000015BA169761C7F1E019888470546002FD3
:1006B0001ADD681C18D0B9F1000F0DD0E81705EB52
:1006C000D060421120F01F0059F822102A1A012090
:1006D00090400142E0D107E0BBF1000FDCD1216A7C
:1006E000284688470028D7D0E16901988847BBF1A0
:1006F000000F07D1002E05DD5FEACA7002D100218C
:1007000088F80010A068B84203DDBBF1000F03D0E9
:1007100017B16FF00100B6E73046B4E710B500F04E
:10072000004420F00040C20DC0F3160040F4000069
:100730007F2A02DA0020014610BD0021962A03DC40
:10074000C2F19602D04002E0963AFFF7FEFD002C7F
:10075000F2D00023D0EB030063EB010110BD30B5F4
:100760000B46014600202022012409E021FA02F56F
:100770009D4205D303FA02F5491B04FA02F5284409
:10078000151EA2F10102F1DC30BD3A2800D230384A
:1007900020F02002412A01D3A2F13700884201D380
:1007A0004FF0FF3070470000026811441378016079
:1007B00018467047D1600449516104491162002113
:1007C0001161114600F00CBAA9070008D50B00080A
:1007D000426842B1016811F8013B23B1521EC0E9E1
:1007E0000012184670470121C160881E7047426898
:1007F0005AB1C368016843B983688B4205D0491E6A
:10080000521CC0E90012002070474FF0FF307047C3
:100810002DE9FE4F804681EA0300C00F0C46009090
:1008200021F0004123F00045B8EB0200A94105D2B8
:100830004046214690461C460B46024623F00040A7
:10084000104347D0270DC7F30A00C3F30A510290A3
:10085000401A019040286BDAC3F3130040F4801B68
:100860000098924620B10023D2EB030A63EB0B0BF6
:1008700001985946C0F140025046FFF766FD064612
:100880000D4650465946019AFFF77EFD10EB0800D1
:100890006141002487EA115284EAE7731A4340D089
:1008A000009A62B3019A012A4FEA075215DC001B35
:1008B00061EB02014FF0004202EA0752CDE900422B
:1008C000001C41F5801132462B4600F030FB03B08E
:1008D000BDE8F08F40462146F9E7001B61EB0201BD
:1008E000001C41F5801300185B412018A2F5001789
:1008F00047EB030140EAD570B6196D4111E06D0870
:100900004FEA360645EAC0754FEA0752001B61EB15
:100910000201001C41F5801149084FEA300000191E
:10092000514132462B4603B0BDE8F04F00F0F0BA1B
:100930000098012240000023D0EB020263EBE07339
:10094000009821464FEAE074B8EB000061EB040127
:10095000E9E783F000435BE781F0004158E72DE9C8
:10096000FE4F81EA030404F0004421F000410094AA
:100970004FF0000B23F0004350EA01045ED052EA2E
:1009800003045BD0C3F30A54C1F30A552C44A4F208
:10099000F3340194A0FB0254C1F3130141F480111C
:1009A000C3F3130343F4801301FB024400FB034E23
:1009B000840A970A44EA815447EA8357A4FB0768EC
:1009C00002958D0A05FB07854FEA932C04FB0C5416
:1009D0002705029D4FEA065847EA1637B5EB08058A
:1009E0006EEB070C870E920E47EA811742EA8312DC
:1009F000A7FB0201B6EB0B0164EB00042B0D43EAED
:100A00000C335E1844EB1C50DA465146E7FB0201FA
:100A1000C5F313044FEA0B3343EA14534FEA04328D
:100A2000019C43EA0603A4F10C040294009CCDE966
:100A300000B400F07CFA03B0BDE8F08F002001465E
:100A4000F9E72DE9F04D81EA030404F0004B21F0B1
:100A5000004514464FF0000A23F0004150EA050219
:100A600020D054EA01021DD0C5F30A570246C5F34F
:100A70001303C1F31300C1F30A5640F4801543F485
:100A80008013A7EB0608101BD64608F2FD3873EB5F
:100A9000050002D308F1010801E092185B41B8F1AA
:100AA000000F03DA00200146BDE8F08D00204FF46E
:100AB0008011064684460EE0171B73EB050705D32D
:100AC000121B63EB050306434CEA010C49084FEA8D
:100AD000300092185B4150EA0107EDD152EA030061
:100AE00012D082EA040083EA0501084305D0101BF6
:100AF000AB4106D20122002306E000224FF0004362
:100B000002E06FF0010253101AEB06004CEB0851A3
:100B100010EB0A0041EB0B01BDE8F04D00F0F8B915
:100B200070B521F0004303430CD0C1F30A550024F3
:100B3000D5EB040564EB0403D617AD1AB34102DB11
:100B40000020014670BD201841EB025170BDC1F379
:100B50000A52C1F3130140F2FF3341F480119A426B
:100B600002DA00200146704740F233439A42A2F273
:100B7000334202DC5242FFF7F7BBFFF7E6BB00004F
:100B800030B5041E71F1000404DB4FF00044404214
:100B900064EB0101141E73F1000405DB1C464FF0E9
:100BA0000043524263EB0403994208BF904230BDB8
:100BB000064C074D06E0E06840F0010394E80700AA
:100BC00098471034AC42F6D3FFF76AFBE0191108DE
:100BD000301A1108C0B24FF4F05100F0F7B900001C
:100BE0002DE9F34F8BB04FF0000801F10C000C46DB
:100BF0004FF0010B46460DF1080A01906269012190
:100C000001989047051E2DD0252D2CD0216A8847AC
:100C1000C0B16269012101989047216A8847002884
:100C2000F7D1411E62690198904700E0761CA169E6
:100C30000B988847216A88470028F7D1E1690B980B
:100C40008847DBE7A1690B9888470746A84201D18E
:100C5000761CD3E7E1690B9888477F1C02D1B8F175
:100C6000000F6FD047E1002762693D463946019881
:100C700090472A2804D162690121019890470125F3
:100C8000DFF888926269012101989047A0F1300154
:100C90000A290AD24F45E5DC07EB870100EB410743
:100CA000303FDFD445F01005ECE7E90601D46FF0E2
:100CB00000476C280AD04C2814D0682815D06A2820
:100CC0000DD074281CD07A281AD01DE06269012149
:100CD000019890476C2802D045F0040514E045F0D7
:100CE00002050DE045F020050AE062690121019846
:100CF0009047682802D045F0080505E045F40065F6
:100D00006269012101989047C4E9015765283DD0E7
:100D100019DC58287AD00CDC452837D004DC25288B
:100D200026D0412831D131E046282FD047282CD178
:100D30002CE05B2877D0612828D063287CD06428F9
:100D400023D15AE0D1E06F2848D008DC66281DD0B6
:100D500067281BD0692821D06E2816D127E070287B
:100D600045D0732868D0752847D078280DD14DE03C
:100D7000A1690B988847054625283FF469AFE169CA
:100D80000B9888476D1C3FF46AAFB4E023466A466F
:100D90006FF001000B99AFF300809FE045F0400039
:100DA0006060A80723464FF0000236D43EE0E80713
:100DB0007FF447AF2068011D21600068290501D537
:100DC00006701BE7290701D5068017E7A90703D599
:100DD000F117C0E9006111E706600FE745F0400038
:100DE0006060A80723464FF0080216D41EE040F6C4
:100DF0000E0125EA0100606016E045F040006060E9
:100E0000A80723464FF00A0207D40FE045F0400040
:100E10006060A80708D5234610226FF001000B99E7
:100E2000AFF300805AE007E0234610226FF0010084
:100E30000B99FFF75DFB51E04FF000094F464B4621
:100E4000632802D05B2807D041E02079C00601D496
:100E50000120A06001273AE06269012101989047D2
:100E60005E2805D14FF00109626949460198904713
:100E7000216939B900210A46534643F82120491C0B
:100E80000829FADBB0B3216969B9C11700EBD16257
:100E900053110AEB830122F01F02821A01200B6812
:100EA000904003430B6062690121019890475D28DF
:100EB000E8D1B9F1000F09D00020514651F82020A7
:100EC000D24341F82020401C0828F7DB02AB224621
:100ED00000976FF001000B99FFF7B0FB00280CDAC8
:100EE000401C08D1BBF1000F05D04FF0FF300DB012
:100EF000BDE8F08FFFE74046F9E7E90701D108F1C7
:100F0000010806444FF0000B78E60000CCCCCC0C76
:100F100010B5141E73F1000408DA401C41F1000101
:100F200092185B411A4301D120F0010010BD2DE958
:100F3000F04D92469B4611B1B1FA81F202E0B0FA4F
:100F400080F220329046FFF700FA04460F4640EA4E
:100F50000A0041EA0B0153465A46084313D0114692
:100F600053EA010019D0C8F140025046FFF7FCF9DE
:100F700005460E46504659464246FFF7E6F90843F5
:100F800005D0012004E020463946BDE8F08D002060
:100F9000054346EAE0762C4337430A986305E40AA2
:100FA000A0EB08000022FD0A44EA47540A3002D5AB
:100FB00000200146E9E7010510196941DDE908450E
:100FC00000196941BDE8F04DA2E700007F2801D972
:100FD000002208E0064A02EB5002C007127800D156
:100FE000120902F00F0201209040084070470000F3
:100FF000B0200F0870B58C1810F8015B15F00703CE
:1010000001D110F8013B2A1106D110F8012B03E0A1
:1010100010F8016B01F8016B5B1EF9D12B0705D4A9
:101020000023521E0DD401F8013BFAE710F8013BF2
:10103000CB1A921C03E013F8015B01F8015B521E0E
:10104000F9D5A142D8D3002070BD00000023002AAA
:10105000D8BF704700EB830CDCED000A01EB830C7A
:10106000F4EEC00AF1EE10FA34BF8CED000ACCEDBC
:10107000000A5B1C9342EDDB70470023002AD8BFB7
:10108000704700EB830CDCED000A01EB830CF4EEFF
:10109000C00AF1EE10FACCBF8CED000ACCED000ACC
:1010A0005B1C9342EDDB7047012290ED000A0129A1
:1010B000D8BF704700EB8203D3ED000AF4EEC00AFC
:1010C000F1EE10FA38BFB0EE600A521C8A42F1DB32
:1010D00070479FEDF60A00220029D8BF704700EB49
:1010E0008203521CD3ED000A914230EE800AF6DCF6
:1010F00070479FEDEE0A0022002913DD50F82230E0
:1011000000EE903A531C521CF8EEE00A914230EE89
:10111000C01A00EE903AF8EEE01AC1EE210A30EE65
:10112000800AEBDCBDEEC00A10EE100A70479FED9E
:10113000DF0A0022002913DD30F9123000EE903A68
:10114000531C521CF8EEE00A914230EEC01A00EE39
:10115000903AF8EEE01AC1EE210A30EE800AEBDC9C
:10116000BDEEC00A10EE100A00B270479FEDCF0A24
:1011700000220029CCBFB7EE001A704700EB8203B3
:10118000D3ED000A70EEC01A00EE902A521C914274
:10119000F8EEE00A30EE812AC1EE820A30EE800AD3
:1011A000ECDC70471CF0B0BE8842D8BF08467047E0
:1011B000884238BF084670478842A8BF0846704733
:1011C000884228BF084670470028B8BF4042704791
:1011D00002F05AB802F0C0BA002A08BF7047F0B453
:1011E000B34D002630F902CBBCF1000F1CDCCCF172
:1011F000000347F6FF74A342C8BF234603DC13F580
:10120000004FB8BF2B469CB2A6EB2C4347F6FF7CA1
:101210006345C8BF634603DC13F5004FB8BF2B46D8
:1012200044EA03430FFA83FC21F802CB521ED9D1C2
:10123000F0BC704701F020BE01F03EBE01F0C8BC1A
:1012400002F04EB9002B08BF704770B450F8044B41
:1012500051F804CB002684FB0C456FF0004CBCEB2E
:10126000040C76EB050CB8BF6FF0004406DB14F1FC
:10127000004C75F1FF3CB8BF4FF0004442F8044BFE
:101280005B1EE3D170BC7047002B08BF704770B481
:1012900050F8044B51F804CB0026A4FB0C45D4F1C4
:1012A000FF3C76EB050CB8BF4FF0FF3402DB002D9E
:1012B000B8BF002442F8044B5B1EE9D170BC7047F4
:1012C00002F086BE08B5DDF808C0CDF800C002F017
:1012D000FDFE08BD08B5DDF808C0CDF800C002F07D
:1012E000ADFE08BD2DE9F04706461D46C2F11F00C0
:1012F0000F46089C4FFA80F9002C14BF4FEAE7789C
:10130000BDE8F08756F8040BC217A0FB071302FBD9
:10131000073200FB08234A4608461946FFF734F80F
:101320006FF00041CA078842C8BF084603DCB0F12D
:10133000004FB8BF104645F8040B641EE2D1BDE86B
:10134000F08770B4C2F10F0256B2DDF80CC0BCF1E8
:10135000000F12BF564D70BC704730F8022B47F695
:10136000FF7412FB01F23241A242C8BF224603DCE5
:1013700012F5004FB8BF2A4623F8022BBCF1010C2E
:10138000EBD170BC70472DE9F04106461D46C2F115
:101390001F008846069C47B2002C08BFBDE8F081BC
:1013A00056F8040B3A46A0FB0801FEF7DDFF0023C8
:1013B000D0F1FF3273EB0102B8BF4FF0FF3002DB18
:1013C0000029B8BF002045F8040B641EE8D1BDE831
:1013D000F08100F049BB002B08BF704770B451F892
:1013E000044B50F804CBE6171CEB040446EBEC75F9
:1013F0004FF000066FF0004CBCEB040C76EB050CD4
:10140000B8BF6FF0004406DB14F1004C75F1FF3CEF
:10141000B8BF4FF0004442F8044B5B1EDFD170BCF4
:101420007047002B14BF4FF0000C7047F0B450F819
:10143000045B51F8044B00272C194CEB0C05D4F13C
:10144000FF3677EB0506B8BF4FF0FF3402DB002D07
:10145000B8BF002442F8044B5B1EE8D1F0BC7047D3
:1014600002F088B8002B08BF7047F0B4CE174FF0D9
:10147000000750F804CB1CEB010446EBEC756FF051
:10148000004CBCEB040C77EB050CB8BF6FF00044CC
:1014900006DB14F1004C75F1FF3CB8BF4FF000447F
:1014A00042F8044B5B1EE2D1F0BC70470000000024
:1014B0000080FFFF002B08BF704730B49C4D47F6FB
:1014C000FF7430F902CB1CEB010CA445C8BFA44645
:1014D00003DC1CF5004FB8BFAC4622F802CB5B1E04
:1014E000EDD130BC7047002B14BF4FF0000C70479B
:1014F000F0B450F8044B002764184CEB0C05D4F101
:10150000FF3677EB0506B8BF4FF0FF3402DB002D46
:10151000B8BF002442F8044B5B1EEAD1F0BC704710
:1015200002F0C2B802F094B800239C464DF8044D76
:1015300029B150F8044B491EC4FB043CF9D1C2E95F
:10154000003C5DF8044B704700239C464DF8044D69
:1015500029B130F9024B491EC4FB843CF9D1C2E9E0
:10156000003C5DF8044B70472DE9F0414FF0000658
:1015700090460C000546374609D035F9022B01206C
:101580000021FEF7E2FE86194F41641EF5D1C8E93D
:101590000067BDE8F08100F07DBE00F007BF00F0FD
:1015A000CBBE002A08BF704730B4D0F800C04368F3
:1015B00008308CFB0CC483FB03351CEB030344EBAA
:1015C000050C521EE1E8023CEFD130BC704700F040
:1015D000CDBF01F0A9B801F033B8002B08BF7047A8
:1015E000F0B451F804CB50F8044B6FF000460027DC
:1015F00084FB0C45361B77EB0506B8BF6FF0004443
:1016000006DB14F1004675F1FF36B8BF4FF0004419
:1016100042F8044B50F8044B002684FB0C456FF055
:10162000004CBCEB040C76EB050CB8BF6FF000442B
:1016300006DB14F1004C75F1FF3CB8BF4FF00044DD
:1016400042F8044B5B1ECCD1F0BC704702F0E0BD09
:1016500002F024BE02F041BE01F038BB01F07EBBB7
:1016600001F0A2BB704700F06DBA7047704702F0FE
:1016700044BC02F065BC6FF0050070472DE9FF4FD8
:1016800081B09A46002514468946DDF838B0DDE978
:101690000F68BBF1000FDCBF05B0BDE8F08F771C11
:1016A000C8F1000000900020002E09DD311A401C16
:1016B00004EB8102864252F8042C44F82120F5DC28
:1016C000019850F8250020600020002F03460146B5
:1016D00008DD5AF8212054F821C0491C8F42C2FB72
:1016E0000C03F6DCB8F1000F04DA009A1946FEF795
:1016F0004BFE03E042461946FEF727FE49F8250057
:101700006D1C5D45CFDB05B0BDE8F08F704701F083
:10171000EDBB70B504461D46049821800844A260C4
:101720008000011F1846FEF768FE656070BD00006E
:101730000080FFFFC748704730B4C64D40240022E8
:1017400035F812C030F812301CFB03F3DB131BB268
:1017500041F82230521CA242F2D3531E44BF30BC87
:10176000704735F8134030F812C014FB0CFC4FEAF8
:10177000EC3C0FFA8CFC41F822C0521C5B1EF0D5E9
:1017800030BC704730B4B34D4024002235F912C04C
:1017900050F822300CFB03F3DB1341F82230521CCB
:1017A000A242F3D3531E44BF30BC704735F91340F7
:1017B00050F822C004FB0CFC4FEAEC3C41F822C07C
:1017C000521C5B1EF2D530BC7047DFF888C2402344
:1017D00000224DF8044D9FEDA00A3CF9124000EEA6
:1017E000904A00EB8204F8EEE00A94ED001A01EB57
:1017F0008204521C60EE810A9A4260EE800AC4EDB7
:10180000000AEAD3531E44BF5DF8044B70473CF90D
:10181000134000EE904A00EB8204F8EEE00A94EDEB
:10182000001A01EB8204521C60EE810A5B1E60EE1E
:10183000800AC4ED000AEAD55DF8044B70472DE933
:10184000F04111F0010F0E4604462DED048BB7EE6A
:10185000008ADFED828AB6EE009A4FF000050EBFD7
:1018600006EBD677701C00EBD0771BD04EE000EE75
:10187000105AB8EEC00A30EE080A20EE281A00EE20
:10188000106AB8EEC00A70EE080A81EE200AFFF76F
:10189000E3FE38EE400A04EB85006D1C20EE090AD9
:1018A00080ED000AB5EB670FE1DB00200CE0C0EB38
:1018B000670104EB810111ED010A00EB6701401C97
:1018C00004EB810181ED000AB0EB670FEFDBBDECAB
:1018D000048BBDE8F08100EE105AB8EEC00A30EE7D
:1018E000080A60EE280A00EE106AB8EEC00A30EE70
:1018F000081A80EE810AFFF7A9FE38EE400A04EBD1
:1019000085006D1C20EE090A80ED000AB5EB670F1B
:10191000E1DB0120711E01EBD1710CE0C0EB610233
:1019200004EB820292ED000A00EB6102401C04EB22
:10193000820282ED000AB0EB610FEFDDBDEC048B9B
:10194000BDE8F0812DE9F04111F0010F0E4604468B
:101950004FF000052DED068BB7EE008ADFED3F9AC4
:101960009FED3F9ADFED3F8A08BF06EBD67720D088
:10197000701CB0EE68AA00EBD0774EE000EE105A73
:10198000B8EEC00A30EE080A60EE290A00EE106ACE
:10199000B8EEC00A30EE081A80EE810AFFF756FE54
:1019A000F0EE680A04EB850040EE490A6D1CC0EDBC
:1019B000000AB5EB670FE1DB01200CE0C0EB67012B
:1019C00004EB810111ED010A00EB6701401C04EBFF
:1019D000810181ED000AB0EB670FEFDDBDEC068BF6
:1019E000BDE8F08100EE105AB8EEC00A30EE080AE9
:1019F00060EE290A00EE106AB8EEC00A30EE081A4E
:101A000080EE810AFFF722FEF0EE4A8A04EB8500A1
:101A100040EE498A6D1CC0ED008AB5EB670FE1DB33
:101A20000120711E01EBD1710CE0C0EB610204EBEF
:101A3000820292ED000A00EB6102401C04EB82027C
:101A400082ED000AB0EB610FEFDDBDEC068BBDE867
:101A5000F0810000E013110800000038DB0FC940DE
:101A6000145CEC3EF6D1093FB0B50025B5EB930F01
:101A700031D04FEA930C00BF90ED000A91ED001AAF
:101A800030EE010A00F1100E82ED000A01F110049F
:101A900090ED010A91ED011A30EE010A02F11005F4
:101AA00082ED010ABCF1010C90ED020A91ED021ADF
:101AB00030EE010A82ED020A90ED030A91ED031A5D
:101AC00030EE010A704682ED030A2A462146D3D140
:101AD00021462A46704613F0030308BFB0BD00BF7D
:101AE000B0EC010AB1EC011A30EE010A151D013B00
:101AF00082ED000A2A46F3D1B0BD000070B501B3F3
:101B0000002300BF02EB430C32F813E00233BCF8B1
:101B100002C02EF0030E00EB0E048B422CF0030CDF
:101B200050F80E5050F80C6040F80E6000EB0C06B8
:101B300040F80C50D4F804C075686560C6F804C05D
:101B4000E0D370BD2DE9F041048816460746012A0E
:101B500098460D460CD1E4B3281D214690ED000AAD
:101B60000139B1EE400A80ED000A00F10800F5D11C
:101B7000FF2C0CDDB4F5806F10DBB4F5805F22D054
:101B8000B4F5006F11D0B4F5806F17D021E03F2C71
:101B900010DC102C12D0202C07D01AE0B4F5807F76
:101BA00003D0B4F5007F0ED013E03846294600F08C
:101BB0004BF90EE0402C06D0802C0AD1384629463D
:101BC00000F08AF805E07A6801232846214601F0F2
:101BD00061FEB8F1000F04D0B989BA682846FFF752
:101BE0008DFF012E1CD100EE104A002CB8EE400AE9
:101BF00008BFBDE8F081B7EE001A81EE000A00BF11
:101C000095ED001A95ED012A20EE011A013C22EE15
:101C1000402A85ED001A85ED012A05F10805EFD16E
:101C2000BDE8F0810022FF2942604FF0FF020180F1
:101C30000EDDB1F5806F16DB29D0B1F5805F2BD0BA
:101C4000B1F5006F46D148F27403C0F60F0336E0D9
:101C50003F2913DC102924D020293BD148F29403DA
:101C6000C0F60F032BE0B1F5807F1FD0B1F5007FE8
:101C700030D148F2B403C0F60F0320E040291AD057
:101C8000802927D148F25403C0F60F0317E048F229
:101C90004403C0F60F0312E048F2A403C0F60F039A
:101CA0000DE048F26403C0F60F0308E048F2840335
:101CB000C0F60F0303E048F2C403C0F60F03191D7A
:101CC00003F108020C33126882601B8800228381B2
:101CD0000968416050B270472DE9F047038880469B
:101CE0000846D8F804204FEA530901EB830A002183
:101CF000B1EBD30F00F09B80D90800270AEB890CC9
:101D000000EB890EC5190AEB07040EEB07030CEB79
:101D1000070695ED000A94ED003A95ED011A94ED51
:101D2000014A70EE035A95ED022A94ED025A93EDA2
:101D3000006AD6ED001AD6ED012AD6ED023AD6EDAC
:101D4000034AC5ED005A71EE045A93ED017AC5EDD0
:101D5000015A72EE055AD3ED020AC5ED025AD5EDCD
:101D6000035A30EE430A94ED033A75EE837AD3EDCD
:101D7000036AC5ED037A76EE217AC3ED007A77EE39
:101D8000227A31EE441AC3ED017A36EEA44AD5190F
:101D900070EEA37A83ED034A31EEC64AC3ED027AB0
:101DA00032EEC76A95ED017AD5ED001A61EE072A89
:101DB00021EE211A013940EE212A07F1100700EE29
:101DC000471A24EE070A06EE610A26EE077AC4EDEA
:101DD000002A04EE217A84ED011A32EE452A35EE0E
:101DE000C31A86ED000A33EEE00A34EEE63A86EDD9
:101DF000017A95ED034A95ED025A21EE046A21EE2F
:101E0000051A02EE056A02EE441A20EE042A23EEB9
:101E1000044A03EE452A84ED026A00EE054A84ED89
:101E2000031A86ED022A86ED034A7FF46BAF022384
:101E3000494601F02FFDD8F80420022350464946B8
:101E4000BDE8F04701F026BD2DE9F04F81B02DED42
:101E5000088B90B0B0F800C091ED000A91ED011A26
:101E600007464FEA5C0208460497930001EB82059F
:101E7000796805EB8206059195ED006A06EB820410
:101E800096ED002A96ED013A30EE424A4FEA9C0167
:101E900031EE435A009130EE020A95ED012A31EEFF
:101EA000031A6FF0010134EE027A94ED013A75EEF7
:101EB000460AD4ED001A70EE462A01EB9C0171EE41
:101EC000423A4FEA510930EE060A02EB420131EE86
:101ED000021A0C9034EE424A029535EE065A6FF023
:101EE000070737EE437A70EEA10A30EE210A31EE91
:101EF000031A80ED000A72EEE12A80ED011A73EEFA
:101F0000C33A85ED007A34EE034AC5ED010A35EE99
:101F1000612A6FF00305C6ED002AD0000F9005EB93
:101F2000C200039605EB820AC6ED013A07EB0212E6
:101F30000E9007EB810084ED004A00260A920027EC
:101F40000194002584ED012A8C000D900C9A0F98C5
:101F5000911902EB000C02EB030E02EB040891ED69
:101F6000020A9CED022A30EE426ADEED030A30EEF0
:101F7000020ADEED021AD8ED032A91ED031A36EEBD
:101F8000202A9CED033A31EE437AD8ED023A31EE45
:101F9000031A0B9332EE624A099430EE612A059AD5
:101FA00030EE210A089637EE615A164431EE603A57
:101FB000D41930EE230AB9F1000F36EE606A81EDD4
:101FC000020A37EE217A9EED030A71EE000A02EB57
:101FD000050B35EE235A079732EE632A069533EE4A
:101FE000623A36EE220A98ED036A37EE631A30EE53
:101FF000866A81ED036A00F0B580DDE90C014718BF
:1020000000EB0A030E99A9F1010993ED006A97ED1F
:10201000017A014476EE070A0A9A53ED011AD1EDCE
:10202000002A851870EEA24AD7ED003A36EE476ACC
:1020300095ED017A71EEA35A51ED016A74EE874A6B
:10204000D5ED007AC3ED004A71EEE31A51ED014A75
:10205000D5ED003A75EEA44A0F9836EE668A083040
:10206000083AAAF1080A74EEA33A72EEC74A43EDA1
:10207000013A78EE273A96ED038A96ED029A25EE1C
:1020800008AA31EEA4BA0B9B25EE095A0F9004EE74
:10209000485A089E04EE09AA083323EE884A0836F7
:1020A0002BEE088A0BEE494A8EED035A03EE898A1D
:1020B0008EED02AA30EEE25A75EEE63A81ED004A64
:1020C00001ED018A35EE475A94ED057AD4ED040A04
:1020D00033EEE74A099C63EE072A083423EE203AE0
:1020E00002EE473A42EE202A25EE602A04EE472A05
:1020F00025EE075A8CED033A04EE605ACCED022A25
:1021000037EEE63A87ED012A34EEE12A33EE463A1D
:1021100087ED005A9BED074A9BED065A21EE046AB3
:10212000079F21EE051A103700EE056A00EE441AEB
:1021300023EE040A22EE044A02EE450A88ED026A02
:1021400003EE054A88ED031A85ED010A85ED004A84
:10215000069D0A9218350D9808380D900E9808388B
:102160000E90F3E696ED036A96ED027A65EE060AA6
:10217000009D25EE075A042344EE070A0C9804EE4E
:10218000465A2946059ACEED020A8EED035A94ED81
:10219000054A94ED045A23EE046A23EE053A02EE52
:1021A000056A02EE443A8CED026A8CED033A9BED2F
:1021B000072A9BED063A21EE024A21EE031A00EEB1
:1021C000034A00EE421A88ED024A88ED031A01F034
:1021D00061FB049C042302982946626801F05AFBC3
:1021E000626804230398294601F054FB62680423C3
:1021F0000198294610B0BDEC088B01B0BDE8F04F46
:1022000001F048BB80B50023B3EB920F2DD04FEA0D
:10221000920C00BF03680B6090ED010A00F1200EE4
:10222000B1EE400ABCF1010C81ED010A83688B60BC
:1022300090ED030AB1EE400A81ED030A03690B61D8
:1022400090ED050AB1EE400A81ED050A83698B61C4
:1022500090ED070A01F12003B1EE400A704681EDCE
:10226000070A1946D6D11946704612F0030208BF74
:1022700080BD00BF03680B6090ED010A013AB1EE2A
:10228000400A00F1080081ED010A01F10801F1D1D5
:1022900080BD000080B50023B3EB920F35D04FEA2C
:1022A000920C00BF90ED010A90ED001A20EE000A9A
:1022B00000F1200E01EE010A01F11003BCF1010C46
:1022C00081ED000A90ED030A90ED021A20EE000A5B
:1022D00001EE010A81ED010A90ED050A90ED041A64
:1022E00020EE000A01EE010A81ED020A90ED070AD4
:1022F00090ED061A20EE000A704601EE010A81ED0B
:10230000030A1946CED11946704612F0030208BFDF
:1023100080BD00BF90ED010A90ED001A20EE000A8A
:102320000B1D01EE010A013A00F1080081ED000ADF
:102330001946EFD180BD000010B50023B3EB920F1A
:1023400023D04FEA920C00BF036801F10804BCF1EE
:10235000010C23FB03F34FEA63430B80436823FB29
:1023600003F34FEA63434B80836823FB03F34FEA95
:1023700063438B80C36800F1100023FB03FE4FEA28
:102380006E43CB802146DFD1214612F0030208BF05
:1023900010BD00BF50F8043B013A23FB03F34FEAA2
:1023A000634321F8023BF5D110BD000010B50023B6
:1023B000B3EB920F39D04FEA920C00BFD0E9003E48
:1023C000BCF1010C53FB03F45EFB0EF300F1200E95
:1023D0004FEA530303EB54030B60D0E9023453FB81
:1023E00003F354FB04F44FEA540404EB53034B602F
:1023F000D0E9043453FB03F354FB04F44FEA5404D0
:1024000004EB53038B60D0E9064353FB03F354FB07
:1024100004F44FEA530001F1100300EB5400C860CC
:1024200070461946CAD11946704612F0030208BF19
:1024300010BD00BFD0E90034013A00F1080053FBA1
:1024400003F354FB04F44FEA540404EB530341F840
:10245000043BEFD110BD0000B0B50025B5EB930FE4
:1024600061D04FEA930C00BF90ED000A90ED011A85
:1024700091ED002A91ED013A20EE024A00F1200E82
:1024800001EE434A01F1200420EE030A02F1200587
:1024900001EE020ABCF1010C82ED004A82ED010A54
:1024A00090ED020A90ED031A91ED022A91ED033AA4
:1024B00020EE024A01EE434A20EE030A01EE020A30
:1024C00082ED024A82ED030A90ED040A90ED051AAE
:1024D00091ED042A91ED053A20EE024A01EE434ABD
:1024E00020EE030A01EE020A82ED044A82ED050A9B
:1024F00090ED060A90ED071A91ED062A91ED073A44
:1025000020EE024A704601EE434A214620EE030ABD
:1025100001EE020A82ED064A82ED070A2A46A3D19D
:1025200021462A46704613F0030308BFB0BD00BF22
:1025300090ED000A90ED011A91ED002A91ED013A1B
:1025400020EE024A013B01EE434A00F1080020EE72
:10255000030A01F1080101EE020A82ED004A82ED50
:10256000010A02F10802E3D1B0BD0000B0B50025B8
:10257000B5EB930F49D04FEA930C00BF91ED000AE1
:1025800090ED001A20EE011A01F1100E82ED001AF2
:1025900000F1200490ED011A02F1200520EE010A5D
:1025A000BCF1010C82ED010A91ED010A90ED021AD5
:1025B00020EE011A82ED021A90ED031A20EE010AB4
:1025C00082ED030A91ED020A90ED041A20EE011A41
:1025D00082ED041A90ED051A20EE010A82ED050A3B
:1025E00091ED030A90ED061A20EE011A714682ED74
:1025F000061A90ED071A204620EE010A82ED070A1E
:102600002A46BBD171462A46204613F0030308BF71
:10261000B0BD00BF91ED000A90ED001A20EE011A46
:10262000043182ED001A013B90ED011A00F108001F
:1026300020EE010A82ED010A02F10802EAD1B0BDE2
:10264000F0B54FF0000CBCEB930F4DD04FEA930C5C
:10265000D0F800E00C684568BCF1010C14FB0EF6E4
:1026600014FB1EFE15FB14F74FEAE63614FB35F497
:102670004FEAEE354FEAE7374FEAE43406F30F0648
:1026800005F30F0507F30F0704F30F04C6EA054629
:102690001660C7EA0447576087684E68C56800F14E
:1026A000100016FB07F401F1080116FB17F715FBE4
:1026B00016FE4FEAE43416FB35F54FEAE7364FEAEB
:1026C000EE374FEAE53504F30F0406F30F0607F380
:1026D0000F0705F30F05C4EA06469660C7EA0547EB
:1026E000D76002F11002B3D113F0030308BFF0BDAD
:1026F00031F9027BB0F90060013B07FB06F64FEAB7
:10270000E63606F30F061680B0F9026000F1040009
:1027100006FB07F74FEAE73707F30F07578002F189
:102720000402E5D1F0BD0000B0B50025B5EB930F74
:1027300055D04FEA930C00BF0D68046800F1200EDD
:10274000BCF1010C54FB05F404F31E044FEA4404ED
:102750001460446854FB05F505F31E054FEA450572
:1027600055604D68846854FB05F404F31E044FEA79
:1027700044049460C46854FB05F505F31E054FEA54
:102780004505D5608D68046954FB05F404F31E0407
:102790004FEA44041461446954FB05F505F31E0532
:1027A0004FEA45055561CD68846954FB05F404F38F
:1027B0001E044FEA44049461C46954FB05F501F119
:1027C0001004214605F31E0002F120054FEA4000E7
:1027D000D06170462A46AFD121462A46704613F092
:1027E000030308BFB0BD00BF51F8045B0468013BA0
:1027F00054FB05F404F31E044FEA440414604468D7
:1028000000F1080054FB05F505F31E054FEA4505E8
:10281000556002F10802E7D1B0BD00002DE9F04F8C
:1028200084B0924680469E4699423EBF904682467C
:102830008E469942DDF834B038BF1946BEF1010921
:10284000A1EB090600F0EB8001219FEDE00A4FF0BB
:10285000000C534648460196B0EE401ABCEB910F6F
:1028600042461F4628D021F003028C08B0EE401AE1
:102870001E4608EB82024546A3EB041795ED002A9D
:1028800096ED003A02EE031A95ED012A16ED013A93
:10289000013C02EE031A95ED022A16ED023A02EE11
:1028A000031A95ED032A16ED033A05F11005A6F17A
:1028B000100602EE031AE1D111F003040AD000BFA2
:1028C00092ED002A97ED003A02EE031A0432043F1B
:1028D000013CF5D10BF104048BED001A013803F132
:1028E000040301F10101A346B6D1BEF1030FCDF8F7
:1028F00000A00AEB890A40F2958001990025B5EB0A
:10290000910F00F0B8802EF003008E08A9EB0000B4
:102910004FEA9E0103914EF00301009A0EF0030B63
:1029200000259FEDAA0A02EB8000C44608EB810255
:1029300021460290B0EE402AB0EE403AB0EE404A56
:10294000B0EE401A9CED006A9CED015A9CED027AB3
:102950000CF10C0453460398D3ED000AD4ED001A91
:1029600006EE202A94ED016A05EE203A013807EEC2
:10297000204A00EEA11A53ED010A05EE202A94ED3B
:10298000025A07EE203A01EEA04A00EE861A53EDF5
:10299000020A07EE202A94ED037A01EEA03A04F130
:1029A000100406EE204A00EE851A53ED030A01EEEC
:1029B000A02AA3F1100306EE203A05EE204A00EE0D
:1029C000871AC9D1BBF1000F16D05846029B174693
:1029D000D3ED000A043B06EE202AB0EE456A05EE70
:1029E000203AB0EE475A07EE204A97ED007A00EE03
:1029F000871A04370138EBD1043501F1100481ED59
:102A0000002A013E81ED013A08EB850C81ED024A76
:102A100002F1100281ED031A21468BD12CE00AEB62
:102A2000890A01E0A346019E1EB300209FED670ABC
:102A300031464246B0EE401ABEF1000F0ED0B0EE65
:102A4000401A7346574600BF92ED002A97ED003AB0
:102A500002EE031A0432043F013BF5D101300BF1C1
:102A6000040401398BED001A08EB8002A346E1D182
:102A700058E05C4656E0C446019810F0030150D07F
:102A80002EF0030B009BA9EB0B024FEA9E000EF009
:102A900003079FED4E0A03EB820E00BF30B3B0EE8A
:102AA000401A03465246664696ED002A92ED003AD9
:102AB00002EE031A96ED012A12ED013A013B02EEF5
:102AC000031A96ED022A12ED023A02EE031A96ED6F
:102AD000032A12ED033A06F11006A2F1100202EEEB
:102AE000031AE1D10CEB8B0C724602E05246B0EEB9
:102AF000401A67B13B4600BF9CED002A92ED003AB8
:102B000002EE031A0CF1040C043A013BF4D1013536
:102B1000221D013984ED001A08EB850C1446BDD145
:102B20001446019EB9F1000F4DD008EB86059FEDCC
:102B3000270A0021B0EE401AB1EB990F2A465346FE
:102B40002AD029F003004FEA9907B0EE401A564602
:102B500005EB80022846AAEB071300BF90ED002A80
:102B600096ED003A02EE031A90ED012A16ED013AB5
:102B7000013F02EE031A90ED022A16ED023A02EE30
:102B8000031A90ED032A16ED033A00F11000A6F1A6
:102B9000100602EE031AE1D119F003000AD000BFBB
:102BA00092ED002A93ED003A02EE031A0432043B40
:102BB0000138F5D1201DB9F1010984ED001A05F1A4
:102BC00004050446B6D104B0BDE8F08F0000000053
:102BD00010B50023B3EB920F12D0940803680B607A
:102BE00043684B6083688B6000F1100C01F1100E9C
:102BF000013CC068C86060467146EFD171466046CE
:102C000012F0030208BF10BD013A50F8043B41F82E
:102C1000043BF9D110BD00000023B3EB920F0BD0A1
:102C20004FEA920C03680B6043680830BCF1010C5A
:102C30004B6001F10801F5D112F0030208BF7047A3
:102C400030F8023B013A21F8023BF9D1704700000D
:102C500010B50023B3EB920F12D0940803680B60F9
:102C600043684B6083688B6000F1100C01F1100E1B
:102C7000013CC068C86060467146EFD1714660464D
:102C800012F0030208BF10BD013A50F8043B41F8AE
:102C9000043BF9D110BD00000023B3EB920F08D024
:102CA0004FEA920CBCF1010C50F8043B41F8043B94
:102CB000F8D112F0030208BF704700BF10F8013BC3
:102CC000013A01F8013BF9D1704700009FED201A4D
:102CD000B5EE002A00EE012A9FED1E1ABDEEC20AD3
:102CE000B5EE402AF1EE10FA10EE100AB8BF013826
:102CF00000EE100A0020B8EEC00A32EE400A9FED46
:102D0000162A20EE010ABCEEC01A30EE022A11EE9D
:102D1000101AB0EB512F48F2D40018BF002100FE6A
:102D2000020AC0F60F0001EE101A00EB810090EDD0
:102D3000012A90ED003AB8EE411A30EE410AB7EEA2
:102D4000001A31EE401A20EE020A01EE030A704723
:102D500083F9223E00000044000000C400F5005149
:102D60000AB2002A4FF4FC4248BFA0F5C04108B2A5
:102D700002EA412148F6D8028009C0F60F0202EBB0
:102D8000400332F91000C1F50042B3F9023050435C
:102D90000022C7F6FF72104013FB01006FF0010123
:102DA00001EAD03000B2704780B510F1005148F60A
:102DB000DC4348BF00F120414FF60062C0F60F032C
:102DC000880DC7F6FF7202EA412153F8202003EB79
:102DD000800CC1F10043A2FB030ED017DCF80420E5
:102DE00000FB03E051FB0200400080BDB0B50025B0
:102DF000B5EB920F2AD022F0030E94089FED1D0A26
:102E00000D4600EB8E0C00BF90ED001A95ED002AE8
:102E100001EE020A90ED011A95ED012A013C01EE46
:102E2000020A90ED021A95ED022A01EE020A90EDD7
:102E3000031A95ED032A00F1100005F1100501EECB
:102E4000020AE1D101EB8E01604601E09FED090A23
:102E500012F003020AD000BF90ED001A91ED002A93
:102E600001EE020A04300431013AF5D183ED000A83
:102E7000B0BD00BF000000000022B2EB910F0FD0E8
:102E80008A0800BF00F1100380ED000A80ED010AFE
:102E9000013A80ED020A80ED030A1846F2D1184685
:102EA00011F0030108BF7047021D013980ED000ACF
:102EB0001046F9D1704700000023B3EB920F0BD0FE
:102EC000930800BF01F1100C0860C1E90100013B4B
:102ED000C8606146F6D1614612F0030208BF704730
:102EE000013A41F8040BFBD1704700002DE9F04F87
:102EF00081B02DED048B86B0B0F800E0D0F804C0AE
:102F00000027D0F808A0AEF10106B7EBD30F029668
:102F10000CEB860B019300F05D81DE082EF00700BC
:102F20004EF007034FEADE090EF007080AEB8000B7
:102F300003900CEB83049FEDD30A6046CDE9048E29
:102F40000B68CBF800304B68CBF804308B68CBF8BB
:102F50000830CB68CBF80C300B69CBF810304B69DC
:102F6000CBF814308B69CBF81830CB69CBF81C3018
:102F7000D0ED006AD0ED015AD0ED027AD0ED031AFF
:102F8000D0ED042AB9F1000FD0ED053AD0ED064A94
:102F900000F0C680B0EE401AB0EE402AB0EE403AE3
:102FA000B0EE404AB0EE405AB0EE406AB0EE407A21
:102FB000F0EE400A4FF0000E4F4600BF0AEB0E083D
:102FC00000EB0E03B9F101090EF1200E98ED009A05
:102FD00093ED078A46EE890AD3ED086A05EE897AF1
:102FE00007EE896A01EE895A02EE894A03EE893AB0
:102FF00004EE892A09EE081A98ED019A45EE890A2D
:10300000D3ED095A07EE897A01EE896A02EE895AF0
:1030100003EE894A04EE893A08EE092A09EE261AD7
:1030200098ED029A47EE890AD3ED0A7A01EE897A81
:1030300002EE896A03EE895A04EE894A08EE093ADB
:1030400006EE892A09EE251A98ED039A41EE890ABF
:10305000D3ED0B1A02EE897A03EE896A04EE895ADF
:1030600008EE094A06EE893A05EE892A09EE271A82
:1030700098ED049A42EE890AD3ED0C2A03EE897A80
:1030800004EE896A08EE095A06EE894A05EE893A85
:1030900007EE892A09EE211A98ED059A43EE890A6E
:1030A000D3ED0D3A04EE897A08EE096A06EE895AE4
:1030B00005EE894A07EE893A01EE892A09EE221ABD
:1030C00098ED069A44EE890AD3ED0E4A08EE097A85
:1030D00006EE896A05EE895A07EE894A01EE893AB9
:1030E00002EE892A09EE231A98ED079A48EE090A9A
:1030F00006EE897A05EE896A07EE895A01EE894A59
:1031000002EE893A03EE892A09EE241A7FF456AFBB
:103110002346039DDDF814E0B946DDF8108012E087
:1031200000F11C035546F0EE400AB0EE407AB0EED6
:10313000406AB0EE405AB0EE404AB0EE403AB0EECF
:10314000402AB0EE401AB8F1000F01F120010BF156
:10315000200B25D0474600BF95ED008A043546EE8A
:10316000880AF0EE656A05EE887AF0EE675A07EE97
:10317000886AF0EE617A01EE885AF0EE621A02EE89
:10318000884AF0EE632AF0EE643A04EE882AD3ED22
:10319000004A043302EE883A013F08EE241ADBD1DC
:1031A00002F12003C2ED000A82ED017A203082EDA7
:1031B000026A013E82ED035A04F1200482ED044AC2
:1031C00082ED053A82ED062A82ED071A1A467FF44F
:1031D000B7AE01E060461346019A12F0070224D010
:1031E0009FED280AB0EE401ABEF1000F51F8047BA3
:1031F0004BF8047B11D0B0EE401A0027754600BF93
:103200000AEB0704C619013D07F1040796ED002AF1
:1032100094ED003A02EE031AF2D11F1D013A83ED3C
:10322000001A00F104003B46DCD1029F0021B1EB03
:10323000970F17D0B90800BF0268CCF80020426889
:10324000CCF804208268CCF8082000F110020CF1C0
:1032500010030139C068CCF80C009C461046EBD135
:1032600010469C4617F0030106D000BF013950F804
:10327000042B4CF8042BF9D106B0BDEC048B01B043
:10328000BDE8F08F0000000080B50023B3EB920F83
:103290005DD0BEEE000AB6EE001A4FEA920C9FED2A
:1032A0003D2A00BF90ED003A90ED014A23EE023A2C
:1032B00090ED036A24EE024A26EE026AB5EE403A29
:1032C000F1EE10FAB5EE404A31FE005AF1EE10FA76
:1032D00033EE053A90ED025A31FE007A103025EEB9
:1032E000025ABDEEC33AB5EE405A13EE103A34EE30
:1032F000073AF1EE10FAB5EE406A31FE004A03F3E8
:103300000F030B80BDEEC33AF1EE10FA13EE103A44
:1033100035EE043A31FE004ABCF1010C03F30F0311
:1033200036EE044A4B80BDEEC33A13EE103A03F377
:103330000F038B80BDEEC43A13EE103A03F30F0E69
:1033400001F10803A1F806E01946ABD1194612F0C5
:10335000030208BF80BDBEEE000AB6EE001A9FED64
:103360000D2A00BF90ED003A043023EE023AB5EE8C
:10337000403AF1EE10FA31FE004A013A33EE043AD7
:10338000BDEEC33A13EE103A03F30F0321F8023BEC
:10339000E8D180BD000000472DE9F0412DED0C8BF8
:1033A00000239046B3EB920F0C4605466CD0BEEE60
:1033B000008AB6EE009A4FEA98079FED48AA6FF090
:1033C000004600BF95ED000A95ED01BA20EE0A0A0D
:1033D00095ED02CA95ED03DAB5EE400AF1EE10FA6A
:1033E00039FE081A30EE010A10EE100AFDF796F9C0
:1033F0002BEE0A0AB1EBE07F18BF86EAE170B5EE6A
:10340000400A2060F1EE10FA39FE081A30EE010A87
:1034100010EE101A0846FDF781F92CEE0A0AB1EBFE
:10342000E07F18BF86EAE170B5EE400A6060F1EE19
:1034300010FA39FE081A30EE010A10EE101A08468A
:10344000FDF76CF92DEE0A0AB1EBE07F18BF86EAB2
:10345000E1701035B5EE400AA060F1EE10FA39FEC9
:10346000081A30EE010A10EE101A0846FDF756F958
:10347000B1EBE07F18BF86EAE17004F11001013F73
:10348000E0600C469ED10C4618F0030622D0BEEE3A
:10349000008AB6EE009A9FED11AA6FF0004700BFB8
:1034A00095ED000A043520EE0A0AB5EE400AF1EE69
:1034B00010FA39FE081A30EE010A10EE100AFDF774
:1034C0002DF9B1EBE07F18BF87EAE170013E44F8C7
:1034D000040BE5D1BDEC0C8BBDE8F0810000004F82
:1034E000B0B50025B5EB930F31D04FEA930C00BF78
:1034F00090ED000A91ED001A20EE010A00F1100E85
:1035000082ED000A01F1100490ED010A91ED011A1B
:1035100020EE010A02F1100582ED010ABCF1010C56
:1035200090ED020A91ED021A20EE010A82ED020AE4
:1035300090ED030A91ED031A20EE010A704682ED28
:10354000030A2A462146D3D121462A46704613F063
:10355000030308BFB0BD00BFB0EC010AB1EC011A13
:1035600020EE010A151D013B82ED000A2A46F3D127
:10357000B0BD000080B50023B3EB920F22D09308BA
:1035800090ED001A00F1100C31EE001A01F1100E4E
:1035900081ED001A013B90ED011A31EE001A81ED28
:1035A000011A90ED021A31EE001A81ED021A90ED27
:1035B000031A604631EE001A81ED031A7146DFD11D
:1035C0007146604612F0030208BF80BDB0EC011ADC
:1035D00031EE001A0B1D013A81ED001A1946F5D1A2
:1035E00080BD000080B50023B3EB910F1ED04FEAE1
:1035F000910E21F0030C9FED150A034693ED001A7E
:10360000BEF1010E01EE010A93ED011A01EE010A6D
:1036100093ED021A01EE010A93ED031A03F1100370
:1036200001EE010AEAD100EB8C0001E09FED070AF0
:1036300011F0030107D000BF90ED001A043001EE35
:10364000010A0139F8D182ED000A80BD00000000B6
:10365000F0B54FF0000CBCEB910F15D04FEA910E76
:1036600021F003044FF0000C002305462E686F681C
:10367000BEF1010E05F10805C6FBC6C3C7FBC7C3F3
:10368000F4D100EB440000E0002311F0030108D066
:1036900030F9027B7F431CEB070C43F10003013937
:1036A000F6D1C2E900C3F0BD2DE9F0474FF0000CA0
:1036B000BCEB910F39D04FEA910E21F003084FF087
:1036C000000C0023054600BF2E68D5E9014986FBA2
:1036D0000667B60B46EA874A84FB0446BF0B1CEB21
:1036E0000A0C4FEA9434D5F80CA044EA86447B4196
:1036F0001CEB040C89FB094743EB963910358AFB18
:103700000A63A40B44EA8744B60B14EB0C0446EAA4
:10371000834649EB973714EB060C47EB9333BEF126
:10372000010ED1D100EB880000E0002311F003016D
:103730000DD000BF50F8047B87FB0776BF0B47EA2C
:103740008647B60B1CEB070C73410139F2D1C2E975
:1037500000C3BDE8F0870000B0B50023B3EB920FC3
:1037600035D04FEA920C9FED250A00BFB0F900302A
:10377000B0F90440B0F902E0B0F9065001EE103A99
:1037800001F11003BCF1010C00F10800B8EEC11A00
:1037900021EE001A81ED001A01EE10EAB8EEC11A0E
:1037A00021EE001A81ED011A01EE104AB8EEC11A9D
:1037B00021EE001A81ED021A01EE105AB8EEC11A7C
:1037C00021EE001A81ED031A1946CFD1194612F0E5
:1037D000030208BFB0BD9FED090A00BF30F9023BEC
:1037E000013A01EE103A01F10403B8EEC11A21EEDC
:1037F000001A81ED001A1946F0D1B0BD0000003862
:103800000023B3EB920F2CD04FEA920C9FED200ACD
:1038100090ED001A90ED012A90ED023A90ED034AE6
:10382000B8EEC11A01F11003BCF1010C00F1100057
:1038300021EE001A81ED001AB8EEC21A21EE001A2C
:1038400081ED011AB8EEC31A21EE001A81ED021AB9
:10385000B8EEC41A21EE001A81ED031A1946D7D129
:10386000194612F0030208BF70479FED090A00BF16
:1038700050F8043B013A01EE103A01F10403B8EEAE
:10388000C11A21EE001A81ED001A1946F0D17047D5
:10389000000000302DE9F04F81B02DED108B94B079
:1038A0009FED050A0C46CDE90232009004300190EC
:1038B0000846109102E000BFF304353F4FEAD40CF4
:1038C000CDF818C04FEACC064FF0000B0CEB8C0281
:1038D0000C94A6EBD40013960CEB4C0ED200C00057
:1038E0000F904FEA0E114FEA4C174FEA0C10944616
:1038F000019AE5004FEACE03CDE91175CDE90A3012
:1039000002EB070A02EB060802EB0C0E14180A98E9
:1039100012ED011A1AED012A551802EB00090F9851
:1039200031EE023A1EED014A31EE421A18ED012A3B
:10393000104432EE045A32EE442A14ED014A15EDD9
:10394000016A50ED010A34EE067ADAED003A34EEFF
:10395000464A19ED016A76EE201ADEED005A36EE7F
:10396000606A90ED008A73EE070A139E75EE212AB5
:1039700033EE473A92ED007A35EE615A70EEA21AB4
:1039800070EEE20AD8ED002A77EE234A42ED011AE2
:1039900037EE637AD4ED003A72EEA56A4AED010A79
:1039A00072EEE52AD5ED005A73EEA57A73EEE53A8C
:1039B000D9ED005A35EE889A75EEC85A34EEA78ACA
:1039C00036EE89AA74EEE74A76EEC96A78EE0A7A8C
:1039D00038EE4A8AC2ED007A32EE46AA8AED008AB3
:1039E00033EE269A33EE663A04ED019A74EEC56A18
:1039F00005ED013A35EE245AC4ED006A72EEE54A4F
:103A000085ED005A72EEA52A0C9C32EE062AA344DC
:103A10002AEE006A62EE801A22EE002A71EE465A01
:103A200031EE061A24EE806A73EEA12A74EE420A81
:103A300034EE022A37EE464A37EE066A33EEE13AB2
:103A400031EE225A31EE621A08ED015A36EE425A30
:103A500000ED011A32EE061A88ED005A80ED001AC8
:103A600035EE831A0EED011A34EE601A8EED001A4F
:103A700035EEC31ADDE91175109809ED011A30EE23
:103A8000841A83450B982A4489ED001AFFF438AF55
:103A9000402CC0F0888106980123CDE90DC1C0EB10
:103AA000C00002994FF0000C009E89B20591C00041
:103AB000049000BF059807968444039D4FEACC000C
:103AC00008900CEB4C00CDF824C005EBCC0B9FED1F
:103AD000B91A05EBC0020CEB8C049BED000A05EB58
:103AE0004C1792ED003A4FEAC40B8DED0F0A05EB2F
:103AF000C40297ED004A05EB0014089FCCEBCC0103
:103B000092ED005A4FEA0C1E94ED006A4FEAC0098C
:103B10003C1D05EB0C1809F104074FEA4C1A2F4421
:103B2000CA002C4405EBC10C0EF10401294400012C
:103B3000D7ED002A0AF10407D1ED001A0BF10401B8
:103B400004300432D4ED000AEC196F1828442A44DA
:103B500098ED002A9CED007A0C99D4ED003AD7ED4F
:103B6000004AD0ED005AD2ED006AB446DDF810806C
:103B7000DDE90A76089300BF11980E9D0CEB000456
:103B800013980CEB00020D986044DCED027A94ED82
:103B9000028A0CEB060B0CEB050937EE88BA77EEC0
:103BA000C87A92ED028A90ED029A0CEB070E0CEBAC
:103BB000080A38EE09CA38EE49AA9BED028A99ED47
:103BC000029A9AED02EA38EE09DAD0ED03AA38EE4D
:103BD000499A9EED028A38EE0EFAD9ED03CA7BEEC1
:103BE0000D8ADAED03EA38EE4EEA0B447CEE0F9ACA
:103BF0003BEE4DBA3CEE4FCA9CED03FA38EEA98A73
:103C000038EEE9DAD4ED038A7FEE289A8CED028A49
:103C10003FEE68FAD2ED038A78EEAABA78EEEA8A25
:103C2000DBED03AA7AEEACDA7AEEECAADEED03CA9B
:103C30007CEEAEFA7CEEEECA79EEEDEA3BEEEF0AF0
:103C400079EEAD9A7BEEAFBA7BEE00DA3BEE400A3E
:103C500039EEABBA79EEEB9A8CED03BA7EEECCBAC4
:103C60003CEE2ECA7AEE4EFA63EEA9EA64EE299A89
:103C700044EE0DEA43EECD9A22EE2DDA01EEABDAF8
:103C800062EE2BBAC4ED02EA41EEEDBAC4ED039A3E
:103C900066EE00DA45EE8CDA8BED02DA26EE0CCA1F
:103CA00005EEC0CACBED03BA3AEE0E0A2FEE81AA9A
:103CB000C9ED02DA38EEECEA78EEAC8A89ED03CA97
:103CC00077EECACA77EE8A7A20EE010A2EEE01AAB2
:103CD00028EE81EA79EE408A39EE000A3FEE4A9AF0
:103CE0007AEE8EFA3FEE0AAA3AEECEEA37EEAFFA55
:103CF00077EEEF7ADDED0FFA7CEE8EAA3CEECEEA9F
:103D00007AEE40CA30EE0A0A39EE68AA38EE899A8D
:103D100060EEAC8A6FEEACCA4FEE8F8A40EECFCA2F
:103D200026EE808A27EE000A07EE278AC2ED028A75
:103D300006EEE70AC2ED03CA64EE8A7A25EE0AAA05
:103D400045EE2A7A8AED028A04EEEAAA8AED030A8F
:103D500022EE89BA23EE099A03EE0EBAC0ED027A7A
:103D600002EECE9A80ED03AA109883421298844402
:103D70008EED02BA8EED039AFFF4FEAE089B079E0D
:103D800001330698834206F10806DDF824C0FFF4EB
:103D900091AE3F290298069C9FED060A4FEAC000AB
:103DA00002903FF68BAD14B0BDEC108B01B0BDE8B6
:103DB000F08F00BFF304353F10B578B14FF40071B8
:103DC0000446FDF72FFF50B94FF48060208249F27E
:103DD0006040C0F610006061002000E0FF2040B2AB
:103DE00010BD10B568B140210446FDF71BFF48B96E
:103DF000802020824AF26040C0F6100060610020FE
:103E000000E0FF2040B210BD10B578B14FF48061E2
:103E10000446FDF707FF50B94FF4006020824AF2D4
:103E20006060C0F610006061002000E0FF2040B23A
:103E300010BD10B570B180210446FDF7F3FE50B9F6
:103E40004FF4807020824CF26060C0F61000606118
:103E5000002000E0FF2040B210BD10B568B1102175
:103E60000446FDF7DFFE48B9202020824CF6602092
:103E7000C0F610006061002000E0FF2040B210BDDD
:103E800010B578B14FF400610446FDF7CBFE50B990
:103E90004FF4805020824CF6E020C0F610006061A4
:103EA000002000E0FF2040B210BD10B578B14FF403
:103EB00080710446FDF7B6FE50B94FF400702082C1
:103EC00040F6E020C0F611006061002000E0FF2015
:103ED00040B210BD10B568B120210446FDF7A2FE26
:103EE00048B94020208241F2E020C0F61100606114
:103EF000002000E0FF2040B210BDF0B581B01446B4
:103F00000F46054673B12846394622461E4600F044
:103F10008BFC012328462146324601B0BDE8F04023
:103F2000FDF710BE0022012328463946FDF70AFEA0
:103F300028463946224601B0BDE8F04000F0C6BC34
:103F4000B1F5007F0ADA7F2916DC202929D0402923
:103F50003BD143F6D561C0F600010847B1F5006FCB
:103F600014DAB1F5007F21D0B1F5806F2DD143F681
:103F7000B951C0F60001084780291CD0B1F5807FF7
:103F800023D143F63361C0F600010847B1F5805FE5
:103F900016D0B1F5006F18D143F60961C0F60001E3
:103FA000084743F65B61C0F60001084743F6AB6182
:103FB000C0F60001084743F6E351C0F60001084788
:103FC00043F68161C0F6000108474FF0FF307047AB
:103FD0000023B3EB920F21D0930800BF90ED001A9D
:103FE00090ED012A90ED023A90ED034A21EE001A7D
:103FF00001F1100C22EE002A81ED001A23EE003AA6
:1040000081ED012A24EE004A81ED023A013B00F1E4
:10401000100081ED034A6146E0D1614612F00302CF
:1040200008BF7047B0EC011A21EE001A0B1D013ACF
:1040300081ED001A1946F5D1704700002DE9F041D5
:10404000DDF818C00024C2F10F0EB4EB9C0F28D08D
:104050004FEA9C024FFA8EF8056846680830013A2C
:1040600015FB21F711FB05F516FB21F447FA08F7BC
:1040700011FB06F645FA08F544FA08F446FA08F684
:1040800007F30F0705F30F0504F30F0406F30F06FC
:10409000C5EA07451D60C6EA04445C6003F10803F5
:1040A000DAD11CF0030208BFBDE8F0815FFA8EF49C
:1040B00030F9027B013A01FB07F747FA04F707F3EF
:1040C0000F0723F8027BF3D1BDE8F081F0B5013290
:1040D000DDF814C04FFA82FE4FEA9C02BEF1FF3FAA
:1040E0003DDD002A6BD06FF0004400BF056855FB32
:1040F00001F505FA0EF646FA0EF7BD4218BF84EA3E
:10410000E5761E60456855FB01F505FA0EF646FAA0
:104110000EF7BD4218BF84EAE5765E60856855FB00
:1041200001F505FA0EF646FA0EF7BD4218BF84EA0D
:10413000E5769E60C56855FB01F606FA0EF747FA6C
:104140000EF5AE4200F1100518BF84EAE67703F1E0
:104150001006013ADF6028463346C7D124E0002A22
:1041600045D0CEF1000400BF0568013A55FB01F5CA
:1041700045FA04F51D60456855FB01F545FA04F55F
:104180005D60856855FB01F545FA04F59D60C668DC
:1041900000F1100556FB01F003F1100640FA04F09F
:1041A000D86028463346DFD133462846BEF1FF3F6C
:1041B0000CF0030219DD002A08BFF0BD02E01CF07C
:1041C000030223D06FF0004450F8047B57FB01F743
:1041D00007FA0EF646FA0EF5AF4218BF84EAE77604
:1041E000013A43F8046BEFD110E01AB90EE01CF06D
:1041F00003020BD0CEF1000450F8047B013A57FBC8
:1042000001F747FA04F743F8047BF5D1F0BD00004D
:104210009FED1F1A20EE010A9FED1F2ABDEEC01A66
:10422000B5EE400AF1EE10FA11EE100AB8BF0138EF
:1042300001EE100A0020B8EEC11A30EE410A9FEDDF
:10424000151A20EE010ABCEEC01A30EE022A11EE59
:10425000101AB0EB512F48F2D40018BF002100FE15
:10426000020AC0F60F0001EE101A00EB810090ED7B
:10427000012A90ED003AB8EE411A30EE410AB7EE4D
:10428000001A31EE401A20EE020A01EE030A7047CE
:1042900083F9223E00000044000000C44FF4FC42B9
:1042A000C0F3881102EA402048F6D802C0F60F0297
:1042B00002EB410332F91110C0F50042B3F90230AC
:1042C00051430022C7F6FF72114013FB00106FF03C
:1042D000010101EAD03000B2704780B548F6DC43F6
:1042E0004FF60062C0F38851C0F60F03C7F6FF72A5
:1042F00002EA402053F8212003EB810CC0F1004377
:10430000A2FB031ED117DCF8042001FB03E150FBE4
:104310000210400080BD00002DE9F04F85B0D0E9CB
:104320000356A5F1010ED0F804B0022D806806EB0B
:104330008E070397CDE9010606EBCE00049051DB12
:10434000009591ED000A0026012B06F1010A42DBDF
:104350000BEB8A0090ED001AB4EE410AF1EE10FA70
:1043600039DC019F0BEB860807EB8605029F07EB04
:104370008604039F07EB8609049F07EB860C00BFAA
:1043800098ED001A94ED002A30EE410A95ED001ADE
:104390009CED003A022BA3F1010302EE001A99ED05
:1043A000002A22EE002A20EE033A00EE021A20EE46
:1043B000032A00EE021A82ED001A02F1040291EDC6
:1043C000010A01F1040106DB90ED001AB4EE410A86
:1043D000F1EE10FAD4DDF2455646B5D10098A0F1C1
:1043E000020C01E04FF0FF3C012B2FDB0198029FF4
:1043F000039D049C00EB8C00013307EB8C070BEB57
:104400008C0605EB8C0504EB8C0400BF91ED000AD3
:1044100096ED001A30EE410A97ED002A90ED001A51
:1044200094ED003A013B043102EE001A95ED002AAA
:1044300022EE002A012B20EE033A00EE021A20EEB3
:10444000032A00EE021AA2EC011ADFDC05B0BDE877
:10445000F08F00002DE9F04F82B0DDF82C90DDF8F0
:1044600034B0A9F1010CC0E901230BEB8C0A0090D8
:10447000C0F80C9021B1012906D1BFEE000A01E07D
:104480009FED700A8BED000ABCF1020F4FF00007A0
:10449000CAF800704BDB92ED000A92ED012A32EE71
:1044A000400AB0EE081A4FEA89081F1DA9F1030E51
:1044B00002F108055E4600BF95ED003AB0EE404AB5
:1044C00033EE420A97ED002A97ED013A06EB080415
:1044D00017ED016A33EE423A34EE005ABEF1000F96
:1044E00036EE422A96ED006A23EE013A35EE055A81
:1044F00004EE465A22EE012A83EE003A82EE042AA6
:1045000080EE056A86ED016A33EE022A14ED013A67
:1045100004EE432A82EE052A84ED002A07D095EDA9
:10452000002A04360437AEF1010E0435C4E799B110
:10453000012917D16FF00701B7EE000A01EB8901DD
:104540000BEB0107514497ED001A31EE000A91ED93
:10455000001A81EE000A01E09FED3A0A0AEB8C0195
:1045600081ED000AB9F1020665D40C9809EB490403
:104570006FF00305B0EE080A00EB8C0101914FEAE1
:104580004C0100EB840405EB810559460AEB8C0EC7
:10459000A4F1100A00EB86094F190BEB860B4419A6
:1045A00003EB8C03002502EB8C0200BF0BEB05082C
:1045B00078199EED001A511998ED002A90ED003AF5
:1045C00001EE423A6019ACF1010CBCF1000F80ED34
:1045D000003A91ED004A33EE032A11ED013A34EE30
:1045E000433A03EB050131EE022A11ED014A91ED48
:1045F000005A09EB050135EE444A23EE022A84EE07
:10460000034A82EE002A34EE422A81ED002A90ED20
:10461000002A019831EE421A23EE002A00EB860EA2
:104620000AEB0500A6F10106A5F1040581EE021AC8
:1046300080ED001ABADC00980C99016102B0BDE867
:10464000F08F00BF0000000010B52DED028B82B08E
:10465000144601AA00F06AF89DED018AB5EE408A81
:10466000F1EE10FA02DA9FED0B0A08E0B0EE480A0C
:1046700017F021FDB4EE400AF1EE10FA05D684EDF4
:10468000000A02B0BDEC028B10BDB0EE480A17F074
:1046900012FDF4E700000000B0B50025B5EB930F64
:1046A00031D04FEA930C00BF90ED000A91ED001A53
:1046B00030EE410A00F1100E82ED000A01F1100403
:1046C00090ED010A91ED011A30EE410A02F1100558
:1046D00082ED010ABCF1010C90ED020A91ED021A83
:1046E00030EE410A82ED020A90ED030A91ED031AC1
:1046F00030EE410A704682ED030A2A462146D3D1A4
:1047000021462A46704613F0030308BFB0BD00BF20
:10471000B0EC010AB1EC011A30EE410A151D013B63
:1047200082ED000A2A46F3D1B0BD0000B0B50229DF
:1047300002D29FED3C0A72E000234FEA910CB3EBEA
:10474000910F1CD021F0030E9FED361A04466346EC
:1047500094ED000A013B31EE000A94ED011A30EEAF
:10476000010A94ED021A30EE010A94ED031A04F1E5
:10477000100430EE011AEBD100EB8E0302E09FED46
:10478000291A034611F0030507D02C4693ED000AC1
:10479000043331EE001A013CF8D100EE101ABCF1DE
:1047A000000FB8EE400A81EE002A25D021F0030E5A
:1047B0009FED1C1A014600BF91ED003A91ED014AB0
:1047C00033EE423ABCF1010C03EE031A34EE423AE6
:1047D00091ED024A03EE031A34EE423A91ED034A98
:1047E00001F1100103EE031A34EE423A03EE031A0C
:1047F000E2D100EB8E0001E09FED0A1A4DB100BF3F
:1048000090ED003A043033EE423A013D03EE031AD4
:10481000F6D1BFEE002A30EE020A81EE000A82EDE8
:10482000000AB0BD0000000080B591ED001A91EDC6
:10483000012A31EE023AB6EE000A31EE421A03883E
:10484000B3F1010C23EE002A21EE001A82ED002ABA
:10485000436982ED011A08BF80BD01EBCC0E01F166
:104860000800083302F108010EF1040212ED011AEA
:1048700090ED003A33EE415A92ED002A90ED014A54
:1048800093ED007A31EE031A93ED013A32EE046AA9
:10489000BCF1010C05EE471A00F1080034EE422A83
:1048A00003F1080305EE032AA2F1080206EE431AFB
:1048B00007EE462A21EE001A81ED001A22EE002AA8
:1048C00081ED012A01F10801D0D180BD80B591EDC3
:1048D000000A91ED011A30EE002A038831EE011A28
:1048E000B6EE000AA3F1010C406900F1080301F1E2
:1048F000080032EE013A01EBCC0E32EE411A02F121
:10490000080123EE002A21EE001A82ED002A82ED32
:10491000011A0EF1040200BF12ED011A90ED003AE7
:1049200031EE435A92ED002A90ED014A93ED007A60
:1049300031EE031A93ED013A32EE046ABCF1010C38
:1049400005EE071A03F1080334EE422A00F10800CD
:1049500005EE032AA2F1080206EE031A07EE462A24
:1049600021EE001A81ED001A22EE002A81ED012AC3
:1049700001F10801D0D180BD70B53B490546006802
:1049800088421CBF394A904205D1D1F8080310F47F
:10499000403F06D115E03648D0F8080310F4403FF8
:1049A0000FD009F095FE04466868B0F5803F14BF4B
:1049B000B0F5003F000C1BD0B0F5403F08BFA40885
:1049C00022E04FF4002008F019FE044668688103D5
:1049D000890B19D180140C2816D2DFE800F01506D7
:1049E00006060606060C0E1012146868800C4000BD
:1049F000B4FBF0F408E0240906E0640904E0A4092B
:104A000002E0E40900E0240A06F014FD41F203018B
:104A1000884208D81748A0422868816828BF21F436
:104A2000807112D20FE014496008884204D82868C7
:104A3000816821F4407108E01049884207D828684D
:104A4000816821F4407141F48071816070BD0C492E
:104A50008842286881689ABF21F4407141F400714E
:104A600041F44071F1E700000020024000210240C3
:104A700000600258002D3101105E5F0020BCBE00B6
:104A800040787D01014804F0C3BB000010150024EC
:104A9000F8B59FED390A14460D46402106468DEDC6
:104AA000000A6A46FEF79EFD9DED000ADFED330A1F
:104AB000F7EE001A324820EE200A8DED000AD4ED00
:104AC000000AF4EEC00AF1EE10FA0ADD90ED011AC8
:104AD00071EEC11A61EEA00A41EE000ACDED000AA6
:104AE00009E090ED001A71EEC11A61EEA00A41EEE4
:104AF000000ACDED000AC4ED000A9DED000AB7EEF4
:104B0000C00A16F0A9FD9FED201BB2EE042B204B2E
:104B100000EE021B93F9010000EE100A9878B8EE3F
:104B2000C00B31EE400B01EE100A1A48B8EE411BE3
:104B300030EE410BBDEEC00B10EE102A02709B79D7
:104B40009342A8BFF8BD981A00EE100AF3EE040ACB
:104B5000B8EEC00A80EE201AB2EE040BB7EEC11A0E
:104B600016F0FAFDB7EEC00B402229463046FCF79E
:104B7000A7FBF8BD00000000000000000000803C22
:104B8000E8030024000000000000000000805740FF
:104B900040A903242400002470B51F4C01209FED80
:104BA0001F0A2DED048B20706E20A0710A20E07189
:104BB0004FF4FA4084ED020A9FED190A9FED199A0D
:104BC00084ED030AA080E620607000209FED160BA4
:104BD000A07016F0EDFAB7EE008B154D38EE400BD5
:104BE000B7EEC00B85ED000AA088D4ED030A00EEF5
:104BF000100AB8EE400A20EE800AC9EE000AB7EEAD
:104C0000E00A16F0D5FA38EE400BB7EEC00B85ED92
:104C1000010ABDEC048B70BD40A90324295C0F3D43
:104C20000AD7233C000080C200000020D441ADBF61
:104C3000E803002470B50D4608491C461346097860
:104C4000002908BF70BD064A1946FFF721FF21461B
:104C50002846BDE87040034AFFF71ABF40A9032465
:104C6000F0030024F403002470B51A4C2DED048BDE
:104C7000A088D4ED020A00EE100A9FED179AB8EE54
:104C8000400A20EE800AC9EE000AB7EEE00A16F0EC
:104C90008FFAB7EE008B114D38EE400BB7EEC00B1C
:104CA00085ED000AA088D4ED030A00EE100AB8EEE4
:104CB000400A20EE800AC9EE000AB7EEE00A16F0BC
:104CC00077FA38EE400BB7EEC00B85ED010ABDEC6C
:104CD000048B70BD40A90324000080C2E8030024B7
:104CE0002F48012170B59FED301B01700221B2EEFB
:104CF000040B417016F030FDB7EEC00B28480321BD
:104D00002B4C80ED0A0A04F50270FCF798FD032194
:104D100004F50270FCF7DDF9002004EB8001401C73
:104D2000D1ED820A032880EE801A81ED821AF4DB2D
:104D300020480B210546FCF782FD0B212846FCF795
:104D4000C8F9002004EB800101F5C051401CD1EDF1
:104D5000E40A0B2880EE801A81EDE41AF2DB41218F
:104D6000B7EE000A04F5A460FCF764FA124B0020C9
:104D700003F5026204EB800101F5805103EB401C56
:104D8000C1F884C802EB401C401CC1F888C9412806
:104D9000F0DB0A480021C0F8E81CC0F8EC1C70BD2C
:104DA0009C0300240000000066666666666606C016
:104DB000005F0324907A0324C04E0324006F032471
:104DC00070B5154E0D463178002908BF70BD134CE3
:104DD000D4F8E81C491CC4F8E81CD4F8EC2C0F2AC1
:104DE000DCBF511CC4F8EC1C80220D49FCF726FAEC
:104DF0007078002818BF0DF093F8D4F8E80C0F284D
:104E0000A8BF00208022C4F8E80C29460448BDE869
:104E10007040FCF713BA00009C030024006F0324C9
:104E2000005F03242DE9F04705461B4817468846D6
:104E30004FF000040078012808BFDFF8609012D01E
:104E400055F82400802208EB4421FCF7F7F955F8C7
:104E50002400802207EB4421FCF7F0F9641C042CA9
:104E6000EEDBBDE8F08709EB840655F824008022CC
:104E700096ED000A08EB4421FCF722FA55F82400CD
:104E8000802296ED040A07EB4421FCF719FA641C12
:104E9000042CE8DBBDE8F0875499032470990324BF
:104EA0002DE9F05F05461E4891468A464FF0000402
:104EB0000078012804BFDFF86C80DFF86CB00ED0FA
:104EC000802251462846FCF7B9F9802249462846F7
:104ED000FCF7B4F9641C802CF2DBBDE8F09F08EB12
:104EE000040718F804000BEB8406797896ED000AA5
:104EF0000A1A0AEB800105EB8000FCF7E1F97978EA
:104F000018F8040096ED040A0A1A09EB800105EB73
:104F10008000FCF7D5F9641C042CE0DBBDE8F09FB1
:104F200054990324E0E90208709903240B480121F5
:104F3000DFED0B0A9FED0B0A017000210175417531
:104F40008175C175017641768176C176C0ED010A21
:104F500080ED020AC0ED030A03F042B9549903241C
:104F6000CDCC4C3E9A99193F03F03AB938B5FC4C78
:104F700001202070202084F88A019FEDFA0ADFEDDD
:104F8000FA0A9FEDFA1ADFEDFA1A9FEDFA2ADFED21
:104F9000FA2A9FEDFA3ADFEDFA3A9FEDFA4ADFED91
:104FA000FA4A9FEDFA5ADFEDFA5A9FEDFA6ADFED01
:104FB000FA6A201D80EC0E0ADFEDF86AC4ED0F6A74
:104FC000DFEDF76AC4ED106ADFEDF66AC4ED116A31
:104FD000DFEDF36AC4ED126ADFEDF06AC4ED136A27
:104FE000DFEDED6A04F5D273C4ED146A84ED156A41
:104FF000C4ED165A84ED175AC4ED184A84ED194AC7
:10500000C4ED1A3A84ED1B3AC4ED1C2A84ED1D2A26
:10501000C4ED1E1A84ED1F1AC4ED200A84ED210A86
:10502000402500952121221DA3F11800FCF771FBFA
:10503000009504F5697394F88A01221D411CA3F5BB
:105040000370FCF766FB94ED010ADFEDD70A20EE52
:10505000200ABDEEC00A10EE100AA4F8080194ED73
:10506000020ADFEDD10A20EE200ABDEEC00A10EEE2
:10507000100AA4F80A0194ED030ADFEDCB0A20EE32
:10508000200ABDEEC00A10EE100AA4F80C0194ED3F
:10509000040ADFEDC50A20EE200ABDEEC00A10EEBC
:1050A000100AA4F80E0194ED050ADFEDBF0A20EE08
:1050B000200ABDEEC00A10EE100AA4F8100194ED0B
:1050C000060ADFEDB90A20EE200ABDEEC00A10EE96
:1050D000100AA4F8120194ED070ADFEDB30A20EEDE
:1050E000200ABDEEC00A10EE100AA4F8140194EDD7
:1050F000080ADFEDAD0A20EE200ABDEEC00A10EE70
:10510000100AA4F8160194ED090ADFEDA70A20EEB3
:10511000200ABDEEC00A10EE100AA4F8180194EDA2
:105120000A0ADFEDA10A20EE200ABDEEC00A10EE49
:10513000100AA4F81A0194ED0B0ADFED9B0A20EE89
:10514000200ABDEEC00A10EE100AA4F81C0194ED6E
:105150000C0ADFED950A20EE200ABDEEC00A10EE23
:10516000100AA4F81E0194ED0D0ADFED8F0A20EE5F
:10517000200ABDEEC00A10EE100AA4F8200194ED3A
:105180000E0ADFED890A20EE200ABDEEC00A10EEFD
:10519000100AA4F8220194ED0F0ADFED830A20EE35
:1051A000200ABDEEC00A10EE100AA4F8240194ED06
:1051B000100ADFED7D0A20EE200ABDEEC00A10EED7
:1051C000100AA4F8260194ED110ADFED770A20EE0B
:1051D000200ABDEEC00A10EE100AA4F8280194EDD2
:1051E000120ADFED710A20EE200ABDEEC00A10EEB1
:1051F000100AA4F82A0194ED130ADFED6B0A20EEE1
:10520000200ABDEEC00A10EE100AA4F82C0194ED9D
:10521000140ADFED650A20EE200ABDEEC00A10EE8A
:10522000100AA4F82E0194ED150ADFED5F0A20EEB6
:10523000200ABDEEC00A10EE100AA4F8300194ED69
:10524000160ADFED590A20EE200ABDEEC00A10EE64
:10525000100AA4F8320194ED170ADFED530A20EE8C
:10526000200ABDEEC00A10EE100AA4F8340194ED35
:10527000180ADFED4D0A20EE200ABDEEC00A10EE3E
:10528000100AA4F8360194ED190ADFED470A20EE62
:10529000200ABDEEC00A10EE100AA4F8380194ED01
:1052A0001A0ADFED410A20EE200ADFED3F0ABDEECB
:1052B000C00A10EE100AA4F83A0194ED1B0A20EE81
:1052C000200ADFED390ABDEEC00A10EE100AA4F87C
:1052D0003C0194ED1C0A20EE200ADFED330ABDEEFE
:1052E000C00A10EE100AA4F83E0194ED1D0A20EE4B
:1052F000200ADFED2D0ABDEEC00A10EE100AA4F858
:10530000400194ED1E0A20EE200ADFED270ABDEED3
:10531000C00A10EE100AA4F8420194ED1F0A20EE14
:10532000200ADFED210ABDEEC00A10EE100AA4F833
:10533000440194ED200A20EE200ADFED1B0ABDEEA9
:10534000C00A10EE100AA4F8460194ED210A20EEDE
:10535000200ABDEEC00A10EE100AA4F8480138BDBC
:1053600050A903247B87D33E9949B4BD8E1E23BF29
:10537000C686663F4C34483D8F0005C06006A13F9D
:10538000BE4D773F022D81C0624D753F828D5240E8
:1053900089D09BC0A67C08BEE824C140B4AD7AC0C9
:1053A0006039E8BFE4C8F24000008044DFF82CC058
:1053B0009CF800C0BCF1000F08BF704770B50D46E7
:1053C0001C46402301460648FCF7A1F9224629461F
:1053D000BDE8704003484023FCF799B950A9032465
:1053E000DCAA0324E8AA032438B50C4C4025009518
:1053F00004F5D273221D94F88A01411CA3F1180010
:10540000FCF787F9009504F5697394F88A01221D69
:10541000411CA3F50370FCF77CF938BD50A90324A7
:105420002DE9F041ADF5C16D0D464FF40071804698
:1054300002A8FAF7E2FF4FF4007182A8FAF7DDFF45
:105440004FF400710DF58160FAF7D7FF80216A46AD
:105450004046FFF7F9F89DED000AF0EE000A2F4BE9
:10546000002020EE200AA3F5C0678DED000A03EBB3
:10547000800207EB8001D2ED000A401C802860EE1C
:10548000800AC1ED000AD2ED800A02F5806260EE6A
:10549000800AC1ED800AD2ED000A01F5806160EE5C
:1054A000800AC1ED000AE2DB00244046802307EBBE
:1054B000442102AA0E46FCF7D7FA194A0DF581617C
:1054C00002A803F0FBF88023314602AA4046FFF70A
:1054D000E3F8134A82A902A803F0F0F8C4F1030626
:1054E000802382A955F826200DF58160FCF7BCFACF
:1054F00055F826008022B6EE000A0146FEF768FD48
:1055000055F8261080232A684046FFF7C5F8641C2A
:10551000032CCADB0DF5C16DBDE8F0815493032463
:10552000DC0300240848002110B501704FF4FA4153
:10553000418000F029F80548802101600421416084
:10554000BDE8104002F0F0BFD8030024DC030024C3
:10555000002200EB820393ED000AD3ED800A03F5ED
:10556000806330EE200AD3ED000A30EE200AD3ED3E
:10557000800A01EB8203521C30EE200A802A83ED60
:10558000000AE6DB704700002DE9F041284E0024B8
:10559000294F2DED048BB7EE008ADFED268A9FEDB3
:1055A000279ADFED279A708800EE100AB8EE400ABD
:1055B000C8EE000A00EE104AB8EEC00A20EE280A33
:1055C00020EE800AFCF742F807EB840585ED000A1F
:1055D000708800EE100AB8EE400AC8EE000A00EE2D
:1055E000104AB8EEC00A20EE090A20EE800AFCF745
:1055F0002DF885ED800A708800EE100AB8EE400A9A
:10560000C8EE000A00EE104AB8EEC00A20EE290AE1
:1056100020EE800AFCF71AF805F58060641C802CE7
:1056200080ED000ABFDBBDEC048BBDE8F08100001B
:10563000D80300247C59C446549303247C5944461F
:105640007C59C4450A48012105229FED0B0A0170CF
:10565000417082700748C0F848121421C0F84C12FB
:105660004FF4027180ED940AA0F5BB60FBF7E2BD38
:1056700098030024ECA10024000000002DE9F04173
:10568000464F04460E463878012860D1444D8022AA
:10569000204605F50271FBF7D1FD802205F58261F8
:1056A00004F50070FBF7CAFD802205F5C36104F51F
:1056B0008060FBF7C3FD802205F5026104F5C06040
:1056C000FBF7BCFD95ED830A05F5806000F580626F
:1056D00080ED020A9FED330A85ED830AD0ED050ABD
:1056E000C0ED840A80ED050AD0ED870AC2ED060AF6
:1056F00080ED870AD2ED090AC2ED880A82ED090A17
:1057000095ED820AB5EEC00AF1EE10FA82BF95ED72
:10571000840AB5EEC00AF1EE10FA18D995ED860AA2
:10572000B5EEC00AF1EE10FA82BF95ED880AB5EE2B
:10573000C00AF1EE10FA0AD9B87840B10EF0B6F806
:1057400031461748BDE8F0418022FBF777BD7878F5
:1057500028B101280AD0022810D0032816D03146DB
:105760002046BDE8F0418022FBF768BD04F50070DB
:105770003146BDE8F0418022FBF760BD04F5806052
:105780003146BDE8F0418022FBF758BD04F5C0600A
:105790003146BDE8F0418022FBF750BD980300245C
:1057A000EC9100240000000008B5DDF808C0CDF839
:1057B00000C0FDF733F808BD38B50446684600F070
:1057C0001FF9134DE0B2092804D09DF80000092804
:1057D0000AD019E000F002FC287840F0020028709E
:1057E000687840F001000EE04FF4FA4010F070FBD2
:1057F0004FF4FA4000F052FD287840F00200287083
:10580000687840F002006870E0B200F0A9FC38BD92
:10581000EC0000240A4B9FED0B0AD3ED020A60EE68
:10582000800AFCEEE00A10EE902A0280D3ED030A13
:1058300020EE800ABCEEC00A10EE100A0880704705
:1058400040A9032400007A44024A93790370D07976
:105850000870704740A90324B2F50A7F4FF40A7319
:105860000B803CBF0020704770B5044620480FC82D
:1058700084E80F001F49502204F11000FAF796FD4A
:105880001D4804F1600E90E86F108EE86F101B4801
:105890004FF4C6720068E06719480088A4F88000D9
:1058A00018480188A4F88210807884F8840016488B
:1058B00016490068C4F8860004F18C00FAF776FDFA
:1058C00013491448D1F82A23C4F81822B1F82E231A
:1058D000A4F81C22D1F83023C4F81E22B1F83413E6
:1058E000A4F822120088A4F82402012070BD000050
:1058F00040A903249099032454990324E403002429
:105900009C03002498030024D803002450A90324F6
:105910004822002404E802083228C8BF322006DCEE
:1059200010F1250FB4BF6FF02400002803DB0549F8
:1059300031F8100070470449A1EB400030F8020C28
:105940007047000050E8020806E802080B490022F0
:10595000897801290DD0022902BF5A2101807047A0
:10596000032908BFB42106D0042908BF4FF487716A
:1059700001D0028070470180704700009803002426
:10598000014949780170704798030024014949781A
:10599000017070479C030024054B002A0CBF03F1E3
:1059A000140203F11802114411F8011C0170704730
:1059B000549903240C4A92F88A310B70002192F812
:1059C0008A31B3F1FF3F08BF704702EB4103B3F8E0
:1059D000083120F8113092F88A31491C89B25B1CD9
:1059E0008B42F2D87047000050A90324002808BF5A
:1059F0007047024A026004200870704725000024A6
:105A000001490978017070471C0000240C2827D236
:105A1000DFE800F0060A0E121A161E262626262297
:105A200010480078087070470F4800780870704779
:105A30000E480078087070470D480078087070476D
:105A40000C480078087070470B4800780870704761
:105A50000A48007808707047094800780870704755
:105A60000020FBE7980300249C030024D8030024B3
:105A70005499032490990324E403002440A90324A7
:105A800050A90324082070470149897801707047A4
:105A900040A90324002808BF7047024949780170D3
:105AA0007047000040A903249FED160A032904BF94
:105AB0000022DFF854C00FD10CEB8203D3ED010AB2
:105AC00060EE800AFDEEE00A10EE903A20F8123007
:105AD000521CD2B2042AEFD3052906BF00210B4B7A
